module.exports=[851400,a=>a.a(async(b,c)=>{try{var d=a.i(508171),e=a.i(811280),f=a.i(486148),g=a.i(218403),h=b([e,f,g]);[e,f,g]=h.then?(await h)():h,a.s(["Container",0,a=>(0,d.jsx)(g.TabsContent,{display:"flex",flexDirection:"column",gap:6,w:"100%",...a}),"Sample",0,({children:a,label:b,vertical:c,...f})=>{let g=c?e.VStack:e.HStack;return(0,d.jsxs)(d.Fragment,{children:[b&&(0,d.jsx)(e.Code,{w:"fit-content",children:b}),(0,d.jsx)(g,{gap:3,whiteSpace:"pre-wrap",flexWrap:"wrap",columnSpan:b?"1":"2",alignItems:c?"flex-start":"center",...f,children:a})]})},"SamplesStack",0,({children:a})=>(0,d.jsx)(e.Grid,{rowGap:4,columnGap:8,gridTemplateColumns:"fit-content(100%) 1fr",justifyItems:"flex-start",alignItems:"flex-start",children:a}),"Section",0,a=>(0,d.jsx)(e.Box,{...a,as:"section"}),"SectionHeader",0,({children:a})=>(0,d.jsx)(f.Heading,{level:"2",mb:4,children:a}),"SectionSubHeader",0,({children:a})=>(0,d.jsx)(f.Heading,{level:"3",mb:3,_notFirst:{mt:4},children:a})]),c()}catch(a){c(a)}},!1),648968,a=>a.a(async(b,c)=>{try{var d=a.i(508171),e=a.i(127669),f=a.i(896443),g=a.i(851400),h=b([f,g]);[f,g]=h.then?(await h)():h;let i=[{value:"first-item",title:"First Item",text:"Some value 1..."},{value:"second-item",title:"Second Item",text:"Some value 2..."},{value:"third-item",title:"Third Item",text:"Some value 3..."}],j=e.default.memo(()=>(0,d.jsx)(g.Container,{value:"accordion",children:(0,d.jsxs)(g.Section,{children:[(0,d.jsx)(g.SectionHeader,{children:"Variant"}),(0,d.jsxs)(g.SamplesStack,{children:[(0,d.jsx)(g.Sample,{label:"variant: outline",children:(0,d.jsx)(f.AccordionRoot,{w:"400px",children:i.map((a,b)=>(0,d.jsxs)(f.AccordionItem,{value:a.value,children:[(0,d.jsx)(f.AccordionItemTrigger,{children:a.title}),(0,d.jsx)(f.AccordionItemContent,{children:a.text})]},b))})}),(0,d.jsx)(g.Sample,{label:"variant: faq",children:(0,d.jsx)(f.AccordionRoot,{w:"400px",variant:"faq",children:i.map((a,b)=>(0,d.jsxs)(f.AccordionItem,{value:a.value,children:[(0,d.jsx)(f.AccordionItemTrigger,{variant:"faq",children:a.title}),(0,d.jsx)(f.AccordionItemContent,{children:a.text})]},b))})})]}),(0,d.jsx)(g.SectionHeader,{children:"Size"}),(0,d.jsxs)(g.SamplesStack,{children:[(0,d.jsx)(g.Sample,{label:"size: md",children:(0,d.jsx)(f.AccordionRoot,{w:"400px",children:i.map((a,b)=>(0,d.jsxs)(f.AccordionItem,{value:a.value,children:[(0,d.jsx)(f.AccordionItemTrigger,{children:a.title}),(0,d.jsx)(f.AccordionItemContent,{children:a.text})]},b))})}),(0,d.jsx)(g.Sample,{label:"size: sm",children:(0,d.jsx)(f.AccordionRoot,{w:"400px",size:"sm",children:i.map((a,b)=>(0,d.jsxs)(f.AccordionItem,{value:a.value,children:[(0,d.jsx)(f.AccordionItemTrigger,{indicatorPlacement:"start",children:a.title}),(0,d.jsx)(f.AccordionItemContent,{children:a.text})]},b))})})]})]})}));a.s(["default",0,j]),c()}catch(a){c(a)}},!1),355045,a=>a.a(async(b,c)=>{try{var d=a.i(508171),e=a.i(811280),f=a.i(127669),g=a.i(602550),h=a.i(961745),i=a.i(905392),j=a.i(527749),k=a.i(312637),l=a.i(851400),m=b([e,g,h,i,j,k,l]);[e,g,h,i,j,k,l]=m.then?(await m)():m;let n=f.default.memo(()=>(0,d.jsxs)(l.Container,{value:"alert",children:[(0,d.jsxs)(l.Section,{children:[(0,d.jsx)(l.SectionHeader,{children:"Status"}),(0,d.jsxs)(l.SamplesStack,{children:[(0,d.jsx)(l.Sample,{label:"status: info",children:(0,d.jsx)(g.Alert,{status:"info",title:"Info",children:" Alert content "})}),(0,d.jsx)(l.Sample,{label:"status: warning",children:(0,d.jsx)(g.Alert,{status:"warning",title:"Warning",children:" Alert content "})}),(0,d.jsx)(l.Sample,{label:"status: success",children:(0,d.jsx)(g.Alert,{status:"success",title:"Success",children:" Alert content "})}),(0,d.jsx)(l.Sample,{label:"status: error",children:(0,d.jsx)(g.Alert,{status:"error",title:"Error",children:" Alert content "})})]})]}),(0,d.jsxs)(l.Section,{children:[(0,d.jsx)(l.SectionHeader,{children:"Variant"}),(0,d.jsx)(l.SamplesStack,{children:(0,d.jsx)(l.Sample,{label:"variant: subtle",children:(0,d.jsx)(g.Alert,{status:"info",title:"Info",showIcon:!0,children:" Alert content "})})})]}),(0,d.jsxs)(l.Section,{children:[(0,d.jsx)(l.SectionHeader,{children:"Size"}),(0,d.jsxs)(l.SamplesStack,{children:[(0,d.jsx)(l.Sample,{label:"size: sm",children:(0,d.jsx)(g.Alert,{status:"info",title:"Info",showIcon:!0,size:"sm",closable:!0,children:" Alert content "})}),(0,d.jsx)(l.Sample,{label:"size: md",children:(0,d.jsx)(g.Alert,{status:"info",title:"Info",showIcon:!0,size:"md",children:" Alert content "})})]})]}),(0,d.jsxs)(l.Section,{children:[(0,d.jsx)(l.SectionHeader,{children:"Closable"}),(0,d.jsx)(l.SamplesStack,{children:(0,d.jsx)(l.Sample,{label:"closable",children:(0,d.jsx)(g.Alert,{status:"info",title:"Info",showIcon:!0,closable:!0,children:" Alert content "})})})]}),(0,d.jsxs)(l.Section,{children:[(0,d.jsx)(l.SectionHeader,{children:"Loading"}),(0,d.jsx)(l.SamplesStack,{children:(0,d.jsx)(l.Sample,{label:"loading: true",children:(0,d.jsx)(g.Alert,{status:"info",title:"Info",loading:!0,children:" Alert content "})})})]}),(0,d.jsxs)(l.Section,{children:[(0,d.jsx)(l.SectionHeader,{children:"Examples"}),(0,d.jsx)(l.SectionSubHeader,{children:"As Link"}),(0,d.jsx)(l.SamplesStack,{children:(0,d.jsx)(l.Sample,{children:(0,d.jsx)(h.Link,{href:"/",asChild:!0,children:(0,d.jsx)(g.Alert,{status:"info",title:"Info",children:" Alert content "})})})}),(0,d.jsx)(l.SectionSubHeader,{children:"Inside table (SocketNewItemsNotice)"}),(0,d.jsxs)(l.SamplesStack,{children:[(0,d.jsx)(l.Sample,{label:"loading",children:(0,d.jsxs)(i.TableRoot,{tableLayout:"auto",children:[(0,d.jsx)(i.TableHeader,{children:(0,d.jsxs)(i.TableRow,{children:[(0,d.jsx)(i.TableColumnHeader,{w:"100px",children:"Block"}),(0,d.jsx)(i.TableColumnHeader,{w:"100px",children:"Age"}),(0,d.jsx)(i.TableColumnHeader,{w:"100px",children:"Gas used"})]})}),(0,d.jsx)(i.TableBody,{children:(0,d.jsx)(j.Desktop,{num:1234,type:"block",isLoading:!0})})]})}),(0,d.jsx)(l.Sample,{label:"success",children:(0,d.jsxs)(i.TableRoot,{tableLayout:"auto",children:[(0,d.jsx)(i.TableHeader,{children:(0,d.jsxs)(i.TableRow,{children:[(0,d.jsx)(i.TableColumnHeader,{w:"100px",children:"Block"}),(0,d.jsx)(i.TableColumnHeader,{w:"100px",children:"Age"}),(0,d.jsx)(i.TableColumnHeader,{w:"100px",children:"Gas used"})]})}),(0,d.jsx)(i.TableBody,{children:(0,d.jsx)(j.Desktop,{num:1234,type:"block",isLoading:!1})})]})})]}),(0,d.jsx)(l.SectionSubHeader,{children:"Multiple lines"}),(0,d.jsxs)(l.SamplesStack,{children:[(0,d.jsx)(l.Sample,{label:"multiple lines, with title, inline=false",children:(0,d.jsx)(g.Alert,{status:"warning",title:"Warning",inline:!1,maxWidth:"500px",showIcon:!0,closable:!0,children:(0,d.jsx)(e.Box,{children:"Participated in our recent GoldScan activities? Check your eligibility and claim your NFT Scout badges. More exciting things are coming soon!"})})}),(0,d.jsx)(l.Sample,{label:"multiple lines, no title",children:(0,d.jsx)(g.Alert,{status:"warning",maxWidth:"500px",children:(0,d.jsx)(e.Box,{children:"Participated in our recent GoldScan activities? Check your eligibility and claim your NFT Scout badges. More exciting things are coming soon!"})})}),(0,d.jsx)(l.Sample,{label:"with spinner",children:(0,d.jsx)(k.default,{})})]})]})]}));a.s(["default",0,n]),c()}catch(a){c(a)}},!1),804031,a=>a.a(async(b,c)=>{try{var d=a.i(508171),e=a.i(811280),f=a.i(127669),g=a.i(218583),h=a.i(504901),i=a.i(169387),j=a.i(851400),k=b([e,g,h,i,j]);[e,g,h,i,j]=k.then?(await k)():k;let l=f.default.memo(()=>(0,d.jsxs)(j.Container,{value:"badge",children:[(0,d.jsxs)(j.Section,{children:[(0,d.jsx)(j.SectionHeader,{children:"Color palette"}),(0,d.jsxs)(j.SamplesStack,{children:[(0,d.jsx)(j.Sample,{label:"colorPalette: gray",children:(0,d.jsx)(g.Badge,{colorPalette:"gray",children:"Pending"})}),(0,d.jsx)(j.Sample,{label:"colorPalette: green",children:(0,d.jsx)(g.Badge,{colorPalette:"green",children:"Success"})}),(0,d.jsx)(j.Sample,{label:"colorPalette: red",children:(0,d.jsx)(g.Badge,{colorPalette:"red",children:"Failed"})}),(0,d.jsx)(j.Sample,{label:"colorPalette: purple",children:(0,d.jsx)(g.Badge,{colorPalette:"purple",children:"Transaction"})}),(0,d.jsx)(j.Sample,{label:"colorPalette: orange",children:(0,d.jsx)(g.Badge,{colorPalette:"orange",children:"Token transfer"})}),(0,d.jsx)(j.Sample,{label:"colorPalette: blue",children:(0,d.jsx)(g.Badge,{colorPalette:"blue",children:"Contract call"})}),(0,d.jsx)(j.Sample,{label:"colorPalette: yellow",children:(0,d.jsx)(g.Badge,{colorPalette:"yellow",children:"Blob txn"})}),(0,d.jsx)(j.Sample,{label:"colorPalette: teal",children:(0,d.jsx)(g.Badge,{colorPalette:"teal",children:"Multicall"})}),(0,d.jsx)(j.Sample,{label:"colorPalette: cyan",children:(0,d.jsx)(g.Badge,{colorPalette:"cyan",children:"Internal txn"})}),(0,d.jsx)(j.Sample,{label:"colorPalette: pink",children:(0,d.jsx)(g.Badge,{colorPalette:"pink",children:"Content"})}),(0,d.jsx)(j.Sample,{label:"colorPalette: purple_alt",children:(0,d.jsx)(g.Badge,{colorPalette:"purple_alt",children:"read"})}),(0,d.jsx)(j.Sample,{label:"colorPalette: blue_alt",children:(0,d.jsx)(g.Badge,{colorPalette:"blue_alt",children:"write"})}),(0,d.jsx)(j.Sample,{label:"colorPalette: bright_gray",children:(0,d.jsx)(g.Badge,{colorPalette:"bright_gray",children:"Content"})}),(0,d.jsx)(j.Sample,{label:"colorPalette: bright_green",children:(0,d.jsx)(g.Badge,{colorPalette:"bright_green",children:"Content"})}),(0,d.jsx)(j.Sample,{label:"colorPalette: bright_red",children:(0,d.jsx)(g.Badge,{colorPalette:"bright_red",children:"Content"})}),(0,d.jsx)(j.Sample,{label:"colorPalette: bright_blue",children:(0,d.jsx)(g.Badge,{colorPalette:"bright_blue",children:"Content"})}),(0,d.jsx)(j.Sample,{label:"colorPalette: bright_yellow",children:(0,d.jsx)(g.Badge,{colorPalette:"bright_yellow",children:"Content"})}),(0,d.jsx)(j.Sample,{label:"colorPalette: bright_teal",children:(0,d.jsx)(g.Badge,{colorPalette:"bright_teal",children:"Content"})}),(0,d.jsx)(j.Sample,{label:"colorPalette: bright_cyan",children:(0,d.jsx)(g.Badge,{colorPalette:"bright_cyan",children:"Content"})}),(0,d.jsx)(j.Sample,{label:"colorPalette: bright_orange",children:(0,d.jsx)(g.Badge,{colorPalette:"bright_orange",children:"Content"})}),(0,d.jsx)(j.Sample,{label:"colorPalette: bright_purple",children:(0,d.jsx)(g.Badge,{colorPalette:"bright_purple",children:"Content"})}),(0,d.jsx)(j.Sample,{label:"colorPalette: bright_pink",children:(0,d.jsx)(g.Badge,{colorPalette:"bright_pink",children:"Content"})})]})]}),(0,d.jsxs)(j.Section,{children:[(0,d.jsx)(j.SectionHeader,{children:"Loading"}),(0,d.jsx)(j.SamplesStack,{children:(0,d.jsx)(j.Sample,{label:"loading: true",children:(0,d.jsx)(g.Badge,{colorPalette:"purple",loading:!0,children:"Content"})})})]}),(0,d.jsxs)(j.Section,{children:[(0,d.jsx)(j.SectionHeader,{children:"Size"}),(0,d.jsxs)(j.SamplesStack,{children:[(0,d.jsx)(j.Sample,{label:"size: sm",children:(0,d.jsx)(g.Badge,{size:"sm",children:"Content"})}),(0,d.jsx)(j.Sample,{label:"size: md",children:(0,d.jsx)(g.Badge,{size:"md",children:"Content"})}),(0,d.jsx)(j.Sample,{label:"size: lg",children:(0,d.jsx)(g.Badge,{size:"lg",children:"Content"})})]})]}),(0,d.jsxs)(j.Section,{children:[(0,d.jsx)(j.SectionHeader,{children:"Variant"}),(0,d.jsx)(j.SamplesStack,{children:(0,d.jsx)(j.Sample,{label:"variant: subtle",children:(0,d.jsx)(g.Badge,{variant:"subtle",children:"Content"})})})]}),(0,d.jsxs)(j.Section,{children:[(0,d.jsx)(j.SectionHeader,{children:"Truncate"}),(0,d.jsx)(j.SamplesStack,{children:(0,d.jsx)(j.Sample,{label:"truncated: true",children:(0,d.jsx)(e.Box,{maxW:"150px",children:(0,d.jsx)(g.Badge,{truncated:!0,children:"Very long content that should be truncated"})})})})]}),(0,d.jsxs)(j.Section,{children:[(0,d.jsx)(j.SectionHeader,{children:"Icon"}),(0,d.jsx)(j.SamplesStack,{children:(0,d.jsx)(j.Sample,{label:"iconStart: status/success",children:(0,d.jsx)(g.Badge,{startElement:(0,d.jsx)(h.default,{name:"status/success",boxSize:2.5}),children:"Content"})})})]}),(0,d.jsxs)(j.Section,{children:[(0,d.jsx)(j.SectionHeader,{children:"Examples"}),(0,d.jsx)(j.SectionSubHeader,{children:"Status tag (StatusTag)"}),(0,d.jsxs)(j.SamplesStack,{children:[(0,d.jsx)(j.Sample,{label:"status: ok",children:(0,d.jsx)(i.default,{type:"ok",text:"Text"})}),(0,d.jsx)(j.Sample,{label:"status: error",children:(0,d.jsx)(i.default,{type:"error",text:"Text"})}),(0,d.jsx)(j.Sample,{label:"status: pending",children:(0,d.jsx)(i.default,{type:"pending",text:"Text"})})]})]})]}));a.s(["default",0,l]),c()}catch(a){c(a)}},!1),745554,a=>a.a(async(b,c)=>{try{var d=a.i(508171),e=a.i(127669),f=a.i(718225),g=a.i(772402),h=a.i(961745),i=a.i(760210),j=a.i(454454),k=a.i(253914),l=a.i(504901),m=a.i(851400),n=b([f,g,h,i,j,k,l,m]);[f,g,h,i,j,k,l,m]=n.then?(await n)():n;let o=e.default.memo(()=>(0,d.jsxs)(m.Container,{value:"button",children:[(0,d.jsxs)(m.Section,{children:[(0,d.jsx)(m.SectionHeader,{children:"Size"}),(0,d.jsxs)(m.SamplesStack,{children:[(0,d.jsx)(m.Sample,{label:"size: 2xs",children:(0,d.jsx)(f.Button,{size:"2xs",children:"Content"})}),(0,d.jsx)(m.Sample,{label:"size: xs",children:(0,d.jsx)(f.Button,{size:"xs",children:"Content"})}),(0,d.jsx)(m.Sample,{label:"size: sm",children:(0,d.jsx)(f.Button,{size:"sm",children:"Content"})}),(0,d.jsx)(m.Sample,{label:"size: md",children:(0,d.jsx)(f.Button,{size:"md",children:"Content"})})]})]}),(0,d.jsxs)(m.Section,{children:[(0,d.jsx)(m.SectionHeader,{children:"Variants"}),(0,d.jsxs)(m.SamplesStack,{children:[(0,d.jsxs)(m.Sample,{label:"variant: solid",children:[(0,d.jsx)(f.Button,{variant:"solid",children:"Default"}),(0,d.jsx)(f.Button,{variant:"solid","data-hover":!0,children:"Hovered"}),(0,d.jsx)(f.Button,{variant:"solid",disabled:!0,children:"Disabled"}),(0,d.jsx)(f.Button,{variant:"solid",loading:!0,children:"Loading"}),(0,d.jsx)(f.Button,{variant:"solid",loadingSkeleton:!0,children:"Loading Skeleton"})]}),(0,d.jsxs)(m.Sample,{label:"variant: solid_danger",children:[(0,d.jsx)(f.Button,{variant:"solid_danger",children:"Default"}),(0,d.jsx)(f.Button,{variant:"solid_danger","data-hover":!0,children:"Hovered"}),(0,d.jsx)(f.Button,{variant:"solid_danger",disabled:!0,children:"Disabled"}),(0,d.jsx)(f.Button,{variant:"solid_danger",loading:!0,children:"Loading"}),(0,d.jsx)(f.Button,{variant:"solid_danger",loadingSkeleton:!0,children:"Loading Skeleton"})]}),(0,d.jsxs)(m.Sample,{label:"variant: outline",children:[(0,d.jsx)(f.Button,{variant:"outline",children:"Default"}),(0,d.jsx)(f.Button,{variant:"outline","data-hover":!0,children:"Hovered"}),(0,d.jsx)(f.Button,{variant:"outline",disabled:!0,children:"Disabled"}),(0,d.jsx)(f.Button,{variant:"outline",loading:!0,children:"Loading"}),(0,d.jsx)(f.Button,{variant:"outline",loadingSkeleton:!0,children:"Loading Skeleton"})]}),(0,d.jsxs)(m.Sample,{label:"variant: outline_danger",children:[(0,d.jsx)(f.Button,{variant:"outline_danger",children:"Default"}),(0,d.jsx)(f.Button,{variant:"outline_danger","data-hover":!0,children:"Hovered"}),(0,d.jsx)(f.Button,{variant:"outline_danger",disabled:!0,children:"Disabled"}),(0,d.jsx)(f.Button,{variant:"outline_danger",loading:!0,children:"Loading"}),(0,d.jsx)(f.Button,{variant:"outline_danger",loadingSkeleton:!0,children:"Loading Skeleton"})]}),(0,d.jsxs)(m.Sample,{label:"variant: link",children:[(0,d.jsx)(f.Button,{variant:"link",children:"Default"}),(0,d.jsx)(f.Button,{variant:"link","data-hover":!0,children:"Hovered"}),(0,d.jsx)(f.Button,{variant:"link",disabled:!0,children:"Disabled"}),(0,d.jsx)(f.Button,{variant:"link",loadingSkeleton:!0,children:"Disabled"})]}),(0,d.jsxs)(m.Sample,{label:"variant: dropdown",children:[(0,d.jsxs)(i.PopoverRoot,{children:[(0,d.jsx)(i.PopoverTrigger,{children:(0,d.jsx)(f.Button,{variant:"dropdown",children:"Default"})}),(0,d.jsx)(i.PopoverContent,{children:(0,d.jsx)(i.PopoverBody,{children:"Popover content"})})]}),(0,d.jsxs)(i.PopoverRoot,{children:[(0,d.jsx)(i.PopoverTrigger,{children:(0,d.jsx)(f.Button,{variant:"dropdown","data-hover":!0,children:"Hovered"})}),(0,d.jsx)(i.PopoverContent,{children:(0,d.jsx)(i.PopoverBody,{children:"Popover content"})})]}),(0,d.jsxs)(i.PopoverRoot,{children:[(0,d.jsx)(i.PopoverTrigger,{children:(0,d.jsx)(f.Button,{variant:"dropdown",expanded:!0,children:"Expended"})}),(0,d.jsx)(i.PopoverContent,{children:(0,d.jsx)(i.PopoverBody,{children:"Popover content"})})]}),(0,d.jsxs)(i.PopoverRoot,{children:[(0,d.jsx)(i.PopoverTrigger,{children:(0,d.jsx)(f.Button,{variant:"dropdown",selected:!0,children:"Selected"})}),(0,d.jsx)(i.PopoverContent,{children:(0,d.jsxs)(i.PopoverBody,{display:"flex",flexDirection:"column",gap:2,children:[(0,d.jsx)(g.Checkbox,{defaultChecked:!0,children:"First option"}),(0,d.jsx)(g.Checkbox,{children:"Second option"})]})})]}),(0,d.jsx)(f.Button,{variant:"dropdown",disabled:!0,children:"Disabled"}),(0,d.jsx)(f.Button,{variant:"dropdown",loading:!0,children:"Loading"}),(0,d.jsx)(f.Button,{variant:"dropdown",loadingSkeleton:!0,children:"Loading Skeleton"}),(0,d.jsxs)(i.PopoverRoot,{children:[(0,d.jsx)(j.Tooltip,{content:"Tooltip content",children:(0,d.jsx)("div",{children:(0,d.jsx)(i.PopoverTrigger,{children:(0,d.jsxs)(f.Button,{variant:"dropdown",size:"md",px:2,children:[(0,d.jsx)(l.default,{name:"explorer",boxSize:5}),"With tooltip"]})})})}),(0,d.jsx)(i.PopoverContent,{children:(0,d.jsx)(i.PopoverBody,{children:"Popover content"})})]})]}),(0,d.jsxs)(m.Sample,{label:"variant: header",children:[(0,d.jsx)(f.Button,{variant:"header",children:"Default"}),(0,d.jsx)(f.Button,{variant:"header","data-hover":!0,children:"Hovered"}),(0,d.jsx)(f.Button,{variant:"header",loading:!0,loadingText:"Loading",children:"Loading"}),(0,d.jsxs)(i.PopoverRoot,{children:[(0,d.jsx)(i.PopoverTrigger,{children:(0,d.jsx)(f.Button,{variant:"header",selected:!0,children:"Selected"})}),(0,d.jsx)(i.PopoverContent,{children:(0,d.jsx)(i.PopoverBody,{children:"User profile menu content"})})]}),(0,d.jsxs)(i.PopoverRoot,{children:[(0,d.jsx)(i.PopoverTrigger,{children:(0,d.jsx)(f.Button,{variant:"header",selected:!0,expanded:!0,children:"Selected & expended"})}),(0,d.jsx)(i.PopoverContent,{children:(0,d.jsx)(i.PopoverBody,{children:"User profile menu content"})})]}),(0,d.jsxs)(i.PopoverRoot,{children:[(0,d.jsx)(i.PopoverTrigger,{children:(0,d.jsx)(f.Button,{variant:"header",selected:!0,highlighted:!0,children:"Selected & highlighted"})}),(0,d.jsx)(i.PopoverContent,{children:(0,d.jsx)(i.PopoverBody,{children:"User profile menu content"})})]})]}),(0,d.jsxs)(m.Sample,{label:"variant: hero",p:6,background:k.BACKGROUND_DEFAULT,children:[(0,d.jsx)(f.Button,{variant:"hero",children:"Default"}),(0,d.jsx)(f.Button,{variant:"hero","data-hover":!0,children:"Hovered"}),(0,d.jsx)(f.Button,{variant:"hero",loading:!0,loadingText:"Loading",children:"Loading"}),(0,d.jsxs)(i.PopoverRoot,{children:[(0,d.jsx)(i.PopoverTrigger,{children:(0,d.jsx)(f.Button,{variant:"hero",selected:!0,children:"Selected"})}),(0,d.jsx)(i.PopoverContent,{children:(0,d.jsx)(i.PopoverBody,{children:"User profile menu content"})})]}),(0,d.jsxs)(i.PopoverRoot,{children:[(0,d.jsx)(i.PopoverTrigger,{children:(0,d.jsx)(f.Button,{variant:"hero",selected:!0,expanded:!0,children:"Selected & expended"})}),(0,d.jsx)(i.PopoverContent,{children:(0,d.jsx)(i.PopoverBody,{children:"User profile menu content"})})]})]}),(0,d.jsxs)(m.Sample,{label:"variant: subtle",children:[(0,d.jsx)(f.Button,{variant:"subtle",size:"xs",children:"Default: Now+1h"}),(0,d.jsx)(f.Button,{variant:"subtle",size:"xs","data-hover":!0,children:"Hovered: Now+1h"}),(0,d.jsx)(f.Button,{variant:"subtle",size:"xs",disabled:!0,children:"Disabled: Now+1h"}),(0,d.jsx)(f.Button,{variant:"subtle",size:"xs",loadingSkeleton:!0,children:"Loading Skeleton"})]}),(0,d.jsxs)(m.Sample,{label:"variant: plain",children:[(0,d.jsx)(f.Button,{variant:"plain",children:"Default"}),(0,d.jsx)(f.Button,{variant:"plain","data-hover":!0,children:"Hovered"}),(0,d.jsx)(f.Button,{variant:"plain",disabled:!0,children:"Disabled"}),(0,d.jsx)(f.Button,{variant:"plain",loadingSkeleton:!0,children:"Loading Skeleton"})]})]})]}),(0,d.jsxs)(m.Section,{children:[(0,d.jsx)(m.SectionHeader,{children:"Loading"}),(0,d.jsxs)(m.SamplesStack,{children:[(0,d.jsxs)(m.Sample,{label:"loading: true, loadingText: 'Loading'",children:[(0,d.jsx)(f.Button,{loading:!0,loadingText:"Loading",children:"Content"}),(0,d.jsx)(f.Button,{loading:!0,loadingText:"Loading",size:"sm",children:"Content"}),(0,d.jsx)(f.Button,{loading:!0,loadingText:"Loading",size:"xs",children:"Content"}),(0,d.jsx)(f.Button,{loading:!0,loadingText:"Loading",size:"2xs",children:"Content"})]}),(0,d.jsx)(m.Sample,{label:"loading: true, loadingText: undefined",children:(0,d.jsx)(f.Button,{loading:!0,children:"Content"})}),(0,d.jsxs)(m.Sample,{label:"loadingSkeleton: true",children:[(0,d.jsx)(f.Button,{loadingSkeleton:!0,children:"Content"}),(0,d.jsx)(f.Button,{loadingSkeleton:!0,variant:"outline",children:"Content"}),(0,d.jsx)(f.Button,{loadingSkeleton:!0,variant:"dropdown",children:"Content"}),(0,d.jsx)(f.Button,{loadingSkeleton:!0,variant:"subtle",children:"Content"})]})]})]}),(0,d.jsxs)(m.Section,{children:[(0,d.jsx)(m.SectionHeader,{children:"Examples"}),(0,d.jsx)(m.SectionSubHeader,{children:"As Link"}),(0,d.jsx)(m.SamplesStack,{children:(0,d.jsx)(m.Sample,{children:(0,d.jsx)(h.Link,{href:"/",asChild:!0,children:(0,d.jsx)(f.Button,{children:"I am link"})})})}),(0,d.jsx)(m.SectionSubHeader,{children:"Button Group Radio"}),(0,d.jsx)(m.SamplesStack,{children:(0,d.jsxs)(m.Sample,{children:[(0,d.jsxs)(f.ButtonGroupRadio,{children:[(0,d.jsx)(f.Button,{value:"option-1",children:"Option 1"}),(0,d.jsx)(f.Button,{value:"option-2",children:"Option 2"}),(0,d.jsx)(f.Button,{value:"option-3",children:"Option 3"})]}),(0,d.jsxs)(f.ButtonGroupRadio,{loading:!0,children:[(0,d.jsx)(f.Button,{value:"option-1",children:"Option 1"}),(0,d.jsx)(f.Button,{value:"option-2",children:"Option 2"}),(0,d.jsx)(f.Button,{value:"option-3",children:"Option 3"})]})]})})]})]}));a.s(["default",0,o]),c()}catch(a){c(a)}},!1),527555,a=>a.a(async(b,c)=>{try{var d=a.i(508171),e=a.i(127669),f=a.i(772402),g=a.i(851400),h=b([f,g]);[f,g]=h.then?(await h)():h;let i=e.default.memo(()=>(0,d.jsxs)(g.Container,{value:"checkbox",children:[(0,d.jsxs)(g.Section,{children:[(0,d.jsx)(g.SectionHeader,{children:"Variant"}),(0,d.jsx)(g.SamplesStack,{children:(0,d.jsxs)(g.Sample,{label:"variant: subtle",children:[(0,d.jsx)(f.Checkbox,{children:"Option 1"}),(0,d.jsx)(f.Checkbox,{checked:!0,children:"Option 2"})]})})]}),(0,d.jsxs)(g.Section,{children:[(0,d.jsx)(g.SectionHeader,{children:"Size"}),(0,d.jsx)(g.SamplesStack,{children:(0,d.jsxs)(g.Sample,{label:"size: md",children:[(0,d.jsx)(f.Checkbox,{size:"md",children:"Option 1"}),(0,d.jsx)(f.Checkbox,{size:"md",children:"Option 2"})]})})]}),(0,d.jsxs)(g.Section,{children:[(0,d.jsx)(g.SectionHeader,{children:"Disabled"}),(0,d.jsx)(g.SamplesStack,{children:(0,d.jsxs)(g.Sample,{label:"disabled: true",children:[(0,d.jsx)(f.Checkbox,{disabled:!0,children:"Option 1"}),(0,d.jsx)(f.Checkbox,{checked:!0,disabled:!0,children:"Option 2"})]})})]}),(0,d.jsxs)(g.Section,{children:[(0,d.jsx)(g.SectionHeader,{children:"Read-only"}),(0,d.jsx)(g.SamplesStack,{children:(0,d.jsxs)(g.Sample,{label:"readOnly: true",children:[(0,d.jsx)(f.Checkbox,{readOnly:!0,children:"Option 1"}),(0,d.jsx)(f.Checkbox,{checked:!0,readOnly:!0,children:"Option 2"})]})})]}),(0,d.jsxs)(g.Section,{children:[(0,d.jsx)(g.SectionHeader,{children:"Orientation"}),(0,d.jsxs)(g.SamplesStack,{children:[(0,d.jsx)(g.Sample,{label:"orientation: vertical",children:(0,d.jsxs)(f.CheckboxGroup,{orientation:"vertical",children:[(0,d.jsx)(f.Checkbox,{value:"1",children:"Option 1"}),(0,d.jsx)(f.Checkbox,{value:"2",children:"Option 2"})]})}),(0,d.jsx)(g.Sample,{label:"orientation: horizontal",children:(0,d.jsxs)(f.CheckboxGroup,{orientation:"horizontal",children:[(0,d.jsx)(f.Checkbox,{value:"1",children:"Option 1"}),(0,d.jsx)(f.Checkbox,{value:"2",children:"Option 2"})]})})]})]})]}));a.s(["default",0,i]),c()}catch(a){c(a)}},!1),27923,a=>a.a(async(b,c)=>{try{var d=a.i(508171),e=a.i(127669),f=a.i(823186),g=a.i(851400),h=b([f,g]);[f,g]=h.then?(await h)():h;let i=e.default.memo(()=>(0,d.jsxs)(g.Container,{value:"clipboard",children:[(0,d.jsxs)(g.Section,{children:[(0,d.jsx)(g.SectionHeader,{children:"Type"}),(0,d.jsxs)(g.SamplesStack,{children:[(0,d.jsx)(g.Sample,{label:"type: text",children:(0,d.jsx)(f.default,{text:"Hello, world!",type:"text"})}),(0,d.jsx)(g.Sample,{label:"type: link",children:(0,d.jsx)(f.default,{text:"Hello, world!",type:"link"})}),(0,d.jsx)(g.Sample,{label:"type: share",children:(0,d.jsx)(f.default,{text:"Hello, world!",type:"share"})})]})]}),(0,d.jsxs)(g.Section,{children:[(0,d.jsx)(g.SectionHeader,{children:"Loading"}),(0,d.jsx)(g.SamplesStack,{children:(0,d.jsx)(g.Sample,{label:"loading: true",children:(0,d.jsx)(f.default,{text:"Hello, world!",type:"text",isLoading:!0})})})]})]}));a.s(["default",0,i]),c()}catch(a){c(a)}},!1),505807,a=>a.a(async(b,c)=>{try{var d=a.i(508171),e=a.i(127669),f=a.i(242316),g=a.i(851400),h=b([f,g]);[f,g]=h.then?(await h)():h;let i=e.default.memo(()=>(0,d.jsxs)(g.Container,{value:"close-button",children:[(0,d.jsxs)(g.Section,{children:[(0,d.jsx)(g.SectionHeader,{children:"Variants"}),(0,d.jsx)(g.SamplesStack,{children:(0,d.jsxs)(g.Sample,{label:"variant: default",children:[(0,d.jsx)(f.CloseButton,{}),(0,d.jsx)(f.CloseButton,{"data-hover":!0}),(0,d.jsx)(f.CloseButton,{disabled:!0})]})})]}),(0,d.jsxs)(g.Section,{children:[(0,d.jsx)(g.SectionHeader,{children:"Size"}),(0,d.jsx)(g.SamplesStack,{children:(0,d.jsx)(g.Sample,{label:"size: md",children:(0,d.jsx)(f.CloseButton,{size:"md",outline:"1px dashed lightpink"})})})]})]}));a.s(["default",0,i]),c()}catch(a){c(a)}},!1),167791,a=>{"use strict";a.s(["TEXT",0,"Lorem ipsum dolor sit amet, consectetur adipiscing elit. Sed do eiusmod tempor incididunt ut labore et dolore magna aliqua. Ut enim ad minim veniam, quis nostrud exercitation ullamco laboris nisi ut aliquip ex ea commodo consequat. Duis aute irure dolor in reprehenderit in voluptate velit esse cillum dolore eu fugiat nulla pariatur. Excepteur sint occaecat cupidatat non proident, sunt in culpa qui officia deserunt mollit anim id est laborum."])},831056,a=>a.a(async(b,c)=>{try{var d=a.i(508171),e=a.i(811280),f=a.i(127669),g=a.i(844575),h=a.i(851400),i=a.i(167791),j=b([e,g,h]);[e,g,h]=j.then?(await j)():j;let k=f.default.memo(()=>(0,d.jsxs)(h.Container,{value:"collapsible",children:[(0,d.jsxs)(h.Section,{children:[(0,d.jsx)(h.SectionHeader,{children:"Variant"}),(0,d.jsx)(h.SamplesStack,{children:(0,d.jsx)(h.Sample,{label:"variant: default",flexDirection:"column",alignItems:"flex-start",children:(0,d.jsx)(g.CollapsibleDetails,{id:"CutLink_1",children:(0,d.jsx)(e.Box,{maxW:"500px",children:i.TEXT})})})})]}),(0,d.jsxs)(h.Section,{children:[(0,d.jsx)(h.SectionHeader,{children:"Loading"}),(0,d.jsx)(h.SamplesStack,{children:(0,d.jsx)(h.Sample,{label:"loading: true",flexDirection:"column",alignItems:"flex-start",children:(0,d.jsx)(g.CollapsibleDetails,{id:"CutLink_2",loading:!0,children:(0,d.jsx)(e.Box,{maxW:"500px",children:i.TEXT})})})})]}),(0,d.jsxs)(h.Section,{children:[(0,d.jsx)(h.SectionHeader,{children:"Examples"}),(0,d.jsx)(h.SectionSubHeader,{children:"Cut link"}),(0,d.jsxs)(h.SamplesStack,{children:[(0,d.jsx)(h.Sample,{label:"Show details",flexDirection:"column",alignItems:"flex-start",children:(0,d.jsx)(g.CollapsibleDetails,{id:"CutLink_3",children:(0,d.jsx)(e.Box,{maxW:"500px",children:i.TEXT})})}),(0,d.jsx)(h.Sample,{label:"Expand all list",flexDirection:"row",alignItems:"flex-start",flexWrap:"nowrap",children:(0,d.jsx)(g.CollapsibleList,{items:["foo","bar","baz","qux","quux","corgi","gaunt","garply","waldo","fred","pugh","fuzzy","thud"],renderItem:a=>(0,d.jsx)(e.Text,{children:a})})})]})]})]}));a.s(["default",0,k]),c()}catch(a){c(a)}},!1),152845,a=>a.a(async(b,c)=>{try{var d=a.i(508171),e=a.i(127669),f=a.i(659952),g=a.i(851400),h=b([f,g]);[f,g]=h.then?(await h)():h;let i=e.default.memo(()=>(0,d.jsx)(g.Container,{value:"content-loader",children:(0,d.jsxs)(g.Section,{children:[(0,d.jsx)(g.SectionHeader,{children:"Variants"}),(0,d.jsx)(g.SamplesStack,{children:(0,d.jsx)(g.Sample,{label:"default",children:(0,d.jsx)(f.ContentLoader,{})})})]})}));a.s(["default",0,i]),c()}catch(a){c(a)}},!1),600459,a=>a.a(async(b,c)=>{try{var d=a.i(508171),e=a.i(719855),f=a.i(127669),g=a.i(718225),h=a.i(774047),i=a.i(851400),j=a.i(167791),k=b([e,g,h,i]);[e,g,h,i]=k.then?(await k)():k;let l=f.default.memo(()=>(0,d.jsx)(i.Container,{value:"dialog",children:(0,d.jsxs)(i.Section,{children:[(0,d.jsx)(i.SectionHeader,{children:"Size"}),(0,d.jsxs)(i.SamplesStack,{children:[(0,d.jsx)(i.Sample,{label:"size: sm",children:(0,d.jsxs)(h.DialogRoot,{size:"sm",children:[(0,d.jsx)(h.DialogTrigger,{asChild:!0,children:(0,d.jsx)(g.Button,{size:"sm",children:"Open Dialog"})}),(0,d.jsxs)(h.DialogContent,{children:[(0,d.jsx)(h.DialogHeader,{children:(0,d.jsx)(h.DialogTitle,{children:"Dialog Title"})}),(0,d.jsx)(h.DialogBody,{children:(0,d.jsx)("p",{children:j.TEXT})}),(0,d.jsxs)(h.DialogFooter,{children:[(0,d.jsx)(g.Button,{children:"Save"}),(0,d.jsx)(h.DialogActionTrigger,{asChild:!0,children:(0,d.jsx)(g.Button,{variant:"link",children:"I'll do it later"})})]})]})]})}),(0,d.jsx)(i.Sample,{label:"size: md",children:(0,d.jsxs)(h.DialogRoot,{size:"md",children:[(0,d.jsx)(h.DialogTrigger,{asChild:!0,children:(0,d.jsx)(g.Button,{size:"sm",children:"Open Dialog"})}),(0,d.jsxs)(h.DialogContent,{children:[(0,d.jsx)(h.DialogHeader,{onBackToClick:e.noop,children:(0,d.jsx)(h.DialogTitle,{children:"Dialog Title"})}),(0,d.jsx)(h.DialogBody,{children:(0,d.jsx)("p",{children:j.TEXT})}),(0,d.jsxs)(h.DialogFooter,{children:[(0,d.jsx)(h.DialogActionTrigger,{asChild:!0,children:(0,d.jsx)(g.Button,{variant:"outline",children:"Cancel"})}),(0,d.jsx)(g.Button,{children:"Save"})]})]})]})}),(0,d.jsx)(i.Sample,{label:"size: full",children:(0,d.jsxs)(h.DialogRoot,{size:"full",children:[(0,d.jsx)(h.DialogTrigger,{asChild:!0,children:(0,d.jsx)(g.Button,{size:"sm",children:"Open Dialog"})}),(0,d.jsxs)(h.DialogContent,{children:[(0,d.jsx)(h.DialogHeader,{children:(0,d.jsx)(h.DialogTitle,{children:"Dialog Title"})}),(0,d.jsx)(h.DialogBody,{children:(0,d.jsx)("p",{children:j.TEXT})}),(0,d.jsxs)(h.DialogFooter,{children:[(0,d.jsx)(h.DialogActionTrigger,{asChild:!0,children:(0,d.jsx)(g.Button,{variant:"outline",children:"Cancel"})}),(0,d.jsx)(g.Button,{children:"Save"})]})]})]})})]})]})}));a.s(["default",0,l]),c()}catch(a){c(a)}},!1),232090,a=>a.a(async(b,c)=>{try{var d=a.i(508171),e=a.i(127669),f=a.i(133729),g=a.i(851400),h=b([f,g]);[f,g]=h.then?(await h)():h;let i=e.default.memo(()=>(0,d.jsx)(g.Container,{value:"empty-state",children:(0,d.jsxs)(g.Section,{children:[(0,d.jsx)(g.SectionHeader,{children:"Type"}),(0,d.jsxs)(g.SamplesStack,{children:[(0,d.jsx)(g.Sample,{label:"type: query",children:(0,d.jsx)(f.EmptyState,{term:"transaction",outline:"1px dashed deepskyblue"})}),(0,d.jsx)(g.Sample,{label:"type: stats",children:(0,d.jsx)(f.EmptyState,{type:"stats",term:"transactions",outline:"1px dashed deepskyblue"})}),(0,d.jsx)(g.Sample,{label:"type: coming_soon",children:(0,d.jsx)(f.EmptyState,{type:"coming_soon",outline:"1px dashed deepskyblue"})})]})]})}));a.s(["default",0,i]),c()}catch(a){c(a)}},!1),867569,a=>a.a(async(b,c)=>{try{var d=a.i(508171),e=a.i(127669),f=a.i(156349),g=a.i(919227),h=a.i(851400),i=b([f,g,h]);[f,g,h]=i.then?(await i)():i;let j=e.default.memo(()=>(0,d.jsx)(h.Container,{value:"field",children:(0,d.jsxs)(h.Section,{children:[(0,d.jsx)(h.SectionHeader,{children:"Size"}),(0,d.jsx)(h.SectionSubHeader,{children:"Default"}),(0,d.jsxs)(h.SamplesStack,{children:[["sm","md","lg"].map(a=>(0,d.jsxs)(h.Sample,{label:`size: ${a}`,w:"100%",alignItems:"flex-start",children:[(0,d.jsx)(f.Field,{label:"Email",required:!0,size:a,helperText:"Helper text",maxWidth:"200px",children:(0,d.jsx)(g.Input,{})}),(0,d.jsx)(f.Field,{label:"Email (disabled)",required:!0,size:a,maxWidth:"200px",children:(0,d.jsx)(g.Input,{disabled:!0,value:"me@example.com"})}),(0,d.jsx)(f.Field,{label:"Email (readOnly)",required:!0,size:a,maxWidth:"200px",children:(0,d.jsx)(g.Input,{readOnly:!0,value:"me@example.com"})}),(0,d.jsx)(f.Field,{label:"Email (invalid)",required:!0,size:a,errorText:"Something went wrong",invalid:!0,maxWidth:"200px",children:(0,d.jsx)(g.Input,{value:"duck"})})]},a)),(0,d.jsxs)(h.Sample,{label:"size: xl",w:"100%",alignItems:"flex-start",children:[(0,d.jsx)(f.Field,{label:"Email",required:!0,floating:!0,size:"lg",helperText:"Helper text",maxWidth:"300px",children:(0,d.jsx)(g.Input,{})}),(0,d.jsx)(f.Field,{label:"Email (disabled)",required:!0,floating:!0,disabled:!0,size:"lg",maxWidth:"300px",children:(0,d.jsx)(g.Input,{value:"me@example.com"})}),(0,d.jsx)(f.Field,{label:"Email (readOnly)",required:!0,floating:!0,readOnly:!0,size:"lg",maxWidth:"300px",children:(0,d.jsx)(g.Input,{value:"me@example.com"})}),(0,d.jsx)(f.Field,{label:"Email (invalid)",required:!0,floating:!0,size:"lg",errorText:"Something went wrong",invalid:!0,maxWidth:"300px",children:(0,d.jsx)(g.Input,{value:"duck"})})]})]}),(0,d.jsx)(h.SectionSubHeader,{children:"On custom background"}),(0,d.jsxs)(h.SamplesStack,{children:[(0,d.jsxs)(h.Sample,{label:"no floating label",p:4,bgColor:{_light:"blackAlpha.200",_dark:"whiteAlpha.200"},alignItems:"flex-start",children:[(0,d.jsx)(f.Field,{label:"Email",required:!0,helperText:"Helper text",maxWidth:"200px",children:(0,d.jsx)(g.Input,{})}),(0,d.jsx)(f.Field,{label:"Email (disabled)",required:!0,disabled:!0,maxWidth:"200px",children:(0,d.jsx)(g.Input,{value:"me@example.com"})}),(0,d.jsx)(f.Field,{label:"Email (readOnly)",required:!0,readOnly:!0,maxWidth:"200px",children:(0,d.jsx)(g.Input,{value:"me@example.com"})}),(0,d.jsx)(f.Field,{label:"Email (invalid)",required:!0,errorText:"Something went wrong",invalid:!0,maxWidth:"200px",children:(0,d.jsx)(g.Input,{value:"duck"})})]}),(0,d.jsxs)(h.Sample,{label:"floating label",p:4,bgColor:{_light:"blackAlpha.200",_dark:"whiteAlpha.200"},alignItems:"flex-start",children:[(0,d.jsx)(f.Field,{label:"Email",required:!0,floating:!0,size:"lg",helperText:"Helper text",maxWidth:"300px",children:(0,d.jsx)(g.Input,{})}),(0,d.jsx)(f.Field,{label:"Email (disabled)",required:!0,disabled:!0,floating:!0,size:"lg",maxWidth:"300px",children:(0,d.jsx)(g.Input,{value:"me@example.com"})}),(0,d.jsx)(f.Field,{label:"Email (readOnly)",required:!0,readOnly:!0,floating:!0,size:"lg",maxWidth:"300px",children:(0,d.jsx)(g.Input,{value:"me@example.com"})}),(0,d.jsx)(f.Field,{label:"Email (invalid)",required:!0,floating:!0,size:"lg",errorText:"Something went wrong",invalid:!0,maxWidth:"300px",children:(0,d.jsx)(g.Input,{value:"duck"})})]})]})]})}));a.s(["default",0,j]),c()}catch(a){c(a)}},!1),100908,a=>a.a(async(b,c)=>{try{var d=a.i(508171),e=a.i(127669),f=a.i(772402),g=a.i(275175),h=a.i(760210),i=a.i(504901),j=a.i(851400),k=b([f,g,h,i,j]);[f,g,h,i,j]=k.then?(await k)():k;let l=e.default.memo(()=>(0,d.jsxs)(j.Container,{value:"icon-button",children:[(0,d.jsxs)(j.Section,{children:[(0,d.jsx)(j.SectionHeader,{children:"Variant"}),(0,d.jsxs)(j.SamplesStack,{children:[(0,d.jsxs)(j.Sample,{label:"variant: icon_secondary",children:[(0,d.jsx)(g.IconButton,{size:"md",variant:"icon_secondary",children:(0,d.jsx)(i.default,{name:"info"})}),(0,d.jsx)(g.IconButton,{size:"md",variant:"icon_secondary","data-hover":!0,children:(0,d.jsx)(i.default,{name:"info"})}),(0,d.jsx)(g.IconButton,{size:"md",variant:"icon_secondary",disabled:!0,children:(0,d.jsx)(i.default,{name:"info"})}),(0,d.jsx)(g.IconButton,{size:"md",variant:"icon_secondary",selected:!0,children:(0,d.jsx)(i.default,{name:"info"})}),(0,d.jsx)(g.IconButton,{size:"md",variant:"icon_secondary",selected:!0,"data-hover":!0,children:(0,d.jsx)(i.default,{name:"info"})}),(0,d.jsx)(g.IconButton,{size:"md",variant:"icon_secondary",selected:!0,disabled:!0,children:(0,d.jsx)(i.default,{name:"info"})})]}),(0,d.jsxs)(j.Sample,{label:"variant: icon_background",children:[(0,d.jsx)(g.IconButton,{size:"md",variant:"icon_background",children:(0,d.jsx)(i.default,{name:"heart_outline"})}),(0,d.jsx)(g.IconButton,{size:"md",variant:"icon_background","data-hover":!0,children:(0,d.jsx)(i.default,{name:"heart_outline"})}),(0,d.jsx)(g.IconButton,{size:"md",variant:"icon_background",disabled:!0,children:(0,d.jsx)(i.default,{name:"heart_outline"})}),(0,d.jsx)(g.IconButton,{size:"md",variant:"icon_background",selected:!0,children:(0,d.jsx)(i.default,{name:"heart_filled"})}),(0,d.jsx)(g.IconButton,{size:"md",variant:"icon_background",selected:!0,"data-hover":!0,children:(0,d.jsx)(i.default,{name:"heart_filled"})}),(0,d.jsx)(g.IconButton,{size:"md",variant:"icon_background",selected:!0,disabled:!0,children:(0,d.jsx)(i.default,{name:"heart_filled"})})]}),(0,d.jsxs)(j.Sample,{label:"variant: dropdown",children:[(0,d.jsxs)(h.PopoverRoot,{children:[(0,d.jsx)(h.PopoverTrigger,{children:(0,d.jsx)(g.IconButton,{size:"md",variant:"dropdown",children:(0,d.jsx)(i.default,{name:"filter"})})}),(0,d.jsx)(h.PopoverContent,{children:(0,d.jsx)(h.PopoverBody,{children:"Popover content"})})]}),(0,d.jsxs)(h.PopoverRoot,{children:[(0,d.jsx)(h.PopoverTrigger,{children:(0,d.jsx)(g.IconButton,{size:"md",variant:"dropdown",expanded:!0,children:(0,d.jsx)(i.default,{name:"filter"})})}),(0,d.jsx)(h.PopoverContent,{children:(0,d.jsx)(h.PopoverBody,{children:"Popover content"})})]}),(0,d.jsxs)(h.PopoverRoot,{children:[(0,d.jsx)(h.PopoverTrigger,{children:(0,d.jsx)(g.IconButton,{size:"md",variant:"dropdown",selected:!0,children:(0,d.jsx)(i.default,{name:"filter"})})}),(0,d.jsx)(h.PopoverContent,{children:(0,d.jsxs)(h.PopoverBody,{display:"flex",flexDirection:"column",gap:2,children:[(0,d.jsx)(f.Checkbox,{defaultChecked:!0,children:"First option"}),(0,d.jsx)(f.Checkbox,{children:"Second option"})]})})]}),(0,d.jsx)(g.IconButton,{size:"md",variant:"dropdown",disabled:!0,children:(0,d.jsx)(i.default,{name:"filter"})}),(0,d.jsx)(g.IconButton,{size:"md",variant:"dropdown",loading:!0,children:(0,d.jsx)(i.default,{name:"filter"})}),(0,d.jsx)(g.IconButton,{size:"md",variant:"dropdown",loadingSkeleton:!0,children:(0,d.jsx)(i.default,{name:"filter"})})]})]})]}),(0,d.jsxs)(j.Section,{children:[(0,d.jsx)(j.SectionHeader,{children:"Size"}),(0,d.jsxs)(j.SamplesStack,{children:[(0,d.jsx)(j.Sample,{label:"size: 2xs",children:(0,d.jsx)(g.IconButton,{size:"2xs",variant:"icon_secondary",outline:"1px dashed lightpink",children:(0,d.jsx)(i.default,{name:"star_outline"})})}),(0,d.jsx)(j.Sample,{label:"size: 2xs_alt",children:(0,d.jsx)(g.IconButton,{size:"2xs_alt",variant:"icon_secondary",outline:"1px dashed lightpink",children:(0,d.jsx)(i.default,{name:"plus"})})}),(0,d.jsx)(j.Sample,{label:"size: md",children:(0,d.jsx)(g.IconButton,{size:"md",variant:"icon_secondary",outline:"1px dashed lightpink",children:(0,d.jsx)(i.default,{name:"star_outline"})})})]})]})]}));a.s(["default",0,l]),c()}catch(a){c(a)}},!1),337892,a=>a.a(async(b,c)=>{try{var d=a.i(508171),e=a.i(127669),f=a.i(156349),g=a.i(919227),h=a.i(945744),i=a.i(490586),j=a.i(504901),k=a.i(851400),l=b([f,g,h,i,j,k]);[f,g,h,i,j,k]=l.then?(await l)():l;let m=e.default.memo(()=>(0,d.jsxs)(k.Container,{value:"input",children:[(0,d.jsxs)(k.Section,{children:[(0,d.jsx)(k.SectionHeader,{children:"Size"}),(0,d.jsxs)(k.SamplesStack,{children:[(0,d.jsx)(k.Sample,{label:"size: sm",children:(0,d.jsx)(g.Input,{type:"text",placeholder:"Name",size:"sm"})}),(0,d.jsx)(k.Sample,{label:"size: md",children:(0,d.jsx)(g.Input,{type:"text",placeholder:"Name",size:"md"})}),(0,d.jsx)(k.Sample,{label:"size: lg",children:(0,d.jsx)(g.Input,{type:"text",placeholder:"Name",size:"lg"})})]})]}),(0,d.jsxs)(k.Section,{children:[(0,d.jsx)(k.SectionHeader,{children:"Variant"}),(0,d.jsx)(k.SamplesStack,{children:(0,d.jsxs)(k.Sample,{label:"variant: outline",maxW:"300px",children:[(0,d.jsx)(g.Input,{type:"text",placeholder:"Name"}),(0,d.jsx)(g.Input,{type:"text",placeholder:"Name (disabled)",disabled:!0}),(0,d.jsx)(g.Input,{type:"text",placeholder:"Name (readOnly)",readOnly:!0}),(0,d.jsx)(g.Input,{type:"text",placeholder:"Name (invalid)","data-invalid":!0}),(0,d.jsx)(g.Input,{type:"text",placeholder:"Name (invalid)","data-invalid":!0,value:"duck"})]})})]}),(0,d.jsxs)(k.Section,{children:[(0,d.jsx)(k.SectionHeader,{children:"Input group"}),(0,d.jsxs)(k.SamplesStack,{children:[(0,d.jsx)(k.Sample,{label:"with end element",children:(0,d.jsx)(f.Field,{label:"Referral code",required:!0,floating:!0,size:"lg",w:"300px",flexShrink:0,children:(0,d.jsx)(h.InputGroup,{endElement:(0,d.jsx)(j.default,{name:"copy",boxSize:5}),endElementProps:{px:3},children:(0,d.jsx)(g.Input,{})})})}),(0,d.jsx)(k.Sample,{label:"with start element",children:(0,d.jsx)(h.InputGroup,{startElement:(0,d.jsx)(j.default,{name:"collection",boxSize:5}),startElementProps:{px:2},children:(0,d.jsx)(g.Input,{placeholder:"Type in something"})})})]})]}),(0,d.jsxs)(k.Section,{children:[(0,d.jsx)(k.SectionHeader,{children:"Examples"}),(0,d.jsx)(k.SectionSubHeader,{children:"Filter input"}),(0,d.jsx)(k.SamplesStack,{children:(0,d.jsxs)(k.Sample,{children:[(0,d.jsx)(i.FilterInput,{placeholder:"Search by method name"}),(0,d.jsx)(i.FilterInput,{placeholder:"Search by method name",loading:!0})]})})]})]}));a.s(["default",0,m]),c()}catch(a){c(a)}},!1),559004,a=>{"use strict";let b={address_hash:"0xb2a90505dc6680a7a695f7975d0d32EeF610f456",circulating_market_cap:"117268489.23970924",decimals:"18",exchange_rate:null,holders_count:"23",name:"hyfi.token",symbol:"HyFi",total_supply:"369000000000000000000000000",type:"ERC-20",icon_url:"http://localhost:3000/token-icon.png",reputation:"ok"};a.s(["tokenInfo",0,{address_hash:"0x55d536e4d6c1993d8ef2e2a4ef77f02088419420",circulating_market_cap:"117629601.61913824",decimals:"18",exchange_rate:"2.0101",holders_count:"46554",name:"ARIANEE",symbol:"ARIA",type:"ERC-20",total_supply:"1235",icon_url:"http://localhost:3000/token-icon.png",reputation:"ok"},"tokenInfoERC20a",0,b,"tokenInfoERC721a",0,{address_hash:"0xDe7cAc71E072FCBd4453E5FB3558C2684d1F88A0",circulating_market_cap:null,decimals:null,exchange_rate:null,holders_count:"7",name:"HyFi Athena",symbol:"HYFI_ATHENA",total_supply:"105",type:"ERC-721",icon_url:null,reputation:"ok"}])},282258,143374,a=>{"use strict";let b={label:"my-private-tag",display_name:"my private tag",address_hash:"0x"},c={label:"some-public-tag",display_name:"some public tag",address_hash:"0x"},d={label:"watchlist-name",display_name:"watchlist name"};a.s(["privateTag",0,b,"publicTag",0,c,"watchlistName",0,d],143374);var e=a.i(559004);let f="0xd789a607CEac2f0E14867de4EB15b15C9FFB5859",g={hash:f,implementations:null,is_contract:!1,is_verified:null,name:null,private_tags:[],watchlist_names:[],public_tags:[],ens_domain_name:null};e.tokenInfo;a.s(["contract",0,{block_number_balance_updated_at:0x1d6247f,coin_balance:"27826501896887194214322205",creation_transaction_hash:"0xf2aff6501b632604c39978b47d309813d8a1bcca721864bbe86abf59704f195e",creator_address_hash:"0x803ad3F50b9e1fF68615e8B053A186e1be288943",creation_status:"success",exchange_rate:"0.04311",has_logs:!0,has_token_transfers:!1,has_tokens:!1,has_validated_blocks:!1,hash:f,implementations:[{address_hash:"0x2F4F4A52295940C576417d29F22EEb92B440eC89",name:"HomeBridge"}],is_contract:!0,is_verified:!0,name:"EternalStorageProxy",private_tags:[c],public_tags:[b],token:null,watchlist_names:[d],watchlist_address_id:42,ens_domain_name:null},"filecoin",0,{block_number_balance_updated_at:0x1d6271c,coin_balance:"22910462800601256910890",creation_transaction_hash:null,creator_address_hash:null,creation_status:null,exchange_rate:"0.00432018",has_logs:!1,has_token_transfers:!1,has_tokens:!1,has_validated_blocks:!0,hash:f,implementations:[],is_contract:!1,is_verified:!1,name:"Kiryl Ihnatsyeu",private_tags:[],public_tags:[],token:null,watchlist_names:[],watchlist_address_id:null,ens_domain_name:null,filecoin:{actor_type:"evm",id:"f02977693",robust:"f410fuiwj6a3yxajbohrl5vu6ns6o2e2jriul52lvzci"}},"hash",0,f,"withEns",0,{hash:f,implementations:null,is_contract:!1,is_verified:null,name:"ArianeeStore",private_tags:[],watchlist_names:[],public_tags:[],ens_domain_name:"kitty.kitty.kitty.cat.eth"},"withName",0,{hash:f,implementations:null,is_contract:!1,is_verified:null,name:"ArianeeStore",private_tags:[],watchlist_names:[],public_tags:[],ens_domain_name:null},"withNameTag",0,{hash:f,implementations:null,is_contract:!1,is_verified:null,name:"ArianeeStore",private_tags:[],watchlist_names:[],public_tags:[],ens_domain_name:"kitty.kitty.kitty.cat.eth",metadata:{reputation:null,tags:[{tagType:"name",name:"Mrs. Duckie",slug:"mrs-duckie",ordinal:0,meta:null}]}},"withoutName",0,g],282258)},450387,a=>{"use strict";a.s(["multiple",0,[{address_hash:"0xA84d24bD8ACE4d349C5f8c5DeeDd8bc071Ce5e2b",name:null},{address_hash:"0xc9e91eDeA9DC16604022e4E5b437Df9c64EdB05A",name:"Diamond"},{address_hash:"0x2041832c62C0F89426b48B5868146C0b1fcd23E7",name:null},{address_hash:"0x5f7DC6ECcF05594429671F83cc0e42EE18bC0974",name:"VariablePriceFacet"},{address_hash:"0x7abC92E242e88e4B0d6c5Beb4Df80e94D2c8A78c",name:null},{address_hash:"0x84178a0c58A860eCCFB7E3aeA64a09543062A356",name:"MultiSaleFacet"},{address_hash:"0x33aD95537e63e9f09d96dE201e10715Ed40D9400",name:"SVGTemplatesFacet"},{address_hash:"0xfd86Aa7f902185a8Df9859c25E4BF52D3DaDd9FA",name:"ERC721AReceiverFacet"},{address_hash:"0x6945a35df18e59Ce09fec4B6cD3C4F9cFE6369de",name:null}]])},305911,a=>{"use strict";a.s(["base1",0,{blob_data:"0x004242004242004242004242004242004242",hash:"0x016316f61a259aa607096440fc3eeb90356e079be01975d2fb18347bd50df33c",kzg_commitment:"0xa95caabd009e189b9f205e0328ff847ad886e4f8e719bd7219875fbb9688fb3fbe7704bb1dfa7e2993a3dea8d0cf767d",kzg_proof:"0x89cf91c4c8be6f2a390d4262425f79dffb74c174fb15a210182184543bf7394e5a7970a774ee8e0dabc315424c22df0f",transaction_hashes:[{block_consensus:!0,transaction_hash:"0x970d8c45c713a50a1fa351b00ca29a8890cac474c59cc8eee4eddec91a1729f0"}]}])},496490,a=>a.a(async(b,c)=>{try{var d=a.i(414628),e=a.i(282258),f=a.i(559004),g=b([d]);[d]=g.then?(await g)():g;let h={base_fee_per_gas:"10000000000",burnt_fees:"5449200000000000",burnt_fees_percentage:20.292245650793845,difficulty:"340282366920938463463374607431768211454",extra_data:"TODO",gas_limit:"12500000",gas_target_percentage:-91.28128,gas_used:"544920",gas_used_percentage:4.35936,hash:"0xccc75136de485434d578b73df66537c06b34c3c9b12d085daf95890c914fc2bc",height:0x1cbff3c,miner:{hash:"0xdAd49e6CbDE849353ab27DeC6319E687BFc91A41",implementations:null,is_contract:!1,is_verified:null,name:"Alex Emelyanov",private_tags:[],public_tags:[],watchlist_names:[],ens_domain_name:null},nonce:"0x0000000000000000",parent_hash:"0x44125f0eb36a9d942e0c23bb4e8117f7ba86a9537a69b59c0025986ed2b7500f",priority_fee:"23211757500000000",rewards:[{reward:"500000000000000000",type:"POA Mania Reward"},{reward:"1026853607510000000",type:"Validator Reward"},{reward:"500000000000000000",type:"Emission Reward"}],size:2448,state_root:"TODO",timestamp:"2022-11-11T11:59:35Z",total_difficulty:"10258276095980170141167591583995189665817672619",transactions_count:5,internal_transactions_count:12,transaction_fees:"26853607500000000",type:"block",uncles_hashes:[]};h.height,f.tokenInfoERC20a,e.withName,e.withoutName,d.ZERO_ADDRESS,e.contract,({...h,zilliqa:{view:1137735,aggregate_quorum_certificate:{signature:"0x82d29e8f06adc890f6574c3d0ae0c811de1db695b05ed2755ef384fe21bc44f6505b99e201f6000a65f38ff6a13e286306d0e380ef1b43a273eb9947b3f11f852e14b93c258c32b516f89696fcb1190b147364b789572ebdf85d79c4cf3cbbbb",view:1137735,signers:[1,2,3,8],nested_quorum_certificates:[{signature:"0xaeb3567577f9db68565c6f97c158b17522620a9684c6f6beaa78920951ad4cae0f287b630bdd034c4a4f89ada42e3dbe012985e976a6f64057d735a4531a26b4e46c182414eabbe625e5b15e6645be5b6522bdec113df408874f6d1e0d894dca",view:1137732,proposed_by_validator_index:1,signers:[3,8]},{signature:"0xaeb3567577f9db68565c6f97c158b17522620a9684c6f6beaa78920951ad4cae0f287b630bdd034c4a4f89ada42e3dbe012985e976a6f64057d735a4531a26b4e46c182414eabbe625e5b15e6645be5b6522bdec113df408874f6d1e0d894dca",view:1137732,proposed_by_validator_index:2,signers:[0,2]}]},quorum_certificate:{signature:"0xaeb3567577f9db68565c6f97c158b17522620a9684c6f6beaa78920951ad4cae0f287b630bdd034c4a4f89ada42e3dbe012985e976a6f64057d735a4531a26b4e46c182414eabbe625e5b15e6645be5b6522bdec113df408874f6d1e0d894dca",view:1137732,signers:[0,2,3,8]}}}).zilliqa,a.s(["base",0,h]),c()}catch(a){c(a)}},!1),815432,a=>{"use strict";var b=a.i(916594);let c={id:"97352314626701792030827861137068748433918254309635329404916858191911576754327",contract_hash:"0x57f1887a8bf19b14fc0df6fd9b2acc9af147ea85",type:b.TokenType.NATIVE_DOMAIN_TOKEN},d={id:"423546333",contract_hash:"0x57f1887a8bf19b14fc0df6fd9b2acc9af147ea86",type:b.TokenType.WRAPPED_DOMAIN_TOKEN};a.s(["ensDomainA",0,{id:"0xb140bf9645e54f02ed3c1bcc225566b515a98d1688f10494a5c3bc5b447936a7",tokens:[c,d],name:"cat.eth",registrant:{hash:"0x114d4603199df73e7d157787f8778e21fcd13066"},resolved_address:{hash:"0xfe6ab8a0dafe7d41adf247c210451c264155c9b0"},owner:{hash:"0x114d4603199df73e7d157787f8778e21fcd13066"},registration_date:"2021-06-27T13:34:44.000Z",expiry_date:"2025-03-01T14:20:24.000Z",other_addresses:{ETH:"fe6ab8a0dafe7d41adf247c210451c264155c9b0",GNO:"DDAfbb505ad214D7b80b1f830fcCc89B60fb7A83",NEAR:"a0b86991c6218b36c1d19d4a2e9eb0ce3606eb48.factory.bridge.near"},protocol:{id:"ens",short_name:"ENS",title:"Ethereum Name Service",description:"The Ethereum Name Service (ENS) is a distributed, open, and extensible naming system based on the Ethereum blockchain.",tld_list:["eth","xyz"],icon_url:"https://i.imgur.com/GOfUwCb.jpeg",docs_url:"https://docs.ens.domains/",deployment_explorer_base_url:"http://localhost:3200/"},resolver_address:{hash:"0xD578780f1dA7404d9CC0eEbC9D684c140CC4b638"},resolved_with_wildcard:!0,stored_offchain:!0,wrapped_owner:{hash:"0xD4416b13d2b3a9aBae7AcD5D6C2BbDBE25686401"}},"ensDomainB",0,{id:"0x632ac7bec8e883416b371b36beaa822f4784208c99d063ee030020e2bd09b885",tokens:[c],name:"kitty.kitty.kitty.cat.eth",resolved_address:void 0,registrant:{hash:"0x114d4603199df73e7d157787f8778e21fcd13066"},owner:{hash:"0x114d4603199df73e7d157787f8778e21fcd13066"},wrapped_owner:void 0,registration_date:"2023-08-13T13:01:12.000Z",expiry_date:void 0,other_addresses:{},protocol:void 0,resolved_with_wildcard:!1,stored_offchain:!1}])},158139,a=>{"use strict";let b={pool_id:"0x06da0fd433c1a5d7a4faa01111c044910a184553",is_contract:!0,chain_id:"1",base_token_address:"0xdac17f958d2ee523a2206206994597c13d831ec7",base_token_symbol:"USDT",base_token_icon_url:"https://localhost:3000/utia.jpg",quote_token_address:"0xc02aaa39b223fe8d0a0e5c4f27ead9083c756cc2",quote_token_symbol:"WETH",quote_token_icon_url:"https://localhost:3000/secondary_utia.jpg",base_token_fully_diluted_valuation_usd:"75486579078",base_token_market_cap_usd:"139312819076.195",quote_token_fully_diluted_valuation_usd:"486579078",quote_token_market_cap_usd:"312819076.195",liquidity:"2099941.2238",dex:{id:"sushiswap",name:"SushiSwap"},fee:"0.03",coin_gecko_terminal_url:"https://www.geckoterminal.com/eth/pools/0x06da0fd433c1a5d7a4faa01111c044910a184553"},c={...b,base_token_icon_url:null,quote_token_icon_url:null};a.s(["base",0,b,"noIcons",0,c])},162626,a=>{"use strict";a.s(["customNameTag",0,{slug:"unicorn-uproar",name:"Unicorn Uproar",tagType:"name",ordinal:777,meta:{tagUrl:"https://example.com",bgColor:"linear-gradient(45deg, deeppink, deepskyblue)",textColor:"#FFFFFF"}},"genericTag",0,{slug:"duck-owner",name:"duck owner 🦆",tagType:"generic",ordinal:55,meta:{bgColor:"rgba(255,243,12,90%)"}},"infoTagWithLink",0,{slug:"goosegang",name:"GooseGanG GooseGanG GooseGanG GooseGanG GooseGanG GooseGanG GooseGanG",tagType:"classifier",ordinal:11,meta:{tagUrl:"https://example.com"}},"nameTag",0,{slug:"quack-quack",name:"Quack quack",tagType:"name",ordinal:99,meta:null},"protocolTag",0,{slug:"aerodrome",name:"Aerodrome",tagType:"protocol",ordinal:0,meta:null},"tagWithTooltip",0,{slug:"goldscan-heroes",name:"GoldScanHeroes",tagType:"classifier",ordinal:42,meta:{tooltipDescription:"The GoldScan team, EVM blockchain aficionados, illuminate Ethereum networks with unparalleled insight and prowess, leading the way in blockchain exploration! 🚀🔎",tooltipIcon:"https://localhost:3100/icon.svg",tooltipTitle:"GoldScan team member",tooltipUrl:"https://scan.giltchain.com",tooltipAttribution:"https://duck.org",tooltipAttributionIcon:"https://localhost:3100/icon_sm.svg"}},"warpcastTag",0,{slug:"warpcast-account",name:"Farcaster",tagType:"protocol",ordinal:0,meta:{bgColor:"#8465CB",tagIcon:"data:image/svg+xml;utf8,%3Csvg%20xmlns%3D%22http%3A%2F%2Fwww.w3.org%2F2000%2Fsvg%22%20xmlns%3Axlink%3D%22http%3A%2F%2Fwww.w3.org%2F1999%2Fxlink%22%20viewBox%3D%220%200%2032%2029%22%3E%3Cpath%20d%3D%22M%205.507%200.072%20L%2026.097%200.072%20L%2026.097%204.167%20L%2031.952%204.167%20L%2030.725%208.263%20L%2029.686%208.263%20L%2029.686%2024.833%20C%2030.207%2024.833%2030.63%2025.249%2030.63%2025.763%20L%2030.63%2026.88%20L%2030.819%2026.88%20C%2031.341%2026.88%2031.764%2027.297%2031.764%2027.811%20L%2031.764%2028.928%20L%2021.185%2028.928%20L%2021.185%2027.811%20C%2021.185%2027.297%2021.608%2026.88%2022.13%2026.88%20L%2022.319%2026.88%20L%2022.319%2025.763%20C%2022.319%2025.316%2022.639%2024.943%2023.065%2024.853%20L%2023.045%2015.71%20C%2022.711%2012.057%2019.596%209.194%2015.802%209.194%20C%2012.008%209.194%208.893%2012.057%208.559%2015.71%20L%208.539%2024.845%20C%209.043%2024.919%209.663%2025.302%209.663%2025.763%20L%209.663%2026.88%20L%209.852%2026.88%20C%2010.373%2026.88%2010.796%2027.297%2010.796%2027.811%20L%2010.796%2028.928%20L%200.218%2028.928%20L%200.218%2027.811%20C%200.218%2027.297%200.641%2026.88%201.162%2026.88%20L%201.351%2026.88%20L%201.351%2025.763%20C%201.351%2025.249%201.774%2024.833%202.296%2024.833%20L%202.296%208.263%20L%201.257%208.263%20L%200.029%204.167%20L%205.507%204.167%20L%205.507%200.072%20Z%22%20fill%3D%22rgb(255%2C%20255%2C%20255)%22%3E%3C%2Fpath%3E%3Cpath%20d%3D%22M%2026.097%200.072%20L%2026.166%200.072%20L%2026.166%200.004%20L%2026.097%200.004%20Z%20M%205.507%200.072%20L%205.507%200.004%20L%205.438%200.004%20L%205.438%200.072%20Z%20M%2026.097%204.167%20L%2026.028%204.167%20L%2026.028%204.235%20L%2026.097%204.235%20Z%20M%2031.952%204.167%20L%2032.019%204.187%20L%2032.045%204.099%20L%2031.952%204.099%20L%2031.952%204.167%20Z%20M%2030.725%208.263%20L%2030.725%208.331%20L%2030.776%208.331%20L%2030.791%208.282%20Z%20M%2029.686%208.263%20L%2029.686%208.195%20L%2029.617%208.195%20L%2029.617%208.263%20Z%20M%2029.686%2024.833%20L%2029.617%2024.833%20L%2029.617%2024.901%20L%2029.686%2024.901%20Z%20M%2030.63%2026.88%20L%2030.561%2026.88%20L%2030.561%2026.948%20L%2030.63%2026.948%20Z%20M%2031.764%2028.928%20L%2031.764%2028.996%20L%2031.832%2028.996%20L%2031.832%2028.928%20Z%20M%2021.185%2028.928%20L%2021.116%2028.928%20L%2021.116%2028.996%20L%2021.185%2028.996%20Z%20M%2022.319%2026.88%20L%2022.319%2026.948%20L%2022.388%2026.948%20L%2022.388%2026.88%20Z%20M%2023.065%2024.853%20L%2023.08%2024.919%20L%2023.134%2024.908%20L%2023.134%2024.853%20Z%20M%2023.045%2015.71%20L%2023.114%2015.71%20L%2023.114%2015.707%20L%2023.113%2015.704%20Z%20M%208.559%2015.71%20L%208.49%2015.704%20L%208.49%2015.707%20L%208.49%2015.71%20Z%20M%208.539%2024.845%20L%208.47%2024.845%20L%208.469%2024.904%20L%208.528%2024.913%20Z%20M%209.663%2026.88%20L%209.594%2026.88%20L%209.594%2026.948%20L%209.663%2026.948%20Z%20M%2010.796%2028.928%20L%2010.796%2028.996%20L%2010.865%2028.996%20L%2010.865%2028.928%20Z%20M%200.218%2028.928%20L%200.149%2028.928%20L%200.149%2028.996%20L%200.218%2028.996%20Z%20M%201.351%2026.88%20L%201.351%2026.948%20L%201.42%2026.948%20L%201.42%2026.88%20Z%20M%202.296%2024.833%20L%202.296%2024.901%20L%202.365%2024.901%20L%202.365%2024.833%20Z%20M%202.296%208.263%20L%202.365%208.263%20L%202.365%208.195%20L%202.296%208.195%20Z%20M%201.257%208.263%20L%201.191%208.282%20L%201.205%208.331%20L%201.257%208.331%20Z%20M%200.029%204.167%20L%200.029%204.1%20L%20-0.063%204.1%20L%20-0.037%204.187%20L%200.029%204.167%20Z%20M%205.507%204.167%20L%205.507%204.235%20L%205.576%204.235%20L%205.576%204.167%20Z%20M%2026.097%200.004%20L%205.507%200.004%20L%205.507%200.139%20L%2026.097%200.139%20Z%20M%2026.166%204.167%20L%2026.166%200.072%20L%2026.028%200.072%20L%2026.028%204.167%20L%2026.166%204.167%20Z%20M%2031.952%204.099%20L%2026.097%204.099%20L%2026.097%204.235%20L%2031.952%204.235%20Z%20M%2030.791%208.282%20L%2032.019%204.187%20L%2031.886%204.148%20L%2030.658%208.244%20Z%20M%2029.686%208.331%20L%2030.725%208.331%20L%2030.725%208.195%20L%2029.686%208.195%20Z%20M%2029.755%2024.833%20L%2029.755%208.263%20L%2029.617%208.263%20L%2029.617%2024.833%20Z%20M%2030.699%2025.763%20C%2030.699%2025.212%2030.245%2024.765%2029.686%2024.765%20L%2029.686%2024.9%20C%2030.169%2024.9%2030.561%2025.287%2030.561%2025.763%20Z%20M%2030.699%2026.88%20L%2030.699%2025.763%20L%2030.561%2025.763%20L%2030.561%2026.88%20Z%20M%2030.819%2026.813%20L%2030.63%2026.813%20L%2030.63%2026.948%20L%2030.819%2026.948%20Z%20M%2031.832%2027.811%20C%2031.832%2027.26%2031.379%2026.813%2030.819%2026.813%20L%2030.819%2026.948%20C%2031.303%2026.948%2031.695%2027.335%2031.695%2027.811%20Z%20M%2031.832%2028.928%20L%2031.832%2027.811%20L%2031.695%2027.811%20L%2031.695%2028.928%20Z%20M%2026.097%2028.996%20L%2031.764%2028.996%20L%2031.764%2028.86%20L%2026.097%2028.86%20Z%20M%2023.074%2028.996%20L%2026.097%2028.996%20L%2026.097%2028.86%20L%2023.074%2028.86%20Z%20M%2021.185%2028.996%20L%2023.074%2028.996%20L%2023.074%2028.86%20L%2021.185%2028.86%20Z%20M%2021.116%2027.811%20L%2021.116%2028.928%20L%2021.254%2028.928%20L%2021.254%2027.811%20Z%20M%2022.13%2026.813%20C%2021.57%2026.813%2021.116%2027.26%2021.116%2027.811%20L%2021.254%2027.811%20C%2021.254%2027.335%2021.646%2026.948%2022.13%2026.948%20Z%20M%2022.319%2026.813%20L%2022.13%2026.813%20L%2022.13%2026.948%20L%2022.319%2026.948%20Z%20M%2022.25%2025.763%20L%2022.25%2026.88%20L%2022.388%2026.88%20L%2022.388%2025.763%20Z%20M%2023.051%2024.787%20C%2022.593%2024.883%2022.25%2025.284%2022.25%2025.763%20L%2022.388%2025.763%20C%2022.388%2025.349%2022.684%2025.003%2023.08%2024.919%20Z%20M%2022.976%2015.71%20L%2022.996%2024.853%20L%2023.134%2024.853%20L%2023.114%2015.71%20Z%20M%2015.802%209.262%20C%2019.559%209.262%2022.645%2012.098%2022.976%2015.716%20L%2023.113%2015.704%20C%2022.776%2012.016%2019.632%209.126%2015.802%209.126%20Z%20M%208.628%2015.716%20C%208.959%2012.098%2012.044%209.262%2015.802%209.262%20L%2015.802%209.126%20C%2011.972%209.126%208.828%2012.016%208.49%2015.704%20Z%20M%208.608%2024.845%20L%208.628%2015.71%20L%208.49%2015.71%20L%208.47%2024.845%20Z%20M%209.732%2025.763%20C%209.732%2025.502%209.557%2025.273%209.331%2025.105%20C%209.104%2024.935%208.812%2024.817%208.549%2024.778%20L%208.528%2024.912%20C%208.769%2024.948%209.039%2025.057%209.248%2025.213%20C%209.459%2025.37%209.594%2025.563%209.594%2025.763%20Z%20M%209.732%2026.88%20L%209.732%2025.763%20L%209.594%2025.763%20L%209.594%2026.88%20Z%20M%209.852%2026.813%20L%209.663%2026.813%20L%209.663%2026.948%20L%209.852%2026.948%20Z%20M%2010.865%2027.811%20C%2010.865%2027.26%2010.411%2026.813%209.852%2026.813%20L%209.852%2026.948%20C%2010.335%2026.948%2010.727%2027.335%2010.727%2027.811%20Z%20M%2010.865%2028.928%20L%2010.865%2027.811%20L%2010.727%2027.811%20L%2010.727%2028.928%20Z%20M%208.529%2028.996%20L%2010.796%2028.996%20L%2010.796%2028.86%20L%208.529%2028.86%20Z%20M%208.372%2028.996%20L%208.529%2028.996%20L%208.529%2028.86%20L%208.372%2028.86%20Z%20M%205.507%2028.996%20L%208.372%2028.996%20L%208.372%2028.86%20L%205.507%2028.86%20Z%20M%200.218%2028.996%20L%205.507%2028.996%20L%205.507%2028.86%20L%200.218%2028.86%20Z%20M%200.149%2027.811%20L%200.149%2028.928%20L%200.287%2028.928%20L%200.287%2027.811%20Z%20M%201.162%2026.813%20C%200.603%2026.813%200.149%2027.26%200.149%2027.811%20L%200.287%2027.811%20C%200.287%2027.335%200.679%2026.948%201.162%2026.948%20Z%20M%201.351%2026.813%20L%201.162%2026.813%20L%201.162%2026.948%20L%201.351%2026.948%20Z%20M%201.282%2025.763%20L%201.282%2026.88%20L%201.42%2026.88%20L%201.42%2025.763%20Z%20M%202.296%2024.765%20C%201.736%2024.765%201.282%2025.212%201.282%2025.763%20L%201.42%2025.763%20C%201.42%2025.287%201.812%2024.9%202.296%2024.9%20Z%20M%202.227%208.263%20L%202.227%2024.833%20L%202.365%2024.833%20L%202.365%208.263%20Z%20M%201.257%208.331%20L%202.296%208.331%20L%202.296%208.195%20L%201.257%208.195%20Z%20M%20-0.037%204.187%20L%201.191%208.282%20L%201.323%208.244%20L%200.095%204.148%20Z%20M%205.507%204.099%20L%200.029%204.099%20L%200.029%204.235%20L%205.507%204.235%20L%205.507%204.099%20Z%20M%205.438%200.072%20L%205.438%204.167%20L%205.576%204.167%20L%205.576%200.072%20Z%22%20fill%3D%22rgb(255%2C255%2C255)%22%3E%3C%2Fpath%3E%3C%2Fsvg%3E",tagUrl:"https://warpcast.com/mbj357",textColor:"#FFFFFF",tooltipDescription:"This address is linked to a Farcaster account",warpcastHandle:"duckYduck"}}])},491948,a=>{"use strict";var b=a.i(282258),c=a.i(143374),d=a.i(162626);a.i(559004).tokenInfoERC721a,b.withName;let e={from:{hash:"0x0000000000000000000000000000000000000000",implementations:null,is_contract:!1,is_verified:!1,name:null,private_tags:[],public_tags:[],watchlist_names:[],ens_domain_name:null},to:{hash:"0xBb36c792B9B45Aaf8b848A1392B0d6559202729E",implementations:null,is_contract:!1,is_verified:!1,name:null,private_tags:[],public_tags:[],watchlist_names:[],ens_domain_name:"kitty.kitty.cat.eth"},token:{address_hash:"0xF56b7693E4212C584de4a83117f805B8E89224CB",circulating_market_cap:null,decimals:null,exchange_rate:null,holders_count:"1",name:null,symbol:"MY_SYMBOL_IS_VERY_LONG",type:"ERC-1155",total_supply:"0",icon_url:null,reputation:"ok"},total:{token_id:"123",value:"42",decimals:null,token_instance:null},transaction_hash:"0x05d6589367633c032d757a69c5fb16c0e33e3994b0d9d1483f82aeee1f05d746",type:"token_minting",timestamp:"2022-10-10T14:34:30.000000Z",block_number:"12345",block_hash:"1",log_index:"1"},f={...e,token:{...e.token,name:"SastanaNFT",symbol:"ipfs://QmUpFUfVKDCWeZQk5pvDFUxnpQP9N6eLSHhNUy49T1JVtY"},total:{token_id:"12345678",value:"100000000000000000000",decimals:null,token_instance:null}},g={...e,token:{...e.token,name:"SastanaNFT",symbol:"ipfs://QmUpFUfVKDCWeZQk5pvDFUxnpQP9N6eLSHhNUy49T1JVtY"},total:{token_id:"483200961027732618117991942553110860267520",value:"200000000000000000000",decimals:null,token_instance:null}},h={...e,token:{...e.token,name:"SastanaNFT",symbol:"ipfs://QmUpFUfVKDCWeZQk5pvDFUxnpQP9N6eLSHhNUy49T1JVtY"},total:{token_id:"456",value:"42",decimals:null,token_instance:null}},i={from:{hash:"0x0000000000000000000000000000000000000000",implementations:null,is_contract:!1,is_verified:!1,name:null,private_tags:[],public_tags:[],watchlist_names:[],ens_domain_name:null},to:{hash:"0xBb36c792B9B45Aaf8b848A1392B0d6559202729E",implementations:null,is_contract:!1,is_verified:!1,name:null,private_tags:[],public_tags:[],watchlist_names:[],ens_domain_name:"kitty.kitty.cat.eth"},token:{address_hash:"0xF56b7693E4212C584de4a83117f805B8E89224CB",circulating_market_cap:null,decimals:null,exchange_rate:null,holders_count:"1",name:null,symbol:"MY_SYMBOL_IS_VERY_LONG",type:"ERC-404",total_supply:"0",icon_url:null,reputation:"ok"},total:{value:"42000000000000000000000000",decimals:"18",token_id:null,token_instance:null},transaction_hash:"0x05d6589367633c032d757a69c5fb16c0e33e3994b0d9d1483f82aeee1f05d746",type:"token_transfer",method:"swap",timestamp:"2022-10-10T14:34:30.000000Z",block_number:"12345",block_hash:"1",log_index:"1"},j={...i,token:{...i.token,name:"SastanaNFT",symbol:"ipfs://QmUpFUfVKDCWeZQk5pvDFUxnpQP9N6eLSHhNUy49T1JVtY"},total:{token_id:"4625304364899952",token_instance:null}},k={base_fee_per_gas:"10000000000",block_number:0x1c3d6e6,confirmation_duration:[0,6364],confirmations:508299,created_contract:null,decoded_input:{method_call:"CreditSpended(uint256 _type, uint256 _quantity)",method_id:"58cdf94a",parameters:[{name:"_type",type:"uint256",value:"3"},{name:"_quantity",type:"uint256",value:"1"}]},exchange_rate:"0.00254428",historic_exchange_rate:"0.00254428",fee:{type:"actual",value:"7143168000000000"},from:{hash:"0x047A81aFB05D9B1f8844bf60fcA05DCCFbC584B9",implementations:null,is_contract:!1,name:null,is_verified:null,private_tags:[],public_tags:[c.publicTag],watchlist_names:[],ens_domain_name:"kitty.kitty.cat.eth"},gas_limit:"800000",gas_price:"48000000000",gas_used:"148816",hash:"0x62d597ebcf3e8d60096dd0363bc2f0f5e2df27ba1dacd696c51aa7c9409f3193",max_fee_per_gas:"40190625000",max_priority_fee_per_gas:"28190625000",method:"updateSmartAsset",nonce:27831,position:7,priority_fee:"1299672384375000",raw_input:"0xfa4b78b90000000000000000000000000000000000000000000000000000000005001bcfe835d1028984e9e6e7d016b77164eacbcc6cc061e9333c0b37982b504f7ea791000000000000000000000000a79b29ad7e0196c95b87f4663ded82fbf2e3add8",result:"success",revert_reason:null,status:"ok",timestamp:"2022-10-10T14:34:30.000000Z",to:{hash:b.hash,implementations:null,is_contract:!1,is_verified:!0,name:null,private_tags:[c.privateTag],public_tags:[],watchlist_names:[c.watchlistName],ens_domain_name:null},token_transfers:[],token_transfers_overflow:!1,transaction_burnt_fee:"461030000000000",transaction_tag:null,transaction_types:["contract_call"],type:2,value:"42000000000000000000",actions:[],has_error_in_internal_transactions:!1};k.from,k.to,k.to,d.protocolTag,b.hash,c.privateTag,c.watchlistName,b.hash,k.from,b.hash,k.from,b.hash,b.withName;({...k,to:b.withEns});b.withNameTag,b.contract,b.hash,b.hash,b.hash,b.hash,a.s(["base",0,k],491948)},974668,a=>a.a(async(b,c)=>{try{var d=a.i(508171),e=a.i(811280),f=a.i(127669),g=a.i(282258),h=a.i(450387),i=a.i(305911),j=a.i(496490),k=a.i(815432),l=a.i(158139),m=a.i(491948),n=a.i(961745),o=a.i(832978),p=a.i(650984),q=a.i(294309),r=a.i(629981),s=a.i(131100),t=a.i(774823),u=a.i(815285),v=a.i(383736),w=a.i(851400),x=b([e,j,n,o,p,q,r,s,t,u,v,w]);[e,j,n,o,p,q,r,s,t,u,v,w]=x.then?(await x)():x;let y={address_hash:"0xdAC17F958D2ee523a2206206994597C13D831ec7",circulating_market_cap:"139446916652.6728",decimals:"6",exchange_rate:"0.999921",holders_count:"8348277",icon_url:"https://assets.coingecko.com/coins/images/325/small/Tether.png?1696501661",name:"Tether",symbol:"USDT",total_supply:"76923002799740785",type:"ERC-20",reputation:"ok"},z=f.default.memo(()=>(0,d.jsxs)(w.Container,{value:"link",children:[(0,d.jsxs)(w.Section,{title:"variants",children:[(0,d.jsx)(w.SectionHeader,{children:"Variants"}),(0,d.jsxs)(w.SamplesStack,{children:[(0,d.jsxs)(w.Sample,{label:"variant: primary",children:[(0,d.jsx)(n.Link,{href:"/blocks",variant:"primary",children:"Default"}),(0,d.jsx)(n.Link,{href:"/",variant:"primary","data-hover":!0,children:"Hover"})]}),(0,d.jsxs)(w.Sample,{label:"variant: secondary",children:[(0,d.jsx)(n.Link,{href:"/",variant:"secondary",children:"Default"}),(0,d.jsx)(n.Link,{href:"/",variant:"secondary","data-hover":!0,children:"Hover"})]}),(0,d.jsxs)(w.Sample,{label:"variant: subtle",children:[(0,d.jsx)(n.Link,{href:"/",variant:"subtle",children:"Default"}),(0,d.jsx)(n.Link,{href:"/",variant:"subtle","data-hover":!0,children:"Hover"})]}),(0,d.jsxs)(w.Sample,{label:"variant: navigation",children:[(0,d.jsx)(n.Link,{href:"/",variant:"navigation",p:2,borderRadius:"base",children:"Default"}),(0,d.jsx)(n.Link,{href:"/",variant:"navigation",p:2,borderRadius:"base","data-hover":!0,children:"Hover"}),(0,d.jsx)(n.Link,{href:"/",variant:"navigation",p:2,borderRadius:"base","data-selected":!0,children:"Selected"}),(0,d.jsx)(n.Link,{href:"/",variant:"navigation",p:2,borderRadius:"base","data-active":!0,children:"Active"})]}),(0,d.jsxs)(w.Sample,{label:"variant: underlaid",children:[(0,d.jsx)(n.Link,{href:"/",variant:"underlaid",external:!0,children:"Default"}),(0,d.jsx)(n.Link,{href:"/",variant:"underlaid",external:!0,"data-hover":!0,children:"Hover"})]}),(0,d.jsxs)(w.Sample,{label:"variant: menu",children:[(0,d.jsx)(n.Link,{href:"/",variant:"menu",children:"Default"}),(0,d.jsx)(n.Link,{href:"/",variant:"menu","data-hover":!0,children:"Hover"})]})]})]}),(0,d.jsxs)(w.Section,{title:"loading",children:[(0,d.jsx)(w.SectionHeader,{children:"Loading"}),(0,d.jsxs)(w.SamplesStack,{children:[(0,d.jsxs)(w.Sample,{label:"loading: true, variant: primary",children:[(0,d.jsx)(n.Link,{href:"/",loading:!0,children:"hello hello hello"}),(0,d.jsxs)("span",{children:["Within ",(0,d.jsx)(n.Link,{loading:!0,children:"hello"})," text"]})]}),(0,d.jsxs)(w.Sample,{label:"loading: true, variant: underlaid",children:[(0,d.jsx)(n.Link,{href:"/",loading:!0,variant:"underlaid",children:"hello hello hello"}),(0,d.jsxs)("span",{children:["Within ",(0,d.jsx)(n.Link,{loading:!0,variant:"underlaid",children:"hello hello"})," text"]})]})]})]}),(0,d.jsxs)(w.Section,{children:[(0,d.jsx)(w.SectionHeader,{children:"Examples"}),(0,d.jsx)(w.SectionSubHeader,{children:"Address link"}),(0,d.jsxs)(w.SamplesStack,{children:[(0,d.jsxs)(w.Sample,{label:"Without name",vertical:!0,children:[(0,d.jsx)(o.default,{address:g.withoutName}),(0,d.jsx)(o.default,{address:g.withoutName,link:{external:!0}}),(0,d.jsx)(o.default,{address:{...g.filecoin,name:null}}),(0,d.jsx)(e.Box,{maxW:"200px",children:(0,d.jsx)(o.default,{address:g.withoutName})}),(0,d.jsx)(o.default,{address:g.withoutName,isLoading:!0})]}),(0,d.jsxs)(w.Sample,{label:"Variant: content, subheading",vertical:!0,children:[(0,d.jsx)(o.default,{address:g.withoutName,variant:"content"}),(0,d.jsx)(o.default,{address:g.withoutName,variant:"subheading"})]}),(0,d.jsxs)(w.Sample,{label:"With name",vertical:!0,children:[(0,d.jsx)(o.default,{address:g.withName}),(0,d.jsx)(o.default,{address:g.withNameTag}),(0,d.jsx)(o.default,{address:g.withEns}),(0,d.jsx)(e.Box,{maxW:"150px",children:(0,d.jsx)(o.default,{address:g.withEns})})]}),(0,d.jsxs)(w.Sample,{label:"Contract",vertical:!0,children:[(0,d.jsx)(o.default,{address:{...g.contract,is_verified:!1,name:null,implementations:[]}}),(0,d.jsx)(o.default,{address:{...g.contract,implementations:[]}}),(0,d.jsx)(o.default,{address:{...g.contract,implementations:h.multiple}}),(0,d.jsx)(o.default,{address:g.contract})]})]}),(0,d.jsx)(w.SectionSubHeader,{children:"Token link"}),(0,d.jsxs)(w.SamplesStack,{children:[(0,d.jsxs)(w.Sample,{label:"With info",vertical:!0,w:"100%",children:[(0,d.jsx)(u.default,{token:y}),(0,d.jsx)(e.Box,{maxW:"200px",children:(0,d.jsx)(u.default,{token:{...y,name:"Token with very very very long name"},noSymbol:!0})}),(0,d.jsx)(e.Box,{maxW:"300px",children:(0,d.jsx)(u.default,{token:{...y,symbol:"Token with very very very long symbol"}})}),(0,d.jsx)(u.default,{token:y,jointSymbol:!0}),(0,d.jsx)(u.default,{token:y,onlySymbol:!0}),(0,d.jsx)(u.default,{token:y,isLoading:!0})]}),(0,d.jsxs)(w.Sample,{label:"With partial info",vertical:!0,w:"100%",children:[(0,d.jsx)(u.default,{token:{...y,icon_url:null}}),(0,d.jsx)(u.default,{token:{...y,icon_url:null,name:null,symbol:null}})]}),(0,d.jsxs)(w.Sample,{label:"Variant: content, subheading",vertical:!0,w:"100%",children:[(0,d.jsx)(u.default,{token:y,variant:"content"}),(0,d.jsx)(u.default,{token:y,variant:"subheading",jointSymbol:!0})]})]}),(0,d.jsx)(w.SectionSubHeader,{children:"Transaction link"}),(0,d.jsx)(w.SamplesStack,{children:(0,d.jsxs)(w.Sample,{label:"Default",vertical:!0,w:"100%",children:[(0,d.jsx)(v.default,{hash:m.base.hash}),(0,d.jsx)(v.default,{hash:m.base.hash,link:{external:!0}}),(0,d.jsx)(e.Box,{maxW:"200px",children:(0,d.jsx)(v.default,{hash:m.base.hash})}),(0,d.jsx)(v.default,{hash:m.base.hash,isLoading:!0})]})}),(0,d.jsx)(w.SectionSubHeader,{children:"Block link"}),(0,d.jsx)(w.SamplesStack,{children:(0,d.jsxs)(w.Sample,{label:"Default",vertical:!0,w:"100%",children:[(0,d.jsx)(q.default,{number:j.base.height}),(0,d.jsx)(q.default,{number:j.base.height,link:{external:!0},icon:{name:"txn_batches"}}),(0,d.jsx)(e.Box,{maxW:"150px",children:(0,d.jsx)(q.default,{number:0x462d53c8abac0})}),(0,d.jsx)(q.default,{number:j.base.height,isLoading:!0})]})}),(0,d.jsx)(w.SectionSubHeader,{children:"NFT link"}),(0,d.jsx)(w.SamplesStack,{children:(0,d.jsxs)(w.Sample,{label:"Default",vertical:!0,w:"100%",children:[(0,d.jsx)(s.default,{id:"42",hash:y.address_hash}),(0,d.jsx)(e.Box,{maxW:"250px",children:(0,d.jsx)(s.default,{id:"32925298983216553915666621415831103694597106215670571463977478984525997408266",hash:y.address_hash})}),(0,d.jsx)(s.default,{id:"4200000",hash:y.address_hash,isLoading:!0})]})}),(0,d.jsx)(w.SectionSubHeader,{children:"ENS link"}),(0,d.jsxs)(w.SamplesStack,{children:[(0,d.jsxs)(w.Sample,{label:"Default",vertical:!0,w:"100%",children:[(0,d.jsx)(r.default,{domain:k.ensDomainA.name,protocol:k.ensDomainA.protocol}),(0,d.jsx)(e.Box,{maxW:"150px",children:(0,d.jsx)(r.default,{domain:k.ensDomainB.name,protocol:k.ensDomainB.protocol})}),(0,d.jsx)(r.default,{domain:k.ensDomainA.name,protocol:k.ensDomainA.protocol,isLoading:!0})]}),(0,d.jsxs)(w.Sample,{label:"Variant: content, subheading",vertical:!0,w:"100%",children:[(0,d.jsx)(r.default,{domain:k.ensDomainA.name,protocol:k.ensDomainA.protocol,variant:"content"}),(0,d.jsx)(r.default,{domain:k.ensDomainA.name,protocol:k.ensDomainA.protocol,variant:"subheading"})]})]}),(0,d.jsx)(w.SectionSubHeader,{children:"Blob link"}),(0,d.jsx)(w.SamplesStack,{children:(0,d.jsxs)(w.Sample,{label:"Default",vertical:!0,w:"100%",children:[(0,d.jsx)(p.default,{hash:i.base1.hash}),(0,d.jsx)(e.Box,{maxW:"200px",children:(0,d.jsx)(p.default,{hash:i.base1.hash,link:{external:!0}})}),(0,d.jsx)(p.default,{hash:i.base1.hash,isLoading:!0})]})}),(0,d.jsx)(w.SectionSubHeader,{children:"Pool link"}),(0,d.jsx)(w.SamplesStack,{children:(0,d.jsxs)(w.Sample,{label:"Default",vertical:!0,w:"100%",children:[(0,d.jsx)(t.default,{pool:{...l.base,base_token_icon_url:"https://coin-images.coingecko.com/coins/images/39926/large/usds.webp?1726666683",quote_token_icon_url:"https://coin-images.coingecko.com/coins/images/39925/large/sky.jpg?1724827980"}}),(0,d.jsx)(e.Box,{maxW:"150px",children:(0,d.jsx)(t.default,{pool:l.noIcons,link:{external:!0}})}),(0,d.jsx)(t.default,{pool:l.noIcons,isLoading:!0})]})}),(0,d.jsx)(w.SectionSubHeader,{children:"Link overlay"}),(0,d.jsxs)(w.SamplesStack,{children:[(0,d.jsx)(w.Sample,{label:"Internal link",children:(0,d.jsxs)(n.LinkBox,{p:2,display:"flex",flexDirection:"column",columnGap:2,borderWidth:"1px",borderColor:"border.divider",borderRadius:"base",children:[(0,d.jsx)(n.LinkOverlay,{href:"/blocks",children:"Main link"}),(0,d.jsx)(n.Link,{href:"/txs",children:"Inner link"})]})}),(0,d.jsx)(w.Sample,{label:"External link",children:(0,d.jsxs)(n.LinkBox,{p:2,display:"flex",flexDirection:"column",columnGap:2,borderWidth:"1px",borderColor:"border.divider",borderRadius:"base",children:[(0,d.jsx)(n.LinkOverlay,{href:"https://scan.giltchain.com",external:!0,children:"Main link"}),(0,d.jsx)(n.Link,{href:"https://scan.giltchain.com/txs",external:!0,children:"Inner link"})]})})]})]})]}));a.s(["TOKEN",0,y,"default",0,z]),c()}catch(a){c(a)}},!1),45804,a=>a.a(async(b,c)=>{try{var d=a.i(508171),e=a.i(127669),f=a.i(275175),g=a.i(776760),h=a.i(504901),i=a.i(851400),j=b([f,g,h,i]);[f,g,h,i]=j.then?(await j)():j;let k=e.default.memo(()=>(0,d.jsx)(i.Container,{value:"menu",children:(0,d.jsxs)(i.Section,{children:[(0,d.jsx)(i.SectionHeader,{children:"Variant"}),(0,d.jsx)(i.SamplesStack,{children:(0,d.jsxs)(i.Sample,{label:"variant: subtle",children:[(0,d.jsxs)(g.MenuRoot,{children:[(0,d.jsx)(g.MenuTrigger,{asChild:!0,children:(0,d.jsx)(f.IconButton,{variant:"icon_background",size:"md",children:(0,d.jsx)(h.default,{name:"dots"})})}),(0,d.jsxs)(g.MenuContent,{children:[(0,d.jsx)(g.MenuItem,{value:"refresh-metadata",children:"Refresh metadata"}),(0,d.jsx)(g.MenuItem,{value:"add-token-info",children:"Add token info"}),(0,d.jsx)(g.MenuItem,{value:"add-private-tag",children:"Add private tag"}),(0,d.jsx)(g.MenuItem,{value:"add-public-tag",children:"Add public tag"})]})]}),(0,d.jsxs)(g.MenuRoot,{children:[(0,d.jsx)(g.MenuTrigger,{asChild:!0,children:(0,d.jsx)(f.IconButton,{variant:"icon_background",size:"md",loadingSkeleton:!0,children:(0,d.jsx)(h.default,{name:"dots"})})}),(0,d.jsxs)(g.MenuContent,{children:[(0,d.jsx)(g.MenuItem,{value:"refresh-metadata",children:"Refresh metadata"}),(0,d.jsx)(g.MenuItem,{value:"add-token-info",children:"Add token info"}),(0,d.jsx)(g.MenuItem,{value:"add-private-tag",children:"Add private tag"}),(0,d.jsx)(g.MenuItem,{value:"add-public-tag",children:"Add public tag"})]})]})]})})]})}));a.s(["default",0,k]),c()}catch(a){c(a)}},!1),48348,a=>a.a(async(b,c)=>{try{var d=a.i(508171),e=a.i(127669),f=a.i(678720),g=a.i(851400),h=b([f,g]);[f,g]=h.then?(await h)():h;let i=e.default.memo(()=>{let[a,b]=e.default.useState(1),c={page:a,onNextPageClick:()=>{b(a+1)},onPrevPageClick:()=>{b(a-1)},resetPage:()=>b(1),hasNextPage:a<10,hasPages:!0,isVisible:!0,canGoBackwards:!0,isLoading:!1};return(0,d.jsx)(g.Container,{value:"pagination",children:(0,d.jsxs)(g.Section,{children:[(0,d.jsx)(g.SectionHeader,{children:"Examples"}),(0,d.jsx)(g.SectionSubHeader,{children:"List pagination"}),(0,d.jsxs)(g.SamplesStack,{children:[(0,d.jsx)(g.Sample,{label:"Loaded state",children:(0,d.jsx)(f.default,{...c})}),(0,d.jsx)(g.Sample,{label:"Initial loading state",children:(0,d.jsx)(f.default,{...c,hasPages:!1,page:1,isLoading:!0})}),(0,d.jsx)(g.Sample,{label:"Next page loading state",children:(0,d.jsx)(f.default,{...c,isLoading:!0})})]})]})})});a.s(["default",0,i]),c()}catch(a){c(a)}},!1),807771,a=>a.a(async(b,c)=>{try{var d=a.i(508171),e=a.i(811280),f=a.i(127669),g=a.i(725213),h=a.i(851400),i=b([e,g,h]);[e,g,h]=i.then?(await i)():i;let j=f.default.memo(()=>(0,d.jsxs)(h.Container,{value:"pin-input",children:[(0,d.jsxs)(h.Section,{children:[(0,d.jsx)(h.SectionHeader,{children:"Variant"}),(0,d.jsx)(h.SamplesStack,{children:(0,d.jsxs)(h.Sample,{label:"variant: outline",children:[(0,d.jsx)(g.PinInput,{otp:!0,count:3}),(0,d.jsx)(e.Box,{bgColor:{_light:"blackAlpha.200",_dark:"whiteAlpha.200"},p:2,borderRadius:"base",w:"100%",children:(0,d.jsx)(g.PinInput,{otp:!0,count:3,value:["1","2","3"]})})]})})]}),(0,d.jsxs)(h.Section,{children:[(0,d.jsx)(h.SectionHeader,{children:"Disabled"}),(0,d.jsx)(h.SamplesStack,{children:(0,d.jsxs)(h.Sample,{label:"disabled: true",children:[(0,d.jsx)(g.PinInput,{otp:!0,count:3,disabled:!0,value:["1","2","3"]}),(0,d.jsx)(e.Box,{bgColor:{_light:"blackAlpha.200",_dark:"whiteAlpha.200"},p:2,borderRadius:"base",w:"100%",children:(0,d.jsx)(g.PinInput,{otp:!0,count:3,disabled:!0,value:["1","2","3"]})})]})})]})]}));a.s(["default",0,j]),c()}catch(a){c(a)}},!1),847639,a=>a.a(async(b,c)=>{try{var d=a.i(508171),e=a.i(127669),f=a.i(718225),g=a.i(760210),h=a.i(851400),i=b([f,g,h]);[f,g,h]=i.then?(await i)():i;let j=e.default.memo(()=>(0,d.jsx)(h.Container,{value:"popover",children:(0,d.jsxs)(h.Section,{children:[(0,d.jsx)(h.SectionHeader,{children:"Size"}),(0,d.jsx)(h.SamplesStack,{children:(0,d.jsx)(h.Sample,{label:"size: sm",children:(0,d.jsxs)(g.PopoverRoot,{children:[(0,d.jsx)(g.PopoverTrigger,{children:(0,d.jsx)(f.Button,{variant:"dropdown",children:"Trigger"})}),(0,d.jsx)(g.PopoverContent,{children:(0,d.jsx)(g.PopoverBody,{children:"Popover content"})})]})})})]})}));a.s(["default",0,j]),c()}catch(a){c(a)}},!1),105094,a=>a.a(async(b,c)=>{try{var d=a.i(508171),e=a.i(127669),f=a.i(798613),g=a.i(851400),h=b([f,g]);[f,g]=h.then?(await h)():h;let i=e.default.memo(()=>(0,d.jsx)(g.Container,{value:"progress",children:(0,d.jsxs)(g.Section,{children:[(0,d.jsx)(g.SectionHeader,{children:"Size"}),(0,d.jsx)(g.SamplesStack,{children:["sm","md","lg","xl"].map(a=>(0,d.jsx)(g.Sample,{label:`size: ${a}`,children:(0,d.jsx)(f.Progress,{w:"200px",min:0,max:100,value:45,size:a})},a))})]})}));a.s(["default",0,i]),c()}catch(a){c(a)}},!1),681115,a=>a.a(async(b,c)=>{try{var d=a.i(508171),e=a.i(127669),f=a.i(502752),g=a.i(851400),h=b([f,g]);[f,g]=h.then?(await h)():h;let i=e.default.memo(()=>(0,d.jsxs)(g.Container,{value:"progress-circle",children:[(0,d.jsxs)(g.Section,{children:[(0,d.jsx)(g.SectionHeader,{children:"Variant"}),(0,d.jsx)(g.SamplesStack,{children:(0,d.jsx)(g.Sample,{label:"colorPalette: blue",children:(0,d.jsx)(f.ProgressCircleRoot,{value:45,colorPalette:"blue",children:(0,d.jsx)(f.ProgressCircleRing,{})})})})]}),(0,d.jsxs)(g.Section,{children:[(0,d.jsx)(g.SectionHeader,{children:"Size"}),(0,d.jsx)(g.SamplesStack,{children:["sm","md","lg"].map(a=>(0,d.jsx)(g.Sample,{label:`size: ${a}`,children:(0,d.jsxs)(f.ProgressCircleRoot,{value:45,colorPalette:"blue",size:a,children:[(0,d.jsx)(f.ProgressCircleRing,{}),"lg"===a&&(0,d.jsx)(f.ProgressCircleValueText,{})]})},a))})]})]}));a.s(["default",0,i]),c()}catch(a){c(a)}},!1),328467,a=>a.a(async(b,c)=>{try{var d=a.i(508171),e=a.i(127669),f=a.i(810320),g=a.i(851400),h=b([f,g]);[f,g]=h.then?(await h)():h;let i=e.default.memo(()=>(0,d.jsxs)(g.Container,{value:"radio",children:[(0,d.jsxs)(g.Section,{children:[(0,d.jsx)(g.SectionHeader,{children:"Variant"}),(0,d.jsx)(g.SamplesStack,{children:(0,d.jsx)(g.Sample,{label:"variant: subtle",children:(0,d.jsxs)(f.RadioGroup,{defaultValue:"1",children:[(0,d.jsx)(f.Radio,{value:"1",children:"Option 1"}),(0,d.jsx)(f.Radio,{value:"2",children:"Option 2"})]})})})]}),(0,d.jsxs)(g.Section,{children:[(0,d.jsx)(g.SectionHeader,{children:"Size"}),(0,d.jsxs)(g.SamplesStack,{children:[(0,d.jsx)(g.Sample,{label:"size: xs",children:(0,d.jsxs)(f.RadioGroup,{defaultValue:"1",size:"xs",children:[(0,d.jsx)(f.Radio,{value:"1",children:"Option 1"}),(0,d.jsx)(f.Radio,{value:"2",children:"Option 2"})]})}),(0,d.jsx)(g.Sample,{label:"size: sm",children:(0,d.jsxs)(f.RadioGroup,{defaultValue:"1",size:"sm",children:[(0,d.jsx)(f.Radio,{value:"1",children:"Option 1"}),(0,d.jsx)(f.Radio,{value:"2",children:"Option 2"})]})}),(0,d.jsx)(g.Sample,{label:"size: md",children:(0,d.jsxs)(f.RadioGroup,{defaultValue:"1",size:"md",children:[(0,d.jsx)(f.Radio,{value:"1",children:"Option 1"}),(0,d.jsx)(f.Radio,{value:"2",children:"Option 2"})]})})]})]}),(0,d.jsxs)(g.Section,{children:[(0,d.jsx)(g.SectionHeader,{children:"Orientation"}),(0,d.jsxs)(g.SamplesStack,{children:[(0,d.jsx)(g.Sample,{label:"orientation: horizontal",children:(0,d.jsxs)(f.RadioGroup,{defaultValue:"1",orientation:"horizontal",children:[(0,d.jsx)(f.Radio,{value:"1",children:"Option 1"}),(0,d.jsx)(f.Radio,{value:"2",children:"Option 2"})]})}),(0,d.jsx)(g.Sample,{label:"orientation: vertical",children:(0,d.jsxs)(f.RadioGroup,{defaultValue:"1",orientation:"vertical",children:[(0,d.jsx)(f.Radio,{value:"1",children:"Option 1"}),(0,d.jsx)(f.Radio,{value:"2",children:"Option 2"})]})})]})]}),(0,d.jsxs)(g.Section,{children:[(0,d.jsx)(g.SectionHeader,{children:"Disabled"}),(0,d.jsx)(g.SamplesStack,{children:(0,d.jsx)(g.Sample,{label:"disabled: true",children:(0,d.jsxs)(f.RadioGroup,{defaultValue:"1",disabled:!0,children:[(0,d.jsx)(f.Radio,{value:"1",children:"Option 1"}),(0,d.jsx)(f.Radio,{value:"2",children:"Option 2"})]})})})]}),(0,d.jsxs)(g.Section,{children:[(0,d.jsx)(g.SectionHeader,{children:"Read-only"}),(0,d.jsx)(g.SamplesStack,{children:(0,d.jsx)(g.Sample,{label:"readOnly: true",children:(0,d.jsxs)(f.RadioGroup,{defaultValue:"1",readOnly:!0,children:[(0,d.jsx)(f.Radio,{value:"1",children:"Option 1"}),(0,d.jsx)(f.Radio,{value:"2",children:"Option 2"})]})})})]})]}));a.s(["default",0,i]),c()}catch(a){c(a)}},!1),109108,a=>a.a(async(b,c)=>{try{var d=a.i(508171),e=a.i(127669),f=a.i(113248),g=a.i(851400),h=b([f,g]);[f,g]=h.then?(await h)():h;let i=e.default.memo(()=>(0,d.jsxs)(g.Container,{value:"rating",children:[(0,d.jsxs)(g.Section,{children:[(0,d.jsx)(g.SectionHeader,{children:"Size"}),(0,d.jsx)(g.SamplesStack,{children:(0,d.jsx)(g.Sample,{label:"size: md",children:(0,d.jsx)(f.Rating,{defaultValue:3,label:["Very bad","Bad","Average","Good","Excellent"]})})})]}),(0,d.jsxs)(g.Section,{children:[(0,d.jsx)(g.SectionHeader,{children:"Read-only"}),(0,d.jsx)(g.SamplesStack,{children:(0,d.jsx)(g.Sample,{label:"readOnly: true",children:(0,d.jsx)(f.Rating,{defaultValue:3,label:["Very bad","Bad","Average","Good","Excellent"],readOnly:!0})})})]})]}));a.s(["default",0,i]),c()}catch(a){c(a)}},!1),225093,a=>a.a(async(b,c)=>{try{var d=a.i(508171),e=a.i(811280),f=a.i(719855),g=a.i(127669),h=a.i(772402),i=a.i(827185),j=a.i(229976),k=a.i(504901),l=a.i(946537),m=a.i(327867),n=a.i(384769),o=a.i(851400),p=b([e,f,h,i,j,k,l,m,n,o]);[e,f,h,i,j,k,l,m,n,o]=p.then?(await p)():p;let q=(0,e.createListCollection)({items:[{label:"React.js is the most popular framework",value:"react",icon:(0,d.jsx)(k.default,{name:"navigation/api_keys",boxSize:5,flexShrink:0})},{label:"Vue.js is the second most popular framework",value:"vue"},{value:"angular",label:"Angular",renderLabel:()=>(0,d.jsxs)("div",{children:["Angular is ",(0,d.jsx)(e.Box,{as:"span",color:"red",fontWeight:"700",children:"not awesome"})]})},{label:"Svelte",value:"svelte"}]}),r=(0,e.createListCollection)({items:n.SORT_OPTIONS}),s=g.default.memo(()=>{let[a,b]=g.default.useState(!1),c=g.default.useCallback(a=>{b(a!==r.items[0].value)},[]);return(0,d.jsxs)(o.Container,{value:"select",children:[(0,d.jsxs)(o.Section,{children:[(0,d.jsx)(o.SectionHeader,{children:"Variant"}),(0,d.jsx)(o.SamplesStack,{children:(0,d.jsx)(o.Sample,{label:"variant: outline",children:(0,d.jsx)(i.Select,{collection:q,placeholder:"Select framework",size:"sm",w:"200px"})})})]}),(0,d.jsxs)(o.Section,{children:[(0,d.jsx)(o.SectionHeader,{children:"Size"}),(0,d.jsx)(o.SamplesStack,{children:["sm","lg"].map(a=>(0,d.jsxs)(o.Sample,{label:`size: ${a}`,children:[(0,d.jsx)(i.Select,{collection:q,placeholder:"Select framework",size:a,w:"300px"}),(0,d.jsx)(i.Select,{collection:q,placeholder:"Select framework",defaultValue:[q.items[0].value],size:a,w:"300px"}),(0,d.jsx)(i.Select,{collection:q,placeholder:"Select framework",defaultValue:[q.items[0].value],size:a,w:"300px",readOnly:!0}),(0,d.jsx)(i.Select,{collection:q,placeholder:"Select framework",defaultValue:[q.items[0].value],size:a,w:"300px",disabled:!0}),(0,d.jsx)(i.Select,{collection:q,placeholder:"Select framework",size:a,w:"300px",required:!0,invalid:!0,errorText:"Error message"}),(0,d.jsx)(i.Select,{collection:q,placeholder:"Select framework",defaultValue:[q.items[0].value],size:a,w:"300px",required:!0,invalid:!0,errorText:"Error message"})]},a))})]}),(0,d.jsxs)(o.Section,{children:[(0,d.jsx)(o.SectionHeader,{children:"With search (async)"}),(0,d.jsx)(o.SamplesStack,{children:(0,d.jsx)(o.Sample,{label:"variant: outline",children:(0,d.jsx)(i.SelectAsync,{placeholder:"Select framework",size:"lg",w:"300px",loadOptions:()=>Promise.resolve(q),extraControls:(0,d.jsx)(h.Checkbox,{mt:2,size:"sm",children:"Include nightly builds"})})})})]}),(0,d.jsxs)(o.Section,{children:[(0,d.jsx)(o.SectionHeader,{children:"Examples"}),(0,d.jsx)(o.SectionSubHeader,{children:"Sort"}),(0,d.jsx)(o.SamplesStack,{children:(0,d.jsxs)(o.Sample,{children:[(0,d.jsx)(l.default,{name:"transactions_sorting",defaultValue:[r.items[0].value],collection:r,w:"fit-content"}),(0,d.jsx)(l.default,{name:"transactions_sorting",defaultValue:[r.items[0].value],collection:r,isLoading:!0,w:"fit-content"})]})}),(0,d.jsx)(o.SectionSubHeader,{children:"Token transfers filter"}),(0,d.jsx)(o.SamplesStack,{children:(0,d.jsxs)(o.Sample,{children:[(0,d.jsx)(m.default,{defaultTypeFilters:[],onTypeFilterChange:f.noop,withAddressFilter:!0}),(0,d.jsx)(m.default,{defaultTypeFilters:[],onTypeFilterChange:f.noop,appliedFiltersNum:2}),(0,d.jsx)(m.default,{defaultTypeFilters:[],onTypeFilterChange:f.noop,appliedFiltersNum:2,isLoading:!0})]})}),(0,d.jsx)(o.SectionSubHeader,{children:"Radio filter"}),(0,d.jsx)(o.SamplesStack,{children:(0,d.jsxs)(o.Sample,{flexWrap:"nowrap",children:[(0,d.jsx)(j.default,{name:"transactions_sorting",collection:r,hasActiveFilter:a,onChange:c}),(0,d.jsx)(j.default,{name:"transactions_sorting",collection:r,hasActiveFilter:!0,onChange:f.noop,isLoading:!0})]})})]})]})});a.s(["default",0,s]),c()}catch(a){c(a)}},!1),236883,a=>a.a(async(b,c)=>{try{var d=a.i(508171),e=a.i(127669),f=a.i(202019),g=a.i(851400),h=b([f,g]);[f,g]=h.then?(await h)():h;let i=e.default.memo(()=>(0,d.jsx)(g.Container,{value:"skeleton",children:(0,d.jsxs)(g.Section,{children:[(0,d.jsx)(g.SectionHeader,{children:"Variants"}),(0,d.jsx)(g.SamplesStack,{children:(0,d.jsx)(g.Sample,{label:"default",children:(0,d.jsx)(f.Skeleton,{loading:!0,children:(0,d.jsx)("span",{children:"Skeleton"})})})})]})}));a.s(["default",0,i]),c()}catch(a){c(a)}},!1),97745,a=>a.a(async(b,c)=>{try{var d=a.i(508171),e=a.i(811280),f=a.i(127669),g=a.i(851400),h=b([e,g]);[e,g]=h.then?(await h)():h;let i=f.default.memo(()=>(0,d.jsx)(g.Container,{value:"spinner",children:(0,d.jsxs)(g.Section,{children:[(0,d.jsx)(g.SectionHeader,{children:"Spinner"}),(0,d.jsx)(g.SectionSubHeader,{children:"Sizes"}),(0,d.jsx)(g.SamplesStack,{children:["xs","sm","md","lg","xl"].map(a=>(0,d.jsx)(g.Sample,{label:`size: ${a}`,children:(0,d.jsx)(e.Spinner,{size:a})},a))})]})}));a.s(["default",0,i]),c()}catch(a){c(a)}},!1),701168,a=>a.a(async(b,c)=>{try{var d=a.i(508171),e=a.i(127669),f=a.i(449481),g=a.i(851400),h=b([f,g]);[f,g]=h.then?(await h)():h;let i=e.default.memo(()=>(0,d.jsxs)(g.Container,{value:"switch",children:[(0,d.jsxs)(g.Section,{children:[(0,d.jsx)(g.SectionHeader,{children:"Size"}),(0,d.jsxs)(g.SamplesStack,{children:[(0,d.jsx)(g.Sample,{label:"size: sm",children:(0,d.jsx)(f.Switch,{size:"sm",children:"Show duck"})}),(0,d.jsx)(g.Sample,{label:"size: md",children:(0,d.jsx)(f.Switch,{size:"md",children:"Show duck"})}),(0,d.jsx)(g.Sample,{label:"size: lg",children:(0,d.jsx)(f.Switch,{size:"lg",defaultChecked:!0,children:"Show duck"})})]})]}),(0,d.jsxs)(g.Section,{children:[(0,d.jsx)(g.SectionHeader,{children:"Disabled"}),(0,d.jsx)(g.SamplesStack,{children:(0,d.jsx)(g.Sample,{label:"disabled: true",children:(0,d.jsx)(f.Switch,{disabled:!0,children:"Show duck"})})})]}),(0,d.jsxs)(g.Section,{children:[(0,d.jsx)(g.SectionHeader,{children:"Direction"}),(0,d.jsxs)(g.SamplesStack,{children:[(0,d.jsx)(g.Sample,{label:"direction: rtl",children:(0,d.jsx)(f.Switch,{size:"sm",direction:"rtl",children:"Show duck"})}),(0,d.jsx)(g.Sample,{label:"direction: ltr",children:(0,d.jsx)(f.Switch,{size:"md",direction:"ltr",children:"Show duck"})})]})]})]}));a.s(["default",0,i]),c()}catch(a){c(a)}},!1),582613,a=>a.a(async(b,c)=>{try{var d=a.i(508171),e=a.i(811280),f=a.i(127669),g=a.i(905392),h=a.i(669813),i=a.i(851400),j=b([e,g,i]);[e,g,i]=j.then?(await j)():j;let k=[{id:1,name:"Laptop",category:"Electronics",price:999.99},{id:2,name:"Coffee Maker",category:"Home Appliances",price:49.99},{id:3,name:"Desk Chair",category:"Furniture",price:150},{id:4,name:"Smartphone",category:"Electronics",price:799.99},{id:5,name:"Headphones",category:"Accessories",price:199.99}],l={category:["category-desc","category-asc","default"],price:["price-desc","price-asc","default"]},m=f.default.memo(()=>{let[a,b]=f.default.useState("default"),c=f.default.useCallback(c=>{let d=(0,h.default)(l,c)(a);b(d)},[a,b]);return(0,d.jsx)(i.Container,{value:"table",children:(0,d.jsxs)(i.Section,{children:[(0,d.jsx)(i.SectionHeader,{children:"Variant"}),(0,d.jsx)(i.SamplesStack,{children:(0,d.jsxs)(i.Sample,{label:"variant: line",children:[(0,d.jsxs)(g.TableRoot,{children:[(0,d.jsx)(g.TableHeaderSticky,{children:(0,d.jsxs)(g.TableRow,{children:[(0,d.jsx)(g.TableColumnHeader,{children:"Product"}),(0,d.jsx)(g.TableColumnHeaderSortable,{sortField:"category",sortValue:a,onSortToggle:c,children:"Category"}),(0,d.jsx)(g.TableColumnHeaderSortable,{sortField:"price",sortValue:a,onSortToggle:c,isNumeric:!0,children:"Price"})]})}),(0,d.jsx)(g.TableBody,{children:k.slice().sort((b,c)=>"category-asc"===a?b.category.localeCompare(c.category):"category-desc"===a?c.category.localeCompare(b.category):"price-asc"===a?b.price-c.price:"price-desc"===a?c.price-b.price:0).map(a=>(0,d.jsxs)(g.TableRow,{children:[(0,d.jsx)(g.TableCell,{children:a.name}),(0,d.jsx)(g.TableCell,{children:a.category}),(0,d.jsx)(g.TableCell,{isNumeric:!0,children:a.price})]},a.id))})]}),(0,d.jsx)(e.Box,{h:"1000px"})]})})]})})});a.s(["default",0,m]),c()}catch(a){c(a)}},!1),808895,a=>a.a(async(b,c)=>{try{var d=a.i(508171),e=a.i(811280),f=a.i(127669),g=a.i(218403),h=a.i(948746),i=a.i(851400),j=b([e,g,h,i]);[e,g,h,i]=j.then?(await j)():j;let k=f.default.memo(()=>{let a=[{id:"tab1",title:"Swaps",component:(0,d.jsx)("div",{children:"Swaps content"}),count:10},{id:"tab2",title:"Bridges",component:(0,d.jsx)("div",{children:"Bridges content"}),count:0},{id:"tab3",title:"Liquidity staking",component:(0,d.jsx)("div",{children:"Liquidity staking content"}),count:300},{id:"tab4",title:"Lending",component:(0,d.jsx)("div",{children:"Lending content"}),count:400},{id:"tab5",title:"Yield farming",component:(0,d.jsx)("div",{children:"Yield farming content"})}];return(0,d.jsxs)(i.Container,{value:"tabs",children:[(0,d.jsxs)(i.Section,{children:[(0,d.jsx)(i.SectionHeader,{children:"Variants"}),(0,d.jsxs)(i.SamplesStack,{children:[(0,d.jsx)(i.Sample,{label:"variant: solid",children:(0,d.jsxs)(g.TabsRoot,{defaultValue:"tab1",variant:"solid",children:[(0,d.jsxs)(g.TabsList,{children:[(0,d.jsx)(g.TabsTrigger,{value:"tab1",children:"First tab"}),(0,d.jsx)(g.TabsTrigger,{value:"tab2",children:"Second tab"})]}),(0,d.jsx)(g.TabsContent,{value:"tab1",children:"First tab content"}),(0,d.jsx)(g.TabsContent,{value:"tab2",children:"Second tab content"})]})}),(0,d.jsx)(i.Sample,{label:"variant: secondary",children:(0,d.jsxs)(g.TabsRoot,{defaultValue:"tab1",variant:"secondary",size:"sm",children:[(0,d.jsxs)(g.TabsList,{children:[(0,d.jsx)(g.TabsTrigger,{value:"tab1",children:"First tab"}),(0,d.jsx)(g.TabsTrigger,{value:"tab2",children:"Second tab"})]}),(0,d.jsx)(g.TabsContent,{value:"tab1",children:"First tab content"}),(0,d.jsx)(g.TabsContent,{value:"tab2",children:"Second tab content"})]})}),(0,d.jsx)(i.Sample,{label:"variant: segmented",children:(0,d.jsxs)(g.TabsRoot,{defaultValue:"tab1",variant:"segmented",size:"sm",children:[(0,d.jsxs)(g.TabsList,{children:[(0,d.jsx)(g.TabsTrigger,{value:"tab1",children:"First tab"}),(0,d.jsx)(g.TabsTrigger,{value:"tab2",children:"Second tab"}),(0,d.jsx)(g.TabsTrigger,{value:"tab3",children:"Third tab"}),(0,d.jsx)(g.TabsTrigger,{value:"tab4",children:"Fourth tab"})]}),(0,d.jsx)(g.TabsContent,{value:"tab1",children:"First tab content"}),(0,d.jsx)(g.TabsContent,{value:"tab2",children:"Second tab content"}),(0,d.jsx)(g.TabsContent,{value:"tab3",children:"Third tab content"}),(0,d.jsx)(g.TabsContent,{value:"tab4",children:"Fourth tab content"})]})})]})]}),(0,d.jsxs)(i.Section,{children:[(0,d.jsx)(i.SectionHeader,{children:"Examples"}),(0,d.jsx)(i.SectionSubHeader,{children:"Adaptive tabs"}),(0,d.jsx)(i.SamplesStack,{children:(0,d.jsx)(i.Sample,{gridColumn:"1 / 3",w:"100%",maxW:{base:"100vw",lg:"700px"},children:(0,d.jsx)(h.default,{w:"100%",tabs:a,defaultValue:a[0].id,outline:"1px dashed lightpink",leftSlot:(0,d.jsx)(e.Box,{display:{base:"none",lg:"block"},children:"Left element"}),leftSlotProps:{pr:{base:0,lg:4},color:"text.secondary"},rightSlot:(0,d.jsxs)(e.Box,{display:{base:"none",lg:"flex"},justifyContent:"space-between",children:[(0,d.jsx)("span",{children:"Right element"}),(0,d.jsx)("span",{children:"🙈"})]}),rightSlotProps:{pl:{base:0,lg:4},color:"text.secondary",widthAllocation:"available"}})})})]})]})});a.s(["default",0,k]),c()}catch(a){c(a)}},!1),3699,a=>a.a(async(b,c)=>{try{var d=a.i(508171),e=a.i(127669),f=a.i(162626),g=a.i(270288),h=a.i(343397),i=a.i(851400),j=b([g,h,i]);[g,h,i]=j.then?(await j)():j;let k=e.default.memo(()=>(0,d.jsxs)(i.Container,{value:"tag",children:[(0,d.jsxs)(i.Section,{children:[(0,d.jsx)(i.SectionHeader,{children:"Variant"}),(0,d.jsxs)(i.SamplesStack,{children:[(0,d.jsx)(i.Sample,{label:"variant: subtle",children:(0,d.jsx)(g.Tag,{children:"My tag"})}),(0,d.jsx)(i.Sample,{label:"variant: clickable",children:(0,d.jsx)(g.Tag,{variant:"clickable",children:"My tag"})}),(0,d.jsx)(i.Sample,{label:"variant: filter",children:(0,d.jsx)(g.Tag,{variant:"filter",children:"My tag"})}),(0,d.jsxs)(i.Sample,{label:"variant: select",children:[(0,d.jsx)(g.Tag,{variant:"select",children:"Default"}),(0,d.jsx)(g.Tag,{variant:"select",selected:!0,children:"Selected"})]})]})]}),(0,d.jsxs)(i.Section,{children:[(0,d.jsx)(i.SectionHeader,{children:"Size"}),(0,d.jsxs)(i.SamplesStack,{children:[(0,d.jsx)(i.Sample,{label:"size: md",children:(0,d.jsx)(g.Tag,{size:"md",children:"My tag"})}),(0,d.jsx)(i.Sample,{label:"size: lg",children:(0,d.jsx)(g.Tag,{size:"lg",children:"My tag"})})]})]}),(0,d.jsxs)(i.Section,{children:[(0,d.jsx)(i.SectionHeader,{children:"Truncated"}),(0,d.jsx)(i.SamplesStack,{children:(0,d.jsx)(i.Sample,{label:"truncated: true",children:(0,d.jsx)(g.Tag,{maxW:"150px",truncated:!0,children:"Very very very very very very very long text"})})})]}),(0,d.jsxs)(i.Section,{children:[(0,d.jsx)(i.SectionHeader,{children:"Closable"}),(0,d.jsx)(i.SamplesStack,{children:(0,d.jsx)(i.Sample,{label:"closable: true",children:(0,d.jsx)(g.Tag,{closable:!0,children:"My tag"})})})]}),(0,d.jsxs)(i.Section,{children:[(0,d.jsx)(i.SectionHeader,{children:"Loading"}),(0,d.jsxs)(i.SamplesStack,{children:[(0,d.jsxs)(i.Sample,{label:"loading: true",children:[(0,d.jsx)(g.Tag,{loading:!0,children:"My tag"}),(0,d.jsx)(g.Tag,{maxW:"150px",truncated:!0,loading:!0,children:"Very very very very very very very long text"})]}),(0,d.jsxs)(i.Sample,{label:"loading: true, variant: select",children:[(0,d.jsx)(g.Tag,{variant:"select",loading:!0,children:"Default"}),(0,d.jsx)(g.Tag,{variant:"select",selected:!0,loading:!0,children:"Selected"})]}),(0,d.jsxs)(i.Sample,{label:"loading: false",children:[(0,d.jsx)(g.Tag,{children:"My tag"}),(0,d.jsx)(g.Tag,{maxW:"150px",truncated:!0,children:"Very very very very very very very long text"})]})]})]}),(0,d.jsxs)(i.Section,{children:[(0,d.jsx)(i.SectionHeader,{children:"Examples"}),(0,d.jsx)(i.SectionSubHeader,{children:"Public tags"}),(0,d.jsx)(i.SamplesStack,{children:(0,d.jsxs)(i.Sample,{children:[(0,d.jsx)(h.default,{data:f.nameTag}),(0,d.jsx)(h.default,{data:f.customNameTag}),(0,d.jsx)(h.default,{data:f.warpcastTag}),(0,d.jsx)(h.default,{data:f.genericTag}),(0,d.jsx)(h.default,{data:f.protocolTag}),(0,d.jsx)(h.default,{data:f.infoTagWithLink,maxW:"150px"}),(0,d.jsx)(h.default,{data:f.tagWithTooltip}),(0,d.jsx)(h.default,{data:f.nameTag,isLoading:!0})]})}),(0,d.jsx)(i.SectionSubHeader,{children:"Filter tags"}),(0,d.jsx)(i.SamplesStack,{children:(0,d.jsxs)(i.Sample,{children:[(0,d.jsx)(g.Tag,{variant:"filter",label:"Type",children:"All"}),(0,d.jsx)(g.Tag,{variant:"filter",label:"Address",truncated:!0,maxW:"150px",closable:!0,children:"0x1234567890123456789012345678901234567890"}),(0,d.jsx)(g.Tag,{variant:"filter",label:"Type",loading:!0,children:"All"})]})})]})]}));a.s(["default",0,k]),c()}catch(a){c(a)}},!1),583647,a=>a.a(async(b,c)=>{try{var d=a.i(508171),e=a.i(811280),f=a.i(127669),g=a.i(156349),h=a.i(134048),i=a.i(851400),j=a.i(167791),k=b([e,g,h,i]);[e,g,h,i]=k.then?(await k)():k;let l=f.default.memo(()=>(0,d.jsx)(i.Container,{value:"textarea",children:(0,d.jsxs)(i.Section,{children:[(0,d.jsx)(i.SectionHeader,{children:"Variant"}),(0,d.jsx)(i.SamplesStack,{children:(0,d.jsxs)(i.Sample,{label:"variant: outline",w:"360px",children:[(0,d.jsx)(g.Field,{label:"Description",required:!0,floating:!0,size:"2xl",children:(0,d.jsx)(h.Textarea,{})}),(0,d.jsx)(g.Field,{label:"Description",required:!0,floating:!0,size:"2xl",children:(0,d.jsx)(h.Textarea,{value:j.TEXT})}),(0,d.jsx)(g.Field,{label:"Description (invalid)",required:!0,floating:!0,invalid:!0,size:"2xl",children:(0,d.jsx)(h.Textarea,{value:j.TEXT})}),(0,d.jsx)(g.Field,{label:"Description (readOnly)",required:!0,floating:!0,readOnly:!0,size:"2xl",children:(0,d.jsx)(h.Textarea,{value:j.TEXT})}),(0,d.jsx)(g.Field,{label:"Description (disabled)",required:!0,floating:!0,disabled:!0,size:"2xl",children:(0,d.jsx)(h.Textarea,{value:j.TEXT})}),(0,d.jsx)(e.Box,{bgColor:{_light:"blackAlpha.200",_dark:"whiteAlpha.200"},p:4,borderRadius:"base",w:"100%",children:(0,d.jsx)(g.Field,{label:"Description",required:!0,floating:!0,size:"2xl",children:(0,d.jsx)(h.Textarea,{value:j.TEXT})})})]})})]})}));a.s(["default",0,l]),c()}catch(a){c(a)}},!1),438128,a=>a.a(async(b,c)=>{try{var d=a.i(508171),e=a.i(127669),f=a.i(718225),g=a.i(604639),h=a.i(851400),i=a.i(167791),j=b([f,g,h]);[f,g,h]=j.then?(await j)():j;let k=e.default.memo(()=>(0,d.jsx)(h.Container,{value:"toast",children:(0,d.jsxs)(h.Section,{children:[(0,d.jsx)(h.SectionHeader,{children:"Type"}),(0,d.jsxs)(h.SamplesStack,{children:[(0,d.jsx)(h.Sample,{label:"type: info",children:(0,d.jsx)(f.Button,{onClick:()=>g.toaster.create({title:"Info",description:i.TEXT.slice(0,100),type:"info"}),children:"Info"})}),(0,d.jsx)(h.Sample,{label:"type: success",children:(0,d.jsx)(f.Button,{onClick:()=>g.toaster.success({title:"Success",description:"Toast content"}),children:"Success"})}),(0,d.jsx)(h.Sample,{label:"type: warning",children:(0,d.jsx)(f.Button,{onClick:()=>g.toaster.create({title:"Warning",description:"Toast content",type:"warning"}),children:"Warning"})}),(0,d.jsx)(h.Sample,{label:"type: error",children:(0,d.jsx)(f.Button,{onClick:()=>g.toaster.error({title:"Error",description:"Toast content"}),children:"Error"})}),(0,d.jsx)(h.Sample,{label:"type: loading",children:(0,d.jsx)(f.Button,{onClick:()=>g.toaster.loading({title:"Loading",description:"Please wait for..."}),children:"Loading"})})]})]})}));a.s(["default",0,k]),c()}catch(a){c(a)}},!1),884397,a=>a.a(async(b,c)=>{try{var d=a.i(508171),e=a.i(127669),f=a.i(454454),g=a.i(68770),h=a.i(851400),i=b([f,g,h]);[f,g,h]=i.then?(await i)():i;let j=e.default.memo(()=>(0,d.jsx)(h.Container,{value:"tooltip",children:(0,d.jsxs)(h.Section,{children:[(0,d.jsx)(h.SectionHeader,{children:"Variant"}),(0,d.jsxs)(h.SamplesStack,{children:[(0,d.jsxs)(h.Sample,{label:"variant: regular",children:[(0,d.jsx)(f.Tooltip,{content:"Tooltip content",children:(0,d.jsx)("span",{children:"Default"})}),(0,d.jsx)(f.Tooltip,{content:"Tooltip content",interactive:!0,children:(0,d.jsx)(g.default,{value:.5})})]}),(0,d.jsx)(h.Sample,{label:"variant: popover",children:(0,d.jsx)(f.Tooltip,{content:"Tooltip content",variant:"popover",children:(0,d.jsx)("span",{children:"Default"})})})]})]})}));a.s(["default",0,j]),c()}catch(a){c(a)}},!1),74911,a=>a.a(async(b,c)=>{try{var d=a.i(508171),e=a.i(826745),f=a.i(127669),g=a.i(54837),h=a.i(898071),i=a.i(962222),j=a.i(257813),k=a.i(798795),l=a.i(974668),m=a.i(851400),n=b([e,g,h,i,j,k,l,m]);[e,g,h,i,j,k,l,m]=n.then?(await n)():n;let o=f.default.memo(()=>(0,d.jsxs)(m.Container,{value:"values",children:[(0,d.jsxs)(m.Section,{children:[(0,d.jsx)(m.SectionHeader,{children:"SimpleValue"}),(0,d.jsx)(m.SectionSubHeader,{children:"Basic examples"}),(0,d.jsxs)(m.SamplesStack,{children:[(0,d.jsx)(m.Sample,{label:"Big value",children:(0,d.jsx)(j.default,{value:(0,e.default)("1000000000000000000000000"),startElement:"Get your ",endElement:" DUCK now!",maxW:"400px"})}),(0,d.jsx)(m.Sample,{label:"Small value",children:(0,d.jsx)(j.default,{value:(0,e.default)(1).div("1000000000000000000"),prefix:"$",maxW:"400px"})}),(0,d.jsx)(m.Sample,{label:"No accuracy",children:(0,d.jsx)(j.default,{value:(0,e.default)(1).div("1000000000000000000"),accuracy:0,startElement:"Get your ",endElement:" DUCK now!",maxW:"400px"})})]}),(0,d.jsx)(m.SectionSubHeader,{children:"Overflowed"}),(0,d.jsxs)(m.SamplesStack,{children:[(0,d.jsx)(m.Sample,{label:"Big value",children:(0,d.jsx)(j.default,{value:(0,e.default)("1000000000000000000000000"),endElement:"ETH",overflowed:!0,maxW:"200px"})}),(0,d.jsx)(m.Sample,{label:"Small value",children:(0,d.jsx)(j.default,{value:(0,e.default)(1).div("1000000000000000000"),prefix:"$",overflowed:!0,maxW:"200px"})})]}),(0,d.jsx)(m.SectionSubHeader,{children:"Loading"}),(0,d.jsx)(m.SamplesStack,{children:(0,d.jsx)(m.Sample,{label:"loading: true",children:(0,d.jsx)(j.default,{loading:!0,value:(0,e.default)("1000000000000000000000000"),startElement:"Get your ",endElement:" DUCK now!",maxW:"400px"})})})]}),(0,d.jsxs)(m.Section,{children:[(0,d.jsx)(m.SectionHeader,{children:"NativeCoinValue"}),(0,d.jsx)(m.SectionSubHeader,{children:"Units"}),(0,d.jsx)(m.SamplesStack,{children:(0,d.jsx)(m.Sample,{label:"wei",children:(0,d.jsx)(i.default,{amount:"1000000000000000000000000",units:"wei",maxW:"200px"})})}),(0,d.jsx)(m.SamplesStack,{children:(0,d.jsx)(m.Sample,{label:"gwei",children:(0,d.jsx)(i.default,{amount:"1000000000000000000000000",units:"gwei",maxW:"200px"})})}),(0,d.jsx)(m.SamplesStack,{children:(0,d.jsx)(m.Sample,{label:"ether",children:(0,d.jsx)(i.default,{amount:"1000000000000000000000000",units:"ether",maxW:"200px"})})}),(0,d.jsx)(m.SectionSubHeader,{children:"Gwei threshold"}),(0,d.jsxs)(m.SamplesStack,{children:[(0,d.jsx)(m.Sample,{label:"gweiThreshold: undefined",children:(0,d.jsx)(i.default,{amount:"100000000000",units:"wei",maxW:"200px"})}),(0,d.jsx)(m.Sample,{label:"gweiThreshold: 5",children:(0,d.jsx)(i.default,{amount:"100000000000",units:"wei",gweiThreshold:5,maxW:"200px"})})]}),(0,d.jsx)(m.SectionSubHeader,{children:"Different units in tooltip"}),(0,d.jsx)(m.SamplesStack,{children:(0,d.jsx)(m.Sample,{label:"unitsTooltip: 'gwei'",children:(0,d.jsx)(i.default,{amount:"100000000000",units:"wei",unitsTooltip:"gwei",maxW:"200px"})})}),(0,d.jsx)(m.SectionSubHeader,{children:"Layout"}),(0,d.jsxs)(m.SamplesStack,{children:[(0,d.jsx)(m.Sample,{label:"horizontal",children:(0,d.jsx)(i.default,{amount:"1000000000000000",exchangeRate:"4200",layout:"horizontal",maxW:"200px"})}),(0,d.jsx)(m.Sample,{label:"vertical",children:(0,d.jsx)(i.default,{amount:"1000000000000000",exchangeRate:"4200",layout:"vertical",maxW:"200px"})})]})]}),(0,d.jsxs)(m.Section,{children:[(0,d.jsx)(m.SectionHeader,{children:"TokenValue"}),(0,d.jsx)(m.SectionSubHeader,{children:"Examples"}),(0,d.jsx)(m.SamplesStack,{children:(0,d.jsx)(m.Sample,{label:"convertible token",children:(0,d.jsx)(k.default,{amount:"1000000000000000000000000",token:l.TOKEN,maxW:"400px"})})})]}),(0,d.jsxs)(m.Section,{children:[(0,d.jsx)(m.SectionHeader,{children:"AssetValue"}),(0,d.jsx)(m.SectionSubHeader,{children:"Layout"}),(0,d.jsxs)(m.SamplesStack,{children:[(0,d.jsx)(m.Sample,{label:"horizontal",children:(0,d.jsx)(g.default,{amount:"1000000000000000000000000",asset:"DUCK",decimals:"6",exchangeRate:"4200",maxW:"400px"})}),(0,d.jsx)(m.Sample,{label:"vertical",children:(0,d.jsx)(g.default,{amount:"1000000000000000000000000",asset:"DUCK",decimals:"6",exchangeRate:"4200",maxW:"250px",layout:"vertical"})})]}),(0,d.jsx)(m.SectionSubHeader,{children:"Loading"}),(0,d.jsx)(m.SamplesStack,{children:(0,d.jsxs)(m.Sample,{label:"loading: true",children:[(0,d.jsx)(g.default,{amount:"1000000000000000000000000",asset:"DUCK",decimals:"6",exchangeRate:"4200",maxW:"400px",loading:!0}),(0,d.jsx)(g.default,{amount:"1000000000000000000000000",asset:"DUCK",decimals:"6",exchangeRate:"4200",maxW:"300px",layout:"vertical",loading:!0})]})})]}),(0,d.jsxs)(m.Section,{children:[(0,d.jsx)(m.SectionHeader,{children:"GasPriceValue"}),(0,d.jsx)(m.SectionSubHeader,{children:"Examples"}),(0,d.jsx)(m.SamplesStack,{children:(0,d.jsx)(m.Sample,{label:"default",children:(0,d.jsx)(h.default,{amount:"420000"})})})]})]}));a.s(["default",0,o]),c()}catch(a){c(a)}},!1),302376,a=>a.a(async(b,c)=>{try{var d=a.i(508171),e=a.i(127669),f=a.i(865427),g=a.i(922483),h=a.i(449481),i=a.i(218403),j=a.i(855013),k=a.i(648968),l=a.i(355045),m=a.i(804031),n=a.i(745554),o=a.i(527555),p=a.i(27923),q=a.i(505807),r=a.i(831056),s=a.i(152845),t=a.i(600459),u=a.i(232090),v=a.i(867569),w=a.i(100908),x=a.i(337892),y=a.i(974668),z=a.i(45804),A=a.i(48348),B=a.i(807771),C=a.i(847639),D=a.i(105094),E=a.i(681115),F=a.i(328467),G=a.i(109108),H=a.i(225093),I=a.i(236883),J=a.i(97745),K=a.i(701168),L=a.i(582613),M=a.i(808895),N=a.i(3699),O=a.i(583647),P=a.i(438128),Q=a.i(884397),R=a.i(74911),S=b([f,g,h,i,j,k,l,m,n,o,p,q,r,s,t,u,v,w,x,y,z,A,B,C,D,E,F,G,H,I,J,K,L,M,N,O,P,Q,R]);[f,g,h,i,j,k,l,m,n,o,p,q,r,s,t,u,v,w,x,y,z,A,B,C,D,E,F,G,H,I,J,K,L,M,N,O,P,Q,R]=S.then?(await S)():S;let T=[{label:"Accordion",value:"accordion",component:(0,d.jsx)(k.default,{})},{label:"Alert",value:"alert",component:(0,d.jsx)(l.default,{})},{label:"Badge",value:"badge",component:(0,d.jsx)(m.default,{})},{label:"Button",value:"button",component:(0,d.jsx)(n.default,{})},{label:"Checkbox",value:"checkbox",component:(0,d.jsx)(o.default,{})},{label:"Clipboard",value:"clipboard",component:(0,d.jsx)(p.default,{})},{label:"Close button",value:"close-button",component:(0,d.jsx)(q.default,{})},{label:"Collapsible",value:"collapsible",component:(0,d.jsx)(r.default,{})},{label:"Content loader",value:"content-loader",component:(0,d.jsx)(s.default,{})},{label:"Dialog",value:"dialog",component:(0,d.jsx)(t.default,{})},{label:"Empty state",value:"empty-state",component:(0,d.jsx)(u.default,{})},{label:"Field",value:"field",component:(0,d.jsx)(v.default,{})},{label:"Icon button",value:"icon-button",component:(0,d.jsx)(w.default,{})},{label:"Input",value:"input",component:(0,d.jsx)(x.default,{})},{label:"Link",value:"link",component:(0,d.jsx)(y.default,{})},{label:"Menu",value:"menu",component:(0,d.jsx)(z.default,{})},{label:"Pagination",value:"pagination",component:(0,d.jsx)(A.default,{})},{label:"Progress",value:"progress",component:(0,d.jsx)(D.default,{})},{label:"Progress Circle",value:"progress-circle",component:(0,d.jsx)(E.default,{})},{label:"Radio",value:"radio",component:(0,d.jsx)(F.default,{})},{label:"Rating",value:"rating",component:(0,d.jsx)(G.default,{})},{label:"Pin input",value:"pin-input",component:(0,d.jsx)(B.default,{})},{label:"Popover",value:"popover",component:(0,d.jsx)(C.default,{})},{label:"Select",value:"select",component:(0,d.jsx)(H.default,{})},{label:"Skeleton",value:"skeleton",component:(0,d.jsx)(I.default,{})},{label:"Spinner",value:"spinner",component:(0,d.jsx)(J.default,{})},{label:"Switch",value:"switch",component:(0,d.jsx)(K.default,{})},{label:"Table",value:"table",component:(0,d.jsx)(L.default,{})},{label:"Tabs",value:"tabs",component:(0,d.jsx)(M.default,{})},{label:"Tag",value:"tag",component:(0,d.jsx)(N.default,{})},{label:"Textarea",value:"textarea",component:(0,d.jsx)(O.default,{})},{label:"Toast",value:"toast",component:(0,d.jsx)(P.default,{})},{label:"Tooltip",value:"tooltip",component:(0,d.jsx)(Q.default,{})},{label:"Values",value:"values",component:(0,d.jsx)(R.default,{})}],U=e.default.memo(()=>{let a=(0,g.useColorMode)(),b=(0,f.default)();return(0,d.jsxs)(d.Fragment,{children:[(0,d.jsx)(j.default,{title:"Chakra UI Showcase"}),(0,d.jsxs)(h.Switch,{onCheckedChange:a.toggleColorMode,checked:"dark"===a.colorMode,mb:10,children:["Color mode: ",a.colorMode]}),(0,d.jsxs)(i.TabsRoot,{defaultValue:"accordion",orientation:b?"horizontal":"vertical",children:[(0,d.jsx)(i.TabsList,{flexWrap:"wrap",w:"fit-content",whiteSpace:"nowrap",children:T.map(a=>(0,d.jsx)(i.TabsTrigger,{value:a.value,children:a.label},a.value))}),T.map(a=>(0,d.jsx)(e.default.Fragment,{children:a.component},a.value))]})]})});a.s(["default",0,U]),c()}catch(a){c(a)}},!1),712324,a=>a.a(async(b,c)=>{try{var d=a.i(508171),e=a.i(211742),f=a.i(302376),g=a.i(867033),h=b([e,f,g]);[e,f,g]=h.then?(await h)():h,a.s(["default",0,()=>(0,d.jsx)(e.default,{pathname:"/chakra",children:(0,d.jsx)(f.default,{})})]),c()}catch(a){c(a)}},!1),620043,a=>a.a(async(b,c)=>{try{var d=a.i(712324),e=a.i(867033),f=b([d,e]);[d,e]=f.then?(await f)():f,a.s(["default",()=>d.default,"getServerSideProps",()=>e.base]),c()}catch(a){c(a)}},!1),264452,a=>a.a(async(b,c)=>{try{var d=a.i(954604),e=a.i(774169),f=a.i(724360),g=a.i(820935),h=a.i(567298),i=a.i(620043),j=a.i(821357),k=b([g,h,i]);[g,h,i]=k.then?(await k)():k;let l=(0,f.hoist)(i,"default"),m=(0,f.hoist)(i,"getStaticProps"),n=(0,f.hoist)(i,"getStaticPaths"),o=(0,f.hoist)(i,"getServerSideProps"),p=(0,f.hoist)(i,"config"),q=(0,f.hoist)(i,"reportWebVitals"),r=(0,f.hoist)(i,"unstable_getStaticProps"),s=(0,f.hoist)(i,"unstable_getStaticPaths"),t=(0,f.hoist)(i,"unstable_getStaticParams"),u=(0,f.hoist)(i,"unstable_getServerProps"),v=(0,f.hoist)(i,"unstable_getServerSideProps"),w=new d.PagesRouteModule({definition:{kind:e.RouteKind.PAGES,page:"/chakra",pathname:"/chakra",bundlePath:"",filename:""},distDir:".next",relativeProjectDir:"",components:{App:h.default,Document:g.default},userland:i}),x=(0,j.getHandler)({srcPage:"/chakra",config:p,userland:i,routeModule:w,getStaticPaths:n,getStaticProps:m,getServerSideProps:o});a.s(["config",0,p,"default",0,l,"getServerSideProps",0,o,"getStaticPaths",0,n,"getStaticProps",0,m,"handler",0,x,"reportWebVitals",0,q,"routeModule",0,w,"unstable_getServerProps",0,u,"unstable_getServerSideProps",0,v,"unstable_getStaticParams",0,t,"unstable_getStaticPaths",0,s,"unstable_getStaticProps",0,r]),c()}catch(a){c(a)}},!1)];

//# sourceMappingURL=_6e3b305f._.js.map