(globalThis.TURBOPACK||(globalThis.TURBOPACK=[])).push(["object"==typeof document?document.currentScript:void 0,859600,e=>{"use strict";var l=e.i(950899),a=e.i(17470),i=e.i(708944),t=e.i(663270),n=e.i(680489),s=e.i(210356),r=e.i(802165),d=e.i(908343);e.s(["Container",0,e=>(0,l.jsx)(d.TabsContent,{display:"flex",flexDirection:"column",gap:6,w:"100%",...e}),"Sample",0,({children:e,label:a,vertical:t,...r})=>{let d=t?s.VStack:n.HStack;return(0,l.jsxs)(l.Fragment,{children:[a&&(0,l.jsx)(i.Code,{w:"fit-content",children:a}),(0,l.jsx)(d,{gap:3,whiteSpace:"pre-wrap",flexWrap:"wrap",columnSpan:a?"1":"2",alignItems:t?"flex-start":"center",...r,children:e})]})},"SamplesStack",0,({children:e})=>(0,l.jsx)(t.Grid,{rowGap:4,columnGap:8,gridTemplateColumns:"fit-content(100%) 1fr",justifyItems:"flex-start",alignItems:"flex-start",children:e}),"Section",0,e=>(0,l.jsx)(a.Box,{...e,as:"section"}),"SectionHeader",0,({children:e})=>(0,l.jsx)(r.Heading,{level:"2",mb:4,children:e}),"SectionSubHeader",0,({children:e})=>(0,l.jsx)(r.Heading,{level:"3",mb:3,_notFirst:{mt:4},children:e})])},315660,e=>{"use strict";var l=e.i(950899),a=e.i(272653),i=e.i(777118),t=e.i(859600);let n=[{value:"first-item",title:"First Item",text:"Some value 1..."},{value:"second-item",title:"Second Item",text:"Some value 2..."},{value:"third-item",title:"Third Item",text:"Some value 3..."}],s=a.default.memo(()=>(0,l.jsx)(t.Container,{value:"accordion",children:(0,l.jsxs)(t.Section,{children:[(0,l.jsx)(t.SectionHeader,{children:"Variant"}),(0,l.jsxs)(t.SamplesStack,{children:[(0,l.jsx)(t.Sample,{label:"variant: outline",children:(0,l.jsx)(i.AccordionRoot,{w:"400px",children:n.map((e,a)=>(0,l.jsxs)(i.AccordionItem,{value:e.value,children:[(0,l.jsx)(i.AccordionItemTrigger,{children:e.title}),(0,l.jsx)(i.AccordionItemContent,{children:e.text})]},a))})}),(0,l.jsx)(t.Sample,{label:"variant: faq",children:(0,l.jsx)(i.AccordionRoot,{w:"400px",variant:"faq",children:n.map((e,a)=>(0,l.jsxs)(i.AccordionItem,{value:e.value,children:[(0,l.jsx)(i.AccordionItemTrigger,{variant:"faq",children:e.title}),(0,l.jsx)(i.AccordionItemContent,{children:e.text})]},a))})})]}),(0,l.jsx)(t.SectionHeader,{children:"Size"}),(0,l.jsxs)(t.SamplesStack,{children:[(0,l.jsx)(t.Sample,{label:"size: md",children:(0,l.jsx)(i.AccordionRoot,{w:"400px",children:n.map((e,a)=>(0,l.jsxs)(i.AccordionItem,{value:e.value,children:[(0,l.jsx)(i.AccordionItemTrigger,{children:e.title}),(0,l.jsx)(i.AccordionItemContent,{children:e.text})]},a))})}),(0,l.jsx)(t.Sample,{label:"size: sm",children:(0,l.jsx)(i.AccordionRoot,{w:"400px",size:"sm",children:n.map((e,a)=>(0,l.jsxs)(i.AccordionItem,{value:e.value,children:[(0,l.jsx)(i.AccordionItemTrigger,{indicatorPlacement:"start",children:e.title}),(0,l.jsx)(i.AccordionItemContent,{children:e.text})]},a))})})]})]})}));e.s(["default",0,s])},232881,e=>{"use strict";var l=e.i(950899),a=e.i(17470),i=e.i(272653),t=e.i(832424),n=e.i(393286),s=e.i(483142),r=e.i(671893),d=e.i(63528),o=e.i(859600);let c=i.default.memo(()=>(0,l.jsxs)(o.Container,{value:"alert",children:[(0,l.jsxs)(o.Section,{children:[(0,l.jsx)(o.SectionHeader,{children:"Status"}),(0,l.jsxs)(o.SamplesStack,{children:[(0,l.jsx)(o.Sample,{label:"status: info",children:(0,l.jsx)(t.Alert,{status:"info",title:"Info",children:" Alert content "})}),(0,l.jsx)(o.Sample,{label:"status: warning",children:(0,l.jsx)(t.Alert,{status:"warning",title:"Warning",children:" Alert content "})}),(0,l.jsx)(o.Sample,{label:"status: success",children:(0,l.jsx)(t.Alert,{status:"success",title:"Success",children:" Alert content "})}),(0,l.jsx)(o.Sample,{label:"status: error",children:(0,l.jsx)(t.Alert,{status:"error",title:"Error",children:" Alert content "})})]})]}),(0,l.jsxs)(o.Section,{children:[(0,l.jsx)(o.SectionHeader,{children:"Variant"}),(0,l.jsx)(o.SamplesStack,{children:(0,l.jsx)(o.Sample,{label:"variant: subtle",children:(0,l.jsx)(t.Alert,{status:"info",title:"Info",showIcon:!0,children:" Alert content "})})})]}),(0,l.jsxs)(o.Section,{children:[(0,l.jsx)(o.SectionHeader,{children:"Size"}),(0,l.jsxs)(o.SamplesStack,{children:[(0,l.jsx)(o.Sample,{label:"size: sm",children:(0,l.jsx)(t.Alert,{status:"info",title:"Info",showIcon:!0,size:"sm",closable:!0,children:" Alert content "})}),(0,l.jsx)(o.Sample,{label:"size: md",children:(0,l.jsx)(t.Alert,{status:"info",title:"Info",showIcon:!0,size:"md",children:" Alert content "})})]})]}),(0,l.jsxs)(o.Section,{children:[(0,l.jsx)(o.SectionHeader,{children:"Closable"}),(0,l.jsx)(o.SamplesStack,{children:(0,l.jsx)(o.Sample,{label:"closable",children:(0,l.jsx)(t.Alert,{status:"info",title:"Info",showIcon:!0,closable:!0,children:" Alert content "})})})]}),(0,l.jsxs)(o.Section,{children:[(0,l.jsx)(o.SectionHeader,{children:"Loading"}),(0,l.jsx)(o.SamplesStack,{children:(0,l.jsx)(o.Sample,{label:"loading: true",children:(0,l.jsx)(t.Alert,{status:"info",title:"Info",loading:!0,children:" Alert content "})})})]}),(0,l.jsxs)(o.Section,{children:[(0,l.jsx)(o.SectionHeader,{children:"Examples"}),(0,l.jsx)(o.SectionSubHeader,{children:"As Link"}),(0,l.jsx)(o.SamplesStack,{children:(0,l.jsx)(o.Sample,{children:(0,l.jsx)(n.Link,{href:"/",asChild:!0,children:(0,l.jsx)(t.Alert,{status:"info",title:"Info",children:" Alert content "})})})}),(0,l.jsx)(o.SectionSubHeader,{children:"Inside table (SocketNewItemsNotice)"}),(0,l.jsxs)(o.SamplesStack,{children:[(0,l.jsx)(o.Sample,{label:"loading",children:(0,l.jsxs)(s.TableRoot,{tableLayout:"auto",children:[(0,l.jsx)(s.TableHeader,{children:(0,l.jsxs)(s.TableRow,{children:[(0,l.jsx)(s.TableColumnHeader,{w:"100px",children:"Block"}),(0,l.jsx)(s.TableColumnHeader,{w:"100px",children:"Age"}),(0,l.jsx)(s.TableColumnHeader,{w:"100px",children:"Gas used"})]})}),(0,l.jsx)(s.TableBody,{children:(0,l.jsx)(r.Desktop,{num:1234,type:"block",isLoading:!0})})]})}),(0,l.jsx)(o.Sample,{label:"success",children:(0,l.jsxs)(s.TableRoot,{tableLayout:"auto",children:[(0,l.jsx)(s.TableHeader,{children:(0,l.jsxs)(s.TableRow,{children:[(0,l.jsx)(s.TableColumnHeader,{w:"100px",children:"Block"}),(0,l.jsx)(s.TableColumnHeader,{w:"100px",children:"Age"}),(0,l.jsx)(s.TableColumnHeader,{w:"100px",children:"Gas used"})]})}),(0,l.jsx)(s.TableBody,{children:(0,l.jsx)(r.Desktop,{num:1234,type:"block",isLoading:!1})})]})})]}),(0,l.jsx)(o.SectionSubHeader,{children:"Multiple lines"}),(0,l.jsxs)(o.SamplesStack,{children:[(0,l.jsx)(o.Sample,{label:"multiple lines, with title, inline=false",children:(0,l.jsx)(t.Alert,{status:"warning",title:"Warning",inline:!1,maxWidth:"500px",showIcon:!0,closable:!0,children:(0,l.jsx)(a.Box,{children:"Participated in our recent GoldScan activities? Check your eligibility and claim your NFT Scout badges. More exciting things are coming soon!"})})}),(0,l.jsx)(o.Sample,{label:"multiple lines, no title",children:(0,l.jsx)(t.Alert,{status:"warning",maxWidth:"500px",children:(0,l.jsx)(a.Box,{children:"Participated in our recent GoldScan activities? Check your eligibility and claim your NFT Scout badges. More exciting things are coming soon!"})})}),(0,l.jsx)(o.Sample,{label:"with spinner",children:(0,l.jsx)(d.default,{})})]})]})]}));e.s(["default",0,c])},475010,e=>{"use strict";var l=e.i(950899),a=e.i(17470),i=e.i(272653),t=e.i(330061),n=e.i(955807),s=e.i(404481),r=e.i(859600);let d=i.default.memo(()=>(0,l.jsxs)(r.Container,{value:"badge",children:[(0,l.jsxs)(r.Section,{children:[(0,l.jsx)(r.SectionHeader,{children:"Color palette"}),(0,l.jsxs)(r.SamplesStack,{children:[(0,l.jsx)(r.Sample,{label:"colorPalette: gray",children:(0,l.jsx)(t.Badge,{colorPalette:"gray",children:"Pending"})}),(0,l.jsx)(r.Sample,{label:"colorPalette: green",children:(0,l.jsx)(t.Badge,{colorPalette:"green",children:"Success"})}),(0,l.jsx)(r.Sample,{label:"colorPalette: red",children:(0,l.jsx)(t.Badge,{colorPalette:"red",children:"Failed"})}),(0,l.jsx)(r.Sample,{label:"colorPalette: purple",children:(0,l.jsx)(t.Badge,{colorPalette:"purple",children:"Transaction"})}),(0,l.jsx)(r.Sample,{label:"colorPalette: orange",children:(0,l.jsx)(t.Badge,{colorPalette:"orange",children:"Token transfer"})}),(0,l.jsx)(r.Sample,{label:"colorPalette: blue",children:(0,l.jsx)(t.Badge,{colorPalette:"blue",children:"Contract call"})}),(0,l.jsx)(r.Sample,{label:"colorPalette: yellow",children:(0,l.jsx)(t.Badge,{colorPalette:"yellow",children:"Blob txn"})}),(0,l.jsx)(r.Sample,{label:"colorPalette: teal",children:(0,l.jsx)(t.Badge,{colorPalette:"teal",children:"Multicall"})}),(0,l.jsx)(r.Sample,{label:"colorPalette: cyan",children:(0,l.jsx)(t.Badge,{colorPalette:"cyan",children:"Internal txn"})}),(0,l.jsx)(r.Sample,{label:"colorPalette: pink",children:(0,l.jsx)(t.Badge,{colorPalette:"pink",children:"Content"})}),(0,l.jsx)(r.Sample,{label:"colorPalette: purple_alt",children:(0,l.jsx)(t.Badge,{colorPalette:"purple_alt",children:"read"})}),(0,l.jsx)(r.Sample,{label:"colorPalette: blue_alt",children:(0,l.jsx)(t.Badge,{colorPalette:"blue_alt",children:"write"})}),(0,l.jsx)(r.Sample,{label:"colorPalette: bright_gray",children:(0,l.jsx)(t.Badge,{colorPalette:"bright_gray",children:"Content"})}),(0,l.jsx)(r.Sample,{label:"colorPalette: bright_green",children:(0,l.jsx)(t.Badge,{colorPalette:"bright_green",children:"Content"})}),(0,l.jsx)(r.Sample,{label:"colorPalette: bright_red",children:(0,l.jsx)(t.Badge,{colorPalette:"bright_red",children:"Content"})}),(0,l.jsx)(r.Sample,{label:"colorPalette: bright_blue",children:(0,l.jsx)(t.Badge,{colorPalette:"bright_blue",children:"Content"})}),(0,l.jsx)(r.Sample,{label:"colorPalette: bright_yellow",children:(0,l.jsx)(t.Badge,{colorPalette:"bright_yellow",children:"Content"})}),(0,l.jsx)(r.Sample,{label:"colorPalette: bright_teal",children:(0,l.jsx)(t.Badge,{colorPalette:"bright_teal",children:"Content"})}),(0,l.jsx)(r.Sample,{label:"colorPalette: bright_cyan",children:(0,l.jsx)(t.Badge,{colorPalette:"bright_cyan",children:"Content"})}),(0,l.jsx)(r.Sample,{label:"colorPalette: bright_orange",children:(0,l.jsx)(t.Badge,{colorPalette:"bright_orange",children:"Content"})}),(0,l.jsx)(r.Sample,{label:"colorPalette: bright_purple",children:(0,l.jsx)(t.Badge,{colorPalette:"bright_purple",children:"Content"})}),(0,l.jsx)(r.Sample,{label:"colorPalette: bright_pink",children:(0,l.jsx)(t.Badge,{colorPalette:"bright_pink",children:"Content"})})]})]}),(0,l.jsxs)(r.Section,{children:[(0,l.jsx)(r.SectionHeader,{children:"Loading"}),(0,l.jsx)(r.SamplesStack,{children:(0,l.jsx)(r.Sample,{label:"loading: true",children:(0,l.jsx)(t.Badge,{colorPalette:"purple",loading:!0,children:"Content"})})})]}),(0,l.jsxs)(r.Section,{children:[(0,l.jsx)(r.SectionHeader,{children:"Size"}),(0,l.jsxs)(r.SamplesStack,{children:[(0,l.jsx)(r.Sample,{label:"size: sm",children:(0,l.jsx)(t.Badge,{size:"sm",children:"Content"})}),(0,l.jsx)(r.Sample,{label:"size: md",children:(0,l.jsx)(t.Badge,{size:"md",children:"Content"})}),(0,l.jsx)(r.Sample,{label:"size: lg",children:(0,l.jsx)(t.Badge,{size:"lg",children:"Content"})})]})]}),(0,l.jsxs)(r.Section,{children:[(0,l.jsx)(r.SectionHeader,{children:"Variant"}),(0,l.jsx)(r.SamplesStack,{children:(0,l.jsx)(r.Sample,{label:"variant: subtle",children:(0,l.jsx)(t.Badge,{variant:"subtle",children:"Content"})})})]}),(0,l.jsxs)(r.Section,{children:[(0,l.jsx)(r.SectionHeader,{children:"Truncate"}),(0,l.jsx)(r.SamplesStack,{children:(0,l.jsx)(r.Sample,{label:"truncated: true",children:(0,l.jsx)(a.Box,{maxW:"150px",children:(0,l.jsx)(t.Badge,{truncated:!0,children:"Very long content that should be truncated"})})})})]}),(0,l.jsxs)(r.Section,{children:[(0,l.jsx)(r.SectionHeader,{children:"Icon"}),(0,l.jsx)(r.SamplesStack,{children:(0,l.jsx)(r.Sample,{label:"iconStart: status/success",children:(0,l.jsx)(t.Badge,{startElement:(0,l.jsx)(n.default,{name:"status/success",boxSize:2.5}),children:"Content"})})})]}),(0,l.jsxs)(r.Section,{children:[(0,l.jsx)(r.SectionHeader,{children:"Examples"}),(0,l.jsx)(r.SectionSubHeader,{children:"Status tag (StatusTag)"}),(0,l.jsxs)(r.SamplesStack,{children:[(0,l.jsx)(r.Sample,{label:"status: ok",children:(0,l.jsx)(s.default,{type:"ok",text:"Text"})}),(0,l.jsx)(r.Sample,{label:"status: error",children:(0,l.jsx)(s.default,{type:"error",text:"Text"})}),(0,l.jsx)(r.Sample,{label:"status: pending",children:(0,l.jsx)(s.default,{type:"pending",text:"Text"})})]})]})]}));e.s(["default",0,d])},272158,e=>e.a(async(l,a)=>{try{var i=e.i(950899),t=e.i(272653),n=e.i(17789),s=e.i(722278),r=e.i(393286),d=e.i(532351),o=e.i(28264),c=e.i(672154),x=e.i(955807),h=e.i(859600),u=l([c]);[c]=u.then?(await u)():u;let j=t.default.memo(()=>(0,i.jsxs)(h.Container,{value:"button",children:[(0,i.jsxs)(h.Section,{children:[(0,i.jsx)(h.SectionHeader,{children:"Size"}),(0,i.jsxs)(h.SamplesStack,{children:[(0,i.jsx)(h.Sample,{label:"size: 2xs",children:(0,i.jsx)(n.Button,{size:"2xs",children:"Content"})}),(0,i.jsx)(h.Sample,{label:"size: xs",children:(0,i.jsx)(n.Button,{size:"xs",children:"Content"})}),(0,i.jsx)(h.Sample,{label:"size: sm",children:(0,i.jsx)(n.Button,{size:"sm",children:"Content"})}),(0,i.jsx)(h.Sample,{label:"size: md",children:(0,i.jsx)(n.Button,{size:"md",children:"Content"})})]})]}),(0,i.jsxs)(h.Section,{children:[(0,i.jsx)(h.SectionHeader,{children:"Variants"}),(0,i.jsxs)(h.SamplesStack,{children:[(0,i.jsxs)(h.Sample,{label:"variant: solid",children:[(0,i.jsx)(n.Button,{variant:"solid",children:"Default"}),(0,i.jsx)(n.Button,{variant:"solid","data-hover":!0,children:"Hovered"}),(0,i.jsx)(n.Button,{variant:"solid",disabled:!0,children:"Disabled"}),(0,i.jsx)(n.Button,{variant:"solid",loading:!0,children:"Loading"}),(0,i.jsx)(n.Button,{variant:"solid",loadingSkeleton:!0,children:"Loading Skeleton"})]}),(0,i.jsxs)(h.Sample,{label:"variant: solid_danger",children:[(0,i.jsx)(n.Button,{variant:"solid_danger",children:"Default"}),(0,i.jsx)(n.Button,{variant:"solid_danger","data-hover":!0,children:"Hovered"}),(0,i.jsx)(n.Button,{variant:"solid_danger",disabled:!0,children:"Disabled"}),(0,i.jsx)(n.Button,{variant:"solid_danger",loading:!0,children:"Loading"}),(0,i.jsx)(n.Button,{variant:"solid_danger",loadingSkeleton:!0,children:"Loading Skeleton"})]}),(0,i.jsxs)(h.Sample,{label:"variant: outline",children:[(0,i.jsx)(n.Button,{variant:"outline",children:"Default"}),(0,i.jsx)(n.Button,{variant:"outline","data-hover":!0,children:"Hovered"}),(0,i.jsx)(n.Button,{variant:"outline",disabled:!0,children:"Disabled"}),(0,i.jsx)(n.Button,{variant:"outline",loading:!0,children:"Loading"}),(0,i.jsx)(n.Button,{variant:"outline",loadingSkeleton:!0,children:"Loading Skeleton"})]}),(0,i.jsxs)(h.Sample,{label:"variant: outline_danger",children:[(0,i.jsx)(n.Button,{variant:"outline_danger",children:"Default"}),(0,i.jsx)(n.Button,{variant:"outline_danger","data-hover":!0,children:"Hovered"}),(0,i.jsx)(n.Button,{variant:"outline_danger",disabled:!0,children:"Disabled"}),(0,i.jsx)(n.Button,{variant:"outline_danger",loading:!0,children:"Loading"}),(0,i.jsx)(n.Button,{variant:"outline_danger",loadingSkeleton:!0,children:"Loading Skeleton"})]}),(0,i.jsxs)(h.Sample,{label:"variant: link",children:[(0,i.jsx)(n.Button,{variant:"link",children:"Default"}),(0,i.jsx)(n.Button,{variant:"link","data-hover":!0,children:"Hovered"}),(0,i.jsx)(n.Button,{variant:"link",disabled:!0,children:"Disabled"}),(0,i.jsx)(n.Button,{variant:"link",loadingSkeleton:!0,children:"Disabled"})]}),(0,i.jsxs)(h.Sample,{label:"variant: dropdown",children:[(0,i.jsxs)(d.PopoverRoot,{children:[(0,i.jsx)(d.PopoverTrigger,{children:(0,i.jsx)(n.Button,{variant:"dropdown",children:"Default"})}),(0,i.jsx)(d.PopoverContent,{children:(0,i.jsx)(d.PopoverBody,{children:"Popover content"})})]}),(0,i.jsxs)(d.PopoverRoot,{children:[(0,i.jsx)(d.PopoverTrigger,{children:(0,i.jsx)(n.Button,{variant:"dropdown","data-hover":!0,children:"Hovered"})}),(0,i.jsx)(d.PopoverContent,{children:(0,i.jsx)(d.PopoverBody,{children:"Popover content"})})]}),(0,i.jsxs)(d.PopoverRoot,{children:[(0,i.jsx)(d.PopoverTrigger,{children:(0,i.jsx)(n.Button,{variant:"dropdown",expanded:!0,children:"Expended"})}),(0,i.jsx)(d.PopoverContent,{children:(0,i.jsx)(d.PopoverBody,{children:"Popover content"})})]}),(0,i.jsxs)(d.PopoverRoot,{children:[(0,i.jsx)(d.PopoverTrigger,{children:(0,i.jsx)(n.Button,{variant:"dropdown",selected:!0,children:"Selected"})}),(0,i.jsx)(d.PopoverContent,{children:(0,i.jsxs)(d.PopoverBody,{display:"flex",flexDirection:"column",gap:2,children:[(0,i.jsx)(s.Checkbox,{defaultChecked:!0,children:"First option"}),(0,i.jsx)(s.Checkbox,{children:"Second option"})]})})]}),(0,i.jsx)(n.Button,{variant:"dropdown",disabled:!0,children:"Disabled"}),(0,i.jsx)(n.Button,{variant:"dropdown",loading:!0,children:"Loading"}),(0,i.jsx)(n.Button,{variant:"dropdown",loadingSkeleton:!0,children:"Loading Skeleton"}),(0,i.jsxs)(d.PopoverRoot,{children:[(0,i.jsx)(o.Tooltip,{content:"Tooltip content",children:(0,i.jsx)("div",{children:(0,i.jsx)(d.PopoverTrigger,{children:(0,i.jsxs)(n.Button,{variant:"dropdown",size:"md",px:2,children:[(0,i.jsx)(x.default,{name:"explorer",boxSize:5}),"With tooltip"]})})})}),(0,i.jsx)(d.PopoverContent,{children:(0,i.jsx)(d.PopoverBody,{children:"Popover content"})})]})]}),(0,i.jsxs)(h.Sample,{label:"variant: header",children:[(0,i.jsx)(n.Button,{variant:"header",children:"Default"}),(0,i.jsx)(n.Button,{variant:"header","data-hover":!0,children:"Hovered"}),(0,i.jsx)(n.Button,{variant:"header",loading:!0,loadingText:"Loading",children:"Loading"}),(0,i.jsxs)(d.PopoverRoot,{children:[(0,i.jsx)(d.PopoverTrigger,{children:(0,i.jsx)(n.Button,{variant:"header",selected:!0,children:"Selected"})}),(0,i.jsx)(d.PopoverContent,{children:(0,i.jsx)(d.PopoverBody,{children:"User profile menu content"})})]}),(0,i.jsxs)(d.PopoverRoot,{children:[(0,i.jsx)(d.PopoverTrigger,{children:(0,i.jsx)(n.Button,{variant:"header",selected:!0,expanded:!0,children:"Selected & expended"})}),(0,i.jsx)(d.PopoverContent,{children:(0,i.jsx)(d.PopoverBody,{children:"User profile menu content"})})]}),(0,i.jsxs)(d.PopoverRoot,{children:[(0,i.jsx)(d.PopoverTrigger,{children:(0,i.jsx)(n.Button,{variant:"header",selected:!0,highlighted:!0,children:"Selected & highlighted"})}),(0,i.jsx)(d.PopoverContent,{children:(0,i.jsx)(d.PopoverBody,{children:"User profile menu content"})})]})]}),(0,i.jsxs)(h.Sample,{label:"variant: hero",p:6,background:c.BACKGROUND_DEFAULT,children:[(0,i.jsx)(n.Button,{variant:"hero",children:"Default"}),(0,i.jsx)(n.Button,{variant:"hero","data-hover":!0,children:"Hovered"}),(0,i.jsx)(n.Button,{variant:"hero",loading:!0,loadingText:"Loading",children:"Loading"}),(0,i.jsxs)(d.PopoverRoot,{children:[(0,i.jsx)(d.PopoverTrigger,{children:(0,i.jsx)(n.Button,{variant:"hero",selected:!0,children:"Selected"})}),(0,i.jsx)(d.PopoverContent,{children:(0,i.jsx)(d.PopoverBody,{children:"User profile menu content"})})]}),(0,i.jsxs)(d.PopoverRoot,{children:[(0,i.jsx)(d.PopoverTrigger,{children:(0,i.jsx)(n.Button,{variant:"hero",selected:!0,expanded:!0,children:"Selected & expended"})}),(0,i.jsx)(d.PopoverContent,{children:(0,i.jsx)(d.PopoverBody,{children:"User profile menu content"})})]})]}),(0,i.jsxs)(h.Sample,{label:"variant: subtle",children:[(0,i.jsx)(n.Button,{variant:"subtle",size:"xs",children:"Default: Now+1h"}),(0,i.jsx)(n.Button,{variant:"subtle",size:"xs","data-hover":!0,children:"Hovered: Now+1h"}),(0,i.jsx)(n.Button,{variant:"subtle",size:"xs",disabled:!0,children:"Disabled: Now+1h"}),(0,i.jsx)(n.Button,{variant:"subtle",size:"xs",loadingSkeleton:!0,children:"Loading Skeleton"})]}),(0,i.jsxs)(h.Sample,{label:"variant: plain",children:[(0,i.jsx)(n.Button,{variant:"plain",children:"Default"}),(0,i.jsx)(n.Button,{variant:"plain","data-hover":!0,children:"Hovered"}),(0,i.jsx)(n.Button,{variant:"plain",disabled:!0,children:"Disabled"}),(0,i.jsx)(n.Button,{variant:"plain",loadingSkeleton:!0,children:"Loading Skeleton"})]})]})]}),(0,i.jsxs)(h.Section,{children:[(0,i.jsx)(h.SectionHeader,{children:"Loading"}),(0,i.jsxs)(h.SamplesStack,{children:[(0,i.jsxs)(h.Sample,{label:"loading: true, loadingText: 'Loading'",children:[(0,i.jsx)(n.Button,{loading:!0,loadingText:"Loading",children:"Content"}),(0,i.jsx)(n.Button,{loading:!0,loadingText:"Loading",size:"sm",children:"Content"}),(0,i.jsx)(n.Button,{loading:!0,loadingText:"Loading",size:"xs",children:"Content"}),(0,i.jsx)(n.Button,{loading:!0,loadingText:"Loading",size:"2xs",children:"Content"})]}),(0,i.jsx)(h.Sample,{label:"loading: true, loadingText: undefined",children:(0,i.jsx)(n.Button,{loading:!0,children:"Content"})}),(0,i.jsxs)(h.Sample,{label:"loadingSkeleton: true",children:[(0,i.jsx)(n.Button,{loadingSkeleton:!0,children:"Content"}),(0,i.jsx)(n.Button,{loadingSkeleton:!0,variant:"outline",children:"Content"}),(0,i.jsx)(n.Button,{loadingSkeleton:!0,variant:"dropdown",children:"Content"}),(0,i.jsx)(n.Button,{loadingSkeleton:!0,variant:"subtle",children:"Content"})]})]})]}),(0,i.jsxs)(h.Section,{children:[(0,i.jsx)(h.SectionHeader,{children:"Examples"}),(0,i.jsx)(h.SectionSubHeader,{children:"As Link"}),(0,i.jsx)(h.SamplesStack,{children:(0,i.jsx)(h.Sample,{children:(0,i.jsx)(r.Link,{href:"/",asChild:!0,children:(0,i.jsx)(n.Button,{children:"I am link"})})})}),(0,i.jsx)(h.SectionSubHeader,{children:"Button Group Radio"}),(0,i.jsx)(h.SamplesStack,{children:(0,i.jsxs)(h.Sample,{children:[(0,i.jsxs)(n.ButtonGroupRadio,{children:[(0,i.jsx)(n.Button,{value:"option-1",children:"Option 1"}),(0,i.jsx)(n.Button,{value:"option-2",children:"Option 2"}),(0,i.jsx)(n.Button,{value:"option-3",children:"Option 3"})]}),(0,i.jsxs)(n.ButtonGroupRadio,{loading:!0,children:[(0,i.jsx)(n.Button,{value:"option-1",children:"Option 1"}),(0,i.jsx)(n.Button,{value:"option-2",children:"Option 2"}),(0,i.jsx)(n.Button,{value:"option-3",children:"Option 3"})]})]})})]})]}));e.s(["default",0,j]),a()}catch(e){a(e)}},!1),338099,e=>{"use strict";var l=e.i(950899),a=e.i(272653),i=e.i(722278),t=e.i(859600);let n=a.default.memo(()=>(0,l.jsxs)(t.Container,{value:"checkbox",children:[(0,l.jsxs)(t.Section,{children:[(0,l.jsx)(t.SectionHeader,{children:"Variant"}),(0,l.jsx)(t.SamplesStack,{children:(0,l.jsxs)(t.Sample,{label:"variant: subtle",children:[(0,l.jsx)(i.Checkbox,{children:"Option 1"}),(0,l.jsx)(i.Checkbox,{checked:!0,children:"Option 2"})]})})]}),(0,l.jsxs)(t.Section,{children:[(0,l.jsx)(t.SectionHeader,{children:"Size"}),(0,l.jsx)(t.SamplesStack,{children:(0,l.jsxs)(t.Sample,{label:"size: md",children:[(0,l.jsx)(i.Checkbox,{size:"md",children:"Option 1"}),(0,l.jsx)(i.Checkbox,{size:"md",children:"Option 2"})]})})]}),(0,l.jsxs)(t.Section,{children:[(0,l.jsx)(t.SectionHeader,{children:"Disabled"}),(0,l.jsx)(t.SamplesStack,{children:(0,l.jsxs)(t.Sample,{label:"disabled: true",children:[(0,l.jsx)(i.Checkbox,{disabled:!0,children:"Option 1"}),(0,l.jsx)(i.Checkbox,{checked:!0,disabled:!0,children:"Option 2"})]})})]}),(0,l.jsxs)(t.Section,{children:[(0,l.jsx)(t.SectionHeader,{children:"Read-only"}),(0,l.jsx)(t.SamplesStack,{children:(0,l.jsxs)(t.Sample,{label:"readOnly: true",children:[(0,l.jsx)(i.Checkbox,{readOnly:!0,children:"Option 1"}),(0,l.jsx)(i.Checkbox,{checked:!0,readOnly:!0,children:"Option 2"})]})})]}),(0,l.jsxs)(t.Section,{children:[(0,l.jsx)(t.SectionHeader,{children:"Orientation"}),(0,l.jsxs)(t.SamplesStack,{children:[(0,l.jsx)(t.Sample,{label:"orientation: vertical",children:(0,l.jsxs)(i.CheckboxGroup,{orientation:"vertical",children:[(0,l.jsx)(i.Checkbox,{value:"1",children:"Option 1"}),(0,l.jsx)(i.Checkbox,{value:"2",children:"Option 2"})]})}),(0,l.jsx)(t.Sample,{label:"orientation: horizontal",children:(0,l.jsxs)(i.CheckboxGroup,{orientation:"horizontal",children:[(0,l.jsx)(i.Checkbox,{value:"1",children:"Option 1"}),(0,l.jsx)(i.Checkbox,{value:"2",children:"Option 2"})]})})]})]})]}));e.s(["default",0,n])},759568,e=>{"use strict";var l=e.i(950899),a=e.i(272653),i=e.i(451905),t=e.i(859600);let n=a.default.memo(()=>(0,l.jsxs)(t.Container,{value:"clipboard",children:[(0,l.jsxs)(t.Section,{children:[(0,l.jsx)(t.SectionHeader,{children:"Type"}),(0,l.jsxs)(t.SamplesStack,{children:[(0,l.jsx)(t.Sample,{label:"type: text",children:(0,l.jsx)(i.default,{text:"Hello, world!",type:"text"})}),(0,l.jsx)(t.Sample,{label:"type: link",children:(0,l.jsx)(i.default,{text:"Hello, world!",type:"link"})}),(0,l.jsx)(t.Sample,{label:"type: share",children:(0,l.jsx)(i.default,{text:"Hello, world!",type:"share"})})]})]}),(0,l.jsxs)(t.Section,{children:[(0,l.jsx)(t.SectionHeader,{children:"Loading"}),(0,l.jsx)(t.SamplesStack,{children:(0,l.jsx)(t.Sample,{label:"loading: true",children:(0,l.jsx)(i.default,{text:"Hello, world!",type:"text",isLoading:!0})})})]})]}));e.s(["default",0,n])},492810,e=>{"use strict";var l=e.i(950899),a=e.i(272653),i=e.i(180105),t=e.i(859600);let n=a.default.memo(()=>(0,l.jsxs)(t.Container,{value:"close-button",children:[(0,l.jsxs)(t.Section,{children:[(0,l.jsx)(t.SectionHeader,{children:"Variants"}),(0,l.jsx)(t.SamplesStack,{children:(0,l.jsxs)(t.Sample,{label:"variant: default",children:[(0,l.jsx)(i.CloseButton,{}),(0,l.jsx)(i.CloseButton,{"data-hover":!0}),(0,l.jsx)(i.CloseButton,{disabled:!0})]})})]}),(0,l.jsxs)(t.Section,{children:[(0,l.jsx)(t.SectionHeader,{children:"Size"}),(0,l.jsx)(t.SamplesStack,{children:(0,l.jsx)(t.Sample,{label:"size: md",children:(0,l.jsx)(i.CloseButton,{size:"md",outline:"1px dashed lightpink"})})})]})]}));e.s(["default",0,n])},466279,e=>{"use strict";e.s(["TEXT",0,"Lorem ipsum dolor sit amet, consectetur adipiscing elit. Sed do eiusmod tempor incididunt ut labore et dolore magna aliqua. Ut enim ad minim veniam, quis nostrud exercitation ullamco laboris nisi ut aliquip ex ea commodo consequat. Duis aute irure dolor in reprehenderit in voluptate velit esse cillum dolore eu fugiat nulla pariatur. Excepteur sint occaecat cupidatat non proident, sunt in culpa qui officia deserunt mollit anim id est laborum."])},738908,e=>{"use strict";var l=e.i(950899),a=e.i(17470),i=e.i(507381),t=e.i(272653),n=e.i(392966),s=e.i(859600),r=e.i(466279);let d=t.default.memo(()=>(0,l.jsxs)(s.Container,{value:"collapsible",children:[(0,l.jsxs)(s.Section,{children:[(0,l.jsx)(s.SectionHeader,{children:"Variant"}),(0,l.jsx)(s.SamplesStack,{children:(0,l.jsx)(s.Sample,{label:"variant: default",flexDirection:"column",alignItems:"flex-start",children:(0,l.jsx)(n.CollapsibleDetails,{id:"CutLink_1",children:(0,l.jsx)(a.Box,{maxW:"500px",children:r.TEXT})})})})]}),(0,l.jsxs)(s.Section,{children:[(0,l.jsx)(s.SectionHeader,{children:"Loading"}),(0,l.jsx)(s.SamplesStack,{children:(0,l.jsx)(s.Sample,{label:"loading: true",flexDirection:"column",alignItems:"flex-start",children:(0,l.jsx)(n.CollapsibleDetails,{id:"CutLink_2",loading:!0,children:(0,l.jsx)(a.Box,{maxW:"500px",children:r.TEXT})})})})]}),(0,l.jsxs)(s.Section,{children:[(0,l.jsx)(s.SectionHeader,{children:"Examples"}),(0,l.jsx)(s.SectionSubHeader,{children:"Cut link"}),(0,l.jsxs)(s.SamplesStack,{children:[(0,l.jsx)(s.Sample,{label:"Show details",flexDirection:"column",alignItems:"flex-start",children:(0,l.jsx)(n.CollapsibleDetails,{id:"CutLink_3",children:(0,l.jsx)(a.Box,{maxW:"500px",children:r.TEXT})})}),(0,l.jsx)(s.Sample,{label:"Expand all list",flexDirection:"row",alignItems:"flex-start",flexWrap:"nowrap",children:(0,l.jsx)(n.CollapsibleList,{items:["foo","bar","baz","qux","quux","corgi","gaunt","garply","waldo","fred","pugh","fuzzy","thud"],renderItem:e=>(0,l.jsx)(i.Text,{children:e})})})]})]})]}));e.s(["default",0,d])},156354,e=>{"use strict";var l=e.i(950899),a=e.i(272653),i=e.i(530504),t=e.i(859600);let n=a.default.memo(()=>(0,l.jsx)(t.Container,{value:"content-loader",children:(0,l.jsxs)(t.Section,{children:[(0,l.jsx)(t.SectionHeader,{children:"Variants"}),(0,l.jsx)(t.SamplesStack,{children:(0,l.jsx)(t.Sample,{label:"default",children:(0,l.jsx)(i.ContentLoader,{})})})]})}));e.s(["default",0,n])},186798,e=>{"use strict";var l=e.i(950899),a=e.i(733705),i=e.i(272653),t=e.i(17789),n=e.i(548877),s=e.i(859600),r=e.i(466279);let d=i.default.memo(()=>(0,l.jsx)(s.Container,{value:"dialog",children:(0,l.jsxs)(s.Section,{children:[(0,l.jsx)(s.SectionHeader,{children:"Size"}),(0,l.jsxs)(s.SamplesStack,{children:[(0,l.jsx)(s.Sample,{label:"size: sm",children:(0,l.jsxs)(n.DialogRoot,{size:"sm",children:[(0,l.jsx)(n.DialogTrigger,{asChild:!0,children:(0,l.jsx)(t.Button,{size:"sm",children:"Open Dialog"})}),(0,l.jsxs)(n.DialogContent,{children:[(0,l.jsx)(n.DialogHeader,{children:(0,l.jsx)(n.DialogTitle,{children:"Dialog Title"})}),(0,l.jsx)(n.DialogBody,{children:(0,l.jsx)("p",{children:r.TEXT})}),(0,l.jsxs)(n.DialogFooter,{children:[(0,l.jsx)(t.Button,{children:"Save"}),(0,l.jsx)(n.DialogActionTrigger,{asChild:!0,children:(0,l.jsx)(t.Button,{variant:"link",children:"I'll do it later"})})]})]})]})}),(0,l.jsx)(s.Sample,{label:"size: md",children:(0,l.jsxs)(n.DialogRoot,{size:"md",children:[(0,l.jsx)(n.DialogTrigger,{asChild:!0,children:(0,l.jsx)(t.Button,{size:"sm",children:"Open Dialog"})}),(0,l.jsxs)(n.DialogContent,{children:[(0,l.jsx)(n.DialogHeader,{onBackToClick:a.noop,children:(0,l.jsx)(n.DialogTitle,{children:"Dialog Title"})}),(0,l.jsx)(n.DialogBody,{children:(0,l.jsx)("p",{children:r.TEXT})}),(0,l.jsxs)(n.DialogFooter,{children:[(0,l.jsx)(n.DialogActionTrigger,{asChild:!0,children:(0,l.jsx)(t.Button,{variant:"outline",children:"Cancel"})}),(0,l.jsx)(t.Button,{children:"Save"})]})]})]})}),(0,l.jsx)(s.Sample,{label:"size: full",children:(0,l.jsxs)(n.DialogRoot,{size:"full",children:[(0,l.jsx)(n.DialogTrigger,{asChild:!0,children:(0,l.jsx)(t.Button,{size:"sm",children:"Open Dialog"})}),(0,l.jsxs)(n.DialogContent,{children:[(0,l.jsx)(n.DialogHeader,{children:(0,l.jsx)(n.DialogTitle,{children:"Dialog Title"})}),(0,l.jsx)(n.DialogBody,{children:(0,l.jsx)("p",{children:r.TEXT})}),(0,l.jsxs)(n.DialogFooter,{children:[(0,l.jsx)(n.DialogActionTrigger,{asChild:!0,children:(0,l.jsx)(t.Button,{variant:"outline",children:"Cancel"})}),(0,l.jsx)(t.Button,{children:"Save"})]})]})]})})]})]})}));e.s(["default",0,d])},184911,e=>{"use strict";var l=e.i(950899),a=e.i(272653),i=e.i(297349),t=e.i(859600);let n=a.default.memo(()=>(0,l.jsx)(t.Container,{value:"empty-state",children:(0,l.jsxs)(t.Section,{children:[(0,l.jsx)(t.SectionHeader,{children:"Type"}),(0,l.jsxs)(t.SamplesStack,{children:[(0,l.jsx)(t.Sample,{label:"type: query",children:(0,l.jsx)(i.EmptyState,{term:"transaction",outline:"1px dashed deepskyblue"})}),(0,l.jsx)(t.Sample,{label:"type: stats",children:(0,l.jsx)(i.EmptyState,{type:"stats",term:"transactions",outline:"1px dashed deepskyblue"})}),(0,l.jsx)(t.Sample,{label:"type: coming_soon",children:(0,l.jsx)(i.EmptyState,{type:"coming_soon",outline:"1px dashed deepskyblue"})})]})]})}));e.s(["default",0,n])},813716,e=>{"use strict";var l=e.i(950899),a=e.i(272653),i=e.i(258998),t=e.i(783189),n=e.i(859600);let s=a.default.memo(()=>(0,l.jsx)(n.Container,{value:"field",children:(0,l.jsxs)(n.Section,{children:[(0,l.jsx)(n.SectionHeader,{children:"Size"}),(0,l.jsx)(n.SectionSubHeader,{children:"Default"}),(0,l.jsxs)(n.SamplesStack,{children:[["sm","md","lg"].map(e=>(0,l.jsxs)(n.Sample,{label:`size: ${e}`,w:"100%",alignItems:"flex-start",children:[(0,l.jsx)(i.Field,{label:"Email",required:!0,size:e,helperText:"Helper text",maxWidth:"200px",children:(0,l.jsx)(t.Input,{})}),(0,l.jsx)(i.Field,{label:"Email (disabled)",required:!0,size:e,maxWidth:"200px",children:(0,l.jsx)(t.Input,{disabled:!0,value:"me@example.com"})}),(0,l.jsx)(i.Field,{label:"Email (readOnly)",required:!0,size:e,maxWidth:"200px",children:(0,l.jsx)(t.Input,{readOnly:!0,value:"me@example.com"})}),(0,l.jsx)(i.Field,{label:"Email (invalid)",required:!0,size:e,errorText:"Something went wrong",invalid:!0,maxWidth:"200px",children:(0,l.jsx)(t.Input,{value:"duck"})})]},e)),(0,l.jsxs)(n.Sample,{label:"size: xl",w:"100%",alignItems:"flex-start",children:[(0,l.jsx)(i.Field,{label:"Email",required:!0,floating:!0,size:"lg",helperText:"Helper text",maxWidth:"300px",children:(0,l.jsx)(t.Input,{})}),(0,l.jsx)(i.Field,{label:"Email (disabled)",required:!0,floating:!0,disabled:!0,size:"lg",maxWidth:"300px",children:(0,l.jsx)(t.Input,{value:"me@example.com"})}),(0,l.jsx)(i.Field,{label:"Email (readOnly)",required:!0,floating:!0,readOnly:!0,size:"lg",maxWidth:"300px",children:(0,l.jsx)(t.Input,{value:"me@example.com"})}),(0,l.jsx)(i.Field,{label:"Email (invalid)",required:!0,floating:!0,size:"lg",errorText:"Something went wrong",invalid:!0,maxWidth:"300px",children:(0,l.jsx)(t.Input,{value:"duck"})})]})]}),(0,l.jsx)(n.SectionSubHeader,{children:"On custom background"}),(0,l.jsxs)(n.SamplesStack,{children:[(0,l.jsxs)(n.Sample,{label:"no floating label",p:4,bgColor:{_light:"blackAlpha.200",_dark:"whiteAlpha.200"},alignItems:"flex-start",children:[(0,l.jsx)(i.Field,{label:"Email",required:!0,helperText:"Helper text",maxWidth:"200px",children:(0,l.jsx)(t.Input,{})}),(0,l.jsx)(i.Field,{label:"Email (disabled)",required:!0,disabled:!0,maxWidth:"200px",children:(0,l.jsx)(t.Input,{value:"me@example.com"})}),(0,l.jsx)(i.Field,{label:"Email (readOnly)",required:!0,readOnly:!0,maxWidth:"200px",children:(0,l.jsx)(t.Input,{value:"me@example.com"})}),(0,l.jsx)(i.Field,{label:"Email (invalid)",required:!0,errorText:"Something went wrong",invalid:!0,maxWidth:"200px",children:(0,l.jsx)(t.Input,{value:"duck"})})]}),(0,l.jsxs)(n.Sample,{label:"floating label",p:4,bgColor:{_light:"blackAlpha.200",_dark:"whiteAlpha.200"},alignItems:"flex-start",children:[(0,l.jsx)(i.Field,{label:"Email",required:!0,floating:!0,size:"lg",helperText:"Helper text",maxWidth:"300px",children:(0,l.jsx)(t.Input,{})}),(0,l.jsx)(i.Field,{label:"Email (disabled)",required:!0,disabled:!0,floating:!0,size:"lg",maxWidth:"300px",children:(0,l.jsx)(t.Input,{value:"me@example.com"})}),(0,l.jsx)(i.Field,{label:"Email (readOnly)",required:!0,readOnly:!0,floating:!0,size:"lg",maxWidth:"300px",children:(0,l.jsx)(t.Input,{value:"me@example.com"})}),(0,l.jsx)(i.Field,{label:"Email (invalid)",required:!0,floating:!0,size:"lg",errorText:"Something went wrong",invalid:!0,maxWidth:"300px",children:(0,l.jsx)(t.Input,{value:"duck"})})]})]})]})}));e.s(["default",0,s])},462965,e=>{"use strict";var l=e.i(950899),a=e.i(272653),i=e.i(722278),t=e.i(688332),n=e.i(532351),s=e.i(955807),r=e.i(859600);let d=a.default.memo(()=>(0,l.jsxs)(r.Container,{value:"icon-button",children:[(0,l.jsxs)(r.Section,{children:[(0,l.jsx)(r.SectionHeader,{children:"Variant"}),(0,l.jsxs)(r.SamplesStack,{children:[(0,l.jsxs)(r.Sample,{label:"variant: icon_secondary",children:[(0,l.jsx)(t.IconButton,{size:"md",variant:"icon_secondary",children:(0,l.jsx)(s.default,{name:"info"})}),(0,l.jsx)(t.IconButton,{size:"md",variant:"icon_secondary","data-hover":!0,children:(0,l.jsx)(s.default,{name:"info"})}),(0,l.jsx)(t.IconButton,{size:"md",variant:"icon_secondary",disabled:!0,children:(0,l.jsx)(s.default,{name:"info"})}),(0,l.jsx)(t.IconButton,{size:"md",variant:"icon_secondary",selected:!0,children:(0,l.jsx)(s.default,{name:"info"})}),(0,l.jsx)(t.IconButton,{size:"md",variant:"icon_secondary",selected:!0,"data-hover":!0,children:(0,l.jsx)(s.default,{name:"info"})}),(0,l.jsx)(t.IconButton,{size:"md",variant:"icon_secondary",selected:!0,disabled:!0,children:(0,l.jsx)(s.default,{name:"info"})})]}),(0,l.jsxs)(r.Sample,{label:"variant: icon_background",children:[(0,l.jsx)(t.IconButton,{size:"md",variant:"icon_background",children:(0,l.jsx)(s.default,{name:"heart_outline"})}),(0,l.jsx)(t.IconButton,{size:"md",variant:"icon_background","data-hover":!0,children:(0,l.jsx)(s.default,{name:"heart_outline"})}),(0,l.jsx)(t.IconButton,{size:"md",variant:"icon_background",disabled:!0,children:(0,l.jsx)(s.default,{name:"heart_outline"})}),(0,l.jsx)(t.IconButton,{size:"md",variant:"icon_background",selected:!0,children:(0,l.jsx)(s.default,{name:"heart_filled"})}),(0,l.jsx)(t.IconButton,{size:"md",variant:"icon_background",selected:!0,"data-hover":!0,children:(0,l.jsx)(s.default,{name:"heart_filled"})}),(0,l.jsx)(t.IconButton,{size:"md",variant:"icon_background",selected:!0,disabled:!0,children:(0,l.jsx)(s.default,{name:"heart_filled"})})]}),(0,l.jsxs)(r.Sample,{label:"variant: dropdown",children:[(0,l.jsxs)(n.PopoverRoot,{children:[(0,l.jsx)(n.PopoverTrigger,{children:(0,l.jsx)(t.IconButton,{size:"md",variant:"dropdown",children:(0,l.jsx)(s.default,{name:"filter"})})}),(0,l.jsx)(n.PopoverContent,{children:(0,l.jsx)(n.PopoverBody,{children:"Popover content"})})]}),(0,l.jsxs)(n.PopoverRoot,{children:[(0,l.jsx)(n.PopoverTrigger,{children:(0,l.jsx)(t.IconButton,{size:"md",variant:"dropdown",expanded:!0,children:(0,l.jsx)(s.default,{name:"filter"})})}),(0,l.jsx)(n.PopoverContent,{children:(0,l.jsx)(n.PopoverBody,{children:"Popover content"})})]}),(0,l.jsxs)(n.PopoverRoot,{children:[(0,l.jsx)(n.PopoverTrigger,{children:(0,l.jsx)(t.IconButton,{size:"md",variant:"dropdown",selected:!0,children:(0,l.jsx)(s.default,{name:"filter"})})}),(0,l.jsx)(n.PopoverContent,{children:(0,l.jsxs)(n.PopoverBody,{display:"flex",flexDirection:"column",gap:2,children:[(0,l.jsx)(i.Checkbox,{defaultChecked:!0,children:"First option"}),(0,l.jsx)(i.Checkbox,{children:"Second option"})]})})]}),(0,l.jsx)(t.IconButton,{size:"md",variant:"dropdown",disabled:!0,children:(0,l.jsx)(s.default,{name:"filter"})}),(0,l.jsx)(t.IconButton,{size:"md",variant:"dropdown",loading:!0,children:(0,l.jsx)(s.default,{name:"filter"})}),(0,l.jsx)(t.IconButton,{size:"md",variant:"dropdown",loadingSkeleton:!0,children:(0,l.jsx)(s.default,{name:"filter"})})]})]})]}),(0,l.jsxs)(r.Section,{children:[(0,l.jsx)(r.SectionHeader,{children:"Size"}),(0,l.jsxs)(r.SamplesStack,{children:[(0,l.jsx)(r.Sample,{label:"size: 2xs",children:(0,l.jsx)(t.IconButton,{size:"2xs",variant:"icon_secondary",outline:"1px dashed lightpink",children:(0,l.jsx)(s.default,{name:"star_outline"})})}),(0,l.jsx)(r.Sample,{label:"size: 2xs_alt",children:(0,l.jsx)(t.IconButton,{size:"2xs_alt",variant:"icon_secondary",outline:"1px dashed lightpink",children:(0,l.jsx)(s.default,{name:"plus"})})}),(0,l.jsx)(r.Sample,{label:"size: md",children:(0,l.jsx)(t.IconButton,{size:"md",variant:"icon_secondary",outline:"1px dashed lightpink",children:(0,l.jsx)(s.default,{name:"star_outline"})})})]})]})]}));e.s(["default",0,d])},774151,e=>{"use strict";var l=e.i(950899),a=e.i(272653),i=e.i(258998),t=e.i(783189),n=e.i(401697),s=e.i(804132),r=e.i(955807),d=e.i(859600);let o=a.default.memo(()=>(0,l.jsxs)(d.Container,{value:"input",children:[(0,l.jsxs)(d.Section,{children:[(0,l.jsx)(d.SectionHeader,{children:"Size"}),(0,l.jsxs)(d.SamplesStack,{children:[(0,l.jsx)(d.Sample,{label:"size: sm",children:(0,l.jsx)(t.Input,{type:"text",placeholder:"Name",size:"sm"})}),(0,l.jsx)(d.Sample,{label:"size: md",children:(0,l.jsx)(t.Input,{type:"text",placeholder:"Name",size:"md"})}),(0,l.jsx)(d.Sample,{label:"size: lg",children:(0,l.jsx)(t.Input,{type:"text",placeholder:"Name",size:"lg"})})]})]}),(0,l.jsxs)(d.Section,{children:[(0,l.jsx)(d.SectionHeader,{children:"Variant"}),(0,l.jsx)(d.SamplesStack,{children:(0,l.jsxs)(d.Sample,{label:"variant: outline",maxW:"300px",children:[(0,l.jsx)(t.Input,{type:"text",placeholder:"Name"}),(0,l.jsx)(t.Input,{type:"text",placeholder:"Name (disabled)",disabled:!0}),(0,l.jsx)(t.Input,{type:"text",placeholder:"Name (readOnly)",readOnly:!0}),(0,l.jsx)(t.Input,{type:"text",placeholder:"Name (invalid)","data-invalid":!0}),(0,l.jsx)(t.Input,{type:"text",placeholder:"Name (invalid)","data-invalid":!0,value:"duck"})]})})]}),(0,l.jsxs)(d.Section,{children:[(0,l.jsx)(d.SectionHeader,{children:"Input group"}),(0,l.jsxs)(d.SamplesStack,{children:[(0,l.jsx)(d.Sample,{label:"with end element",children:(0,l.jsx)(i.Field,{label:"Referral code",required:!0,floating:!0,size:"lg",w:"300px",flexShrink:0,children:(0,l.jsx)(n.InputGroup,{endElement:(0,l.jsx)(r.default,{name:"copy",boxSize:5}),endElementProps:{px:3},children:(0,l.jsx)(t.Input,{})})})}),(0,l.jsx)(d.Sample,{label:"with start element",children:(0,l.jsx)(n.InputGroup,{startElement:(0,l.jsx)(r.default,{name:"collection",boxSize:5}),startElementProps:{px:2},children:(0,l.jsx)(t.Input,{placeholder:"Type in something"})})})]})]}),(0,l.jsxs)(d.Section,{children:[(0,l.jsx)(d.SectionHeader,{children:"Examples"}),(0,l.jsx)(d.SectionSubHeader,{children:"Filter input"}),(0,l.jsx)(d.SamplesStack,{children:(0,l.jsxs)(d.Sample,{children:[(0,l.jsx)(s.FilterInput,{placeholder:"Search by method name"}),(0,l.jsx)(s.FilterInput,{placeholder:"Search by method name",loading:!0})]})})]})]}));e.s(["default",0,o])},717450,e=>{"use strict";e.s(["customNameTag",0,{slug:"unicorn-uproar",name:"Unicorn Uproar",tagType:"name",ordinal:777,meta:{tagUrl:"https://example.com",bgColor:"linear-gradient(45deg, deeppink, deepskyblue)",textColor:"#FFFFFF"}},"genericTag",0,{slug:"duck-owner",name:"duck owner 🦆",tagType:"generic",ordinal:55,meta:{bgColor:"rgba(255,243,12,90%)"}},"infoTagWithLink",0,{slug:"goosegang",name:"GooseGanG GooseGanG GooseGanG GooseGanG GooseGanG GooseGanG GooseGanG",tagType:"classifier",ordinal:11,meta:{tagUrl:"https://example.com"}},"nameTag",0,{slug:"quack-quack",name:"Quack quack",tagType:"name",ordinal:99,meta:null},"protocolTag",0,{slug:"aerodrome",name:"Aerodrome",tagType:"protocol",ordinal:0,meta:null},"tagWithTooltip",0,{slug:"goldscan-heroes",name:"GoldScanHeroes",tagType:"classifier",ordinal:42,meta:{tooltipDescription:"The GoldScan team, EVM blockchain aficionados, illuminate Ethereum networks with unparalleled insight and prowess, leading the way in blockchain exploration! 🚀🔎",tooltipIcon:"https://localhost:3100/icon.svg",tooltipTitle:"GoldScan team member",tooltipUrl:"https://scan.giltchain.com",tooltipAttribution:"https://duck.org",tooltipAttributionIcon:"https://localhost:3100/icon_sm.svg"}},"warpcastTag",0,{slug:"warpcast-account",name:"Farcaster",tagType:"protocol",ordinal:0,meta:{bgColor:"#8465CB",tagIcon:"data:image/svg+xml;utf8,%3Csvg%20xmlns%3D%22http%3A%2F%2Fwww.w3.org%2F2000%2Fsvg%22%20xmlns%3Axlink%3D%22http%3A%2F%2Fwww.w3.org%2F1999%2Fxlink%22%20viewBox%3D%220%200%2032%2029%22%3E%3Cpath%20d%3D%22M%205.507%200.072%20L%2026.097%200.072%20L%2026.097%204.167%20L%2031.952%204.167%20L%2030.725%208.263%20L%2029.686%208.263%20L%2029.686%2024.833%20C%2030.207%2024.833%2030.63%2025.249%2030.63%2025.763%20L%2030.63%2026.88%20L%2030.819%2026.88%20C%2031.341%2026.88%2031.764%2027.297%2031.764%2027.811%20L%2031.764%2028.928%20L%2021.185%2028.928%20L%2021.185%2027.811%20C%2021.185%2027.297%2021.608%2026.88%2022.13%2026.88%20L%2022.319%2026.88%20L%2022.319%2025.763%20C%2022.319%2025.316%2022.639%2024.943%2023.065%2024.853%20L%2023.045%2015.71%20C%2022.711%2012.057%2019.596%209.194%2015.802%209.194%20C%2012.008%209.194%208.893%2012.057%208.559%2015.71%20L%208.539%2024.845%20C%209.043%2024.919%209.663%2025.302%209.663%2025.763%20L%209.663%2026.88%20L%209.852%2026.88%20C%2010.373%2026.88%2010.796%2027.297%2010.796%2027.811%20L%2010.796%2028.928%20L%200.218%2028.928%20L%200.218%2027.811%20C%200.218%2027.297%200.641%2026.88%201.162%2026.88%20L%201.351%2026.88%20L%201.351%2025.763%20C%201.351%2025.249%201.774%2024.833%202.296%2024.833%20L%202.296%208.263%20L%201.257%208.263%20L%200.029%204.167%20L%205.507%204.167%20L%205.507%200.072%20Z%22%20fill%3D%22rgb(255%2C%20255%2C%20255)%22%3E%3C%2Fpath%3E%3Cpath%20d%3D%22M%2026.097%200.072%20L%2026.166%200.072%20L%2026.166%200.004%20L%2026.097%200.004%20Z%20M%205.507%200.072%20L%205.507%200.004%20L%205.438%200.004%20L%205.438%200.072%20Z%20M%2026.097%204.167%20L%2026.028%204.167%20L%2026.028%204.235%20L%2026.097%204.235%20Z%20M%2031.952%204.167%20L%2032.019%204.187%20L%2032.045%204.099%20L%2031.952%204.099%20L%2031.952%204.167%20Z%20M%2030.725%208.263%20L%2030.725%208.331%20L%2030.776%208.331%20L%2030.791%208.282%20Z%20M%2029.686%208.263%20L%2029.686%208.195%20L%2029.617%208.195%20L%2029.617%208.263%20Z%20M%2029.686%2024.833%20L%2029.617%2024.833%20L%2029.617%2024.901%20L%2029.686%2024.901%20Z%20M%2030.63%2026.88%20L%2030.561%2026.88%20L%2030.561%2026.948%20L%2030.63%2026.948%20Z%20M%2031.764%2028.928%20L%2031.764%2028.996%20L%2031.832%2028.996%20L%2031.832%2028.928%20Z%20M%2021.185%2028.928%20L%2021.116%2028.928%20L%2021.116%2028.996%20L%2021.185%2028.996%20Z%20M%2022.319%2026.88%20L%2022.319%2026.948%20L%2022.388%2026.948%20L%2022.388%2026.88%20Z%20M%2023.065%2024.853%20L%2023.08%2024.919%20L%2023.134%2024.908%20L%2023.134%2024.853%20Z%20M%2023.045%2015.71%20L%2023.114%2015.71%20L%2023.114%2015.707%20L%2023.113%2015.704%20Z%20M%208.559%2015.71%20L%208.49%2015.704%20L%208.49%2015.707%20L%208.49%2015.71%20Z%20M%208.539%2024.845%20L%208.47%2024.845%20L%208.469%2024.904%20L%208.528%2024.913%20Z%20M%209.663%2026.88%20L%209.594%2026.88%20L%209.594%2026.948%20L%209.663%2026.948%20Z%20M%2010.796%2028.928%20L%2010.796%2028.996%20L%2010.865%2028.996%20L%2010.865%2028.928%20Z%20M%200.218%2028.928%20L%200.149%2028.928%20L%200.149%2028.996%20L%200.218%2028.996%20Z%20M%201.351%2026.88%20L%201.351%2026.948%20L%201.42%2026.948%20L%201.42%2026.88%20Z%20M%202.296%2024.833%20L%202.296%2024.901%20L%202.365%2024.901%20L%202.365%2024.833%20Z%20M%202.296%208.263%20L%202.365%208.263%20L%202.365%208.195%20L%202.296%208.195%20Z%20M%201.257%208.263%20L%201.191%208.282%20L%201.205%208.331%20L%201.257%208.331%20Z%20M%200.029%204.167%20L%200.029%204.1%20L%20-0.063%204.1%20L%20-0.037%204.187%20L%200.029%204.167%20Z%20M%205.507%204.167%20L%205.507%204.235%20L%205.576%204.235%20L%205.576%204.167%20Z%20M%2026.097%200.004%20L%205.507%200.004%20L%205.507%200.139%20L%2026.097%200.139%20Z%20M%2026.166%204.167%20L%2026.166%200.072%20L%2026.028%200.072%20L%2026.028%204.167%20L%2026.166%204.167%20Z%20M%2031.952%204.099%20L%2026.097%204.099%20L%2026.097%204.235%20L%2031.952%204.235%20Z%20M%2030.791%208.282%20L%2032.019%204.187%20L%2031.886%204.148%20L%2030.658%208.244%20Z%20M%2029.686%208.331%20L%2030.725%208.331%20L%2030.725%208.195%20L%2029.686%208.195%20Z%20M%2029.755%2024.833%20L%2029.755%208.263%20L%2029.617%208.263%20L%2029.617%2024.833%20Z%20M%2030.699%2025.763%20C%2030.699%2025.212%2030.245%2024.765%2029.686%2024.765%20L%2029.686%2024.9%20C%2030.169%2024.9%2030.561%2025.287%2030.561%2025.763%20Z%20M%2030.699%2026.88%20L%2030.699%2025.763%20L%2030.561%2025.763%20L%2030.561%2026.88%20Z%20M%2030.819%2026.813%20L%2030.63%2026.813%20L%2030.63%2026.948%20L%2030.819%2026.948%20Z%20M%2031.832%2027.811%20C%2031.832%2027.26%2031.379%2026.813%2030.819%2026.813%20L%2030.819%2026.948%20C%2031.303%2026.948%2031.695%2027.335%2031.695%2027.811%20Z%20M%2031.832%2028.928%20L%2031.832%2027.811%20L%2031.695%2027.811%20L%2031.695%2028.928%20Z%20M%2026.097%2028.996%20L%2031.764%2028.996%20L%2031.764%2028.86%20L%2026.097%2028.86%20Z%20M%2023.074%2028.996%20L%2026.097%2028.996%20L%2026.097%2028.86%20L%2023.074%2028.86%20Z%20M%2021.185%2028.996%20L%2023.074%2028.996%20L%2023.074%2028.86%20L%2021.185%2028.86%20Z%20M%2021.116%2027.811%20L%2021.116%2028.928%20L%2021.254%2028.928%20L%2021.254%2027.811%20Z%20M%2022.13%2026.813%20C%2021.57%2026.813%2021.116%2027.26%2021.116%2027.811%20L%2021.254%2027.811%20C%2021.254%2027.335%2021.646%2026.948%2022.13%2026.948%20Z%20M%2022.319%2026.813%20L%2022.13%2026.813%20L%2022.13%2026.948%20L%2022.319%2026.948%20Z%20M%2022.25%2025.763%20L%2022.25%2026.88%20L%2022.388%2026.88%20L%2022.388%2025.763%20Z%20M%2023.051%2024.787%20C%2022.593%2024.883%2022.25%2025.284%2022.25%2025.763%20L%2022.388%2025.763%20C%2022.388%2025.349%2022.684%2025.003%2023.08%2024.919%20Z%20M%2022.976%2015.71%20L%2022.996%2024.853%20L%2023.134%2024.853%20L%2023.114%2015.71%20Z%20M%2015.802%209.262%20C%2019.559%209.262%2022.645%2012.098%2022.976%2015.716%20L%2023.113%2015.704%20C%2022.776%2012.016%2019.632%209.126%2015.802%209.126%20Z%20M%208.628%2015.716%20C%208.959%2012.098%2012.044%209.262%2015.802%209.262%20L%2015.802%209.126%20C%2011.972%209.126%208.828%2012.016%208.49%2015.704%20Z%20M%208.608%2024.845%20L%208.628%2015.71%20L%208.49%2015.71%20L%208.47%2024.845%20Z%20M%209.732%2025.763%20C%209.732%2025.502%209.557%2025.273%209.331%2025.105%20C%209.104%2024.935%208.812%2024.817%208.549%2024.778%20L%208.528%2024.912%20C%208.769%2024.948%209.039%2025.057%209.248%2025.213%20C%209.459%2025.37%209.594%2025.563%209.594%2025.763%20Z%20M%209.732%2026.88%20L%209.732%2025.763%20L%209.594%2025.763%20L%209.594%2026.88%20Z%20M%209.852%2026.813%20L%209.663%2026.813%20L%209.663%2026.948%20L%209.852%2026.948%20Z%20M%2010.865%2027.811%20C%2010.865%2027.26%2010.411%2026.813%209.852%2026.813%20L%209.852%2026.948%20C%2010.335%2026.948%2010.727%2027.335%2010.727%2027.811%20Z%20M%2010.865%2028.928%20L%2010.865%2027.811%20L%2010.727%2027.811%20L%2010.727%2028.928%20Z%20M%208.529%2028.996%20L%2010.796%2028.996%20L%2010.796%2028.86%20L%208.529%2028.86%20Z%20M%208.372%2028.996%20L%208.529%2028.996%20L%208.529%2028.86%20L%208.372%2028.86%20Z%20M%205.507%2028.996%20L%208.372%2028.996%20L%208.372%2028.86%20L%205.507%2028.86%20Z%20M%200.218%2028.996%20L%205.507%2028.996%20L%205.507%2028.86%20L%200.218%2028.86%20Z%20M%200.149%2027.811%20L%200.149%2028.928%20L%200.287%2028.928%20L%200.287%2027.811%20Z%20M%201.162%2026.813%20C%200.603%2026.813%200.149%2027.26%200.149%2027.811%20L%200.287%2027.811%20C%200.287%2027.335%200.679%2026.948%201.162%2026.948%20Z%20M%201.351%2026.813%20L%201.162%2026.813%20L%201.162%2026.948%20L%201.351%2026.948%20Z%20M%201.282%2025.763%20L%201.282%2026.88%20L%201.42%2026.88%20L%201.42%2025.763%20Z%20M%202.296%2024.765%20C%201.736%2024.765%201.282%2025.212%201.282%2025.763%20L%201.42%2025.763%20C%201.42%2025.287%201.812%2024.9%202.296%2024.9%20Z%20M%202.227%208.263%20L%202.227%2024.833%20L%202.365%2024.833%20L%202.365%208.263%20Z%20M%201.257%208.331%20L%202.296%208.331%20L%202.296%208.195%20L%201.257%208.195%20Z%20M%20-0.037%204.187%20L%201.191%208.282%20L%201.323%208.244%20L%200.095%204.148%20Z%20M%205.507%204.099%20L%200.029%204.099%20L%200.029%204.235%20L%205.507%204.235%20L%205.507%204.099%20Z%20M%205.438%200.072%20L%205.438%204.167%20L%205.576%204.167%20L%205.576%200.072%20Z%22%20fill%3D%22rgb(255%2C255%2C255)%22%3E%3C%2Fpath%3E%3C%2Fsvg%3E",tagUrl:"https://warpcast.com/mbj357",textColor:"#FFFFFF",tooltipDescription:"This address is linked to a Farcaster account",warpcastHandle:"duckYduck"}}])},367411,e=>{"use strict";var l=e.i(950899),a=e.i(17470),i=e.i(272653);let t={label:"my-private-tag",display_name:"my private tag",address_hash:"0x"},n={label:"some-public-tag",display_name:"some public tag",address_hash:"0x"},s={label:"watchlist-name",display_name:"watchlist name"},r={address_hash:"0xb2a90505dc6680a7a695f7975d0d32EeF610f456",circulating_market_cap:"117268489.23970924",decimals:"18",exchange_rate:null,holders_count:"23",name:"hyfi.token",symbol:"HyFi",total_supply:"369000000000000000000000000",type:"ERC-20",icon_url:"http://localhost:3000/token-icon.png",reputation:"ok"};({...r,is_bridged:!0,origin_chain_id:"1",bridge_type:"omni",foreign_address:"0x4b333DEd10c7ca855EA2C8D4D90A0a8b73788c8b"});let d="0xd789a607CEac2f0E14867de4EB15b15C9FFB5859",o={hash:d,implementations:null,is_contract:!1,is_verified:null,name:"ArianeeStore",private_tags:[],watchlist_names:[],public_tags:[],ens_domain_name:null},c={hash:d,implementations:null,is_contract:!1,is_verified:null,name:"ArianeeStore",private_tags:[],watchlist_names:[],public_tags:[],ens_domain_name:"kitty.kitty.kitty.cat.eth"},x={hash:d,implementations:null,is_contract:!1,is_verified:null,name:"ArianeeStore",private_tags:[],watchlist_names:[],public_tags:[],ens_domain_name:"kitty.kitty.kitty.cat.eth",metadata:{reputation:null,tags:[{tagType:"name",name:"Mrs. Duckie",slug:"mrs-duckie",ordinal:0,meta:null}]}},h={hash:d,implementations:null,is_contract:!1,is_verified:null,name:null,private_tags:[],watchlist_names:[],public_tags:[],ens_domain_name:null};({...h,is_verified:!0,proxy_type:"eip7702"});let u={block_number_balance_updated_at:0x1d6247f,coin_balance:"27826501896887194214322205",creation_transaction_hash:"0xf2aff6501b632604c39978b47d309813d8a1bcca721864bbe86abf59704f195e",creator_address_hash:"0x803ad3F50b9e1fF68615e8B053A186e1be288943",creation_status:"success",exchange_rate:"0.04311",has_logs:!0,has_token_transfers:!1,has_tokens:!1,has_validated_blocks:!1,hash:d,implementations:[{address_hash:"0x2F4F4A52295940C576417d29F22EEb92B440eC89",name:"HomeBridge"}],is_contract:!0,is_verified:!0,name:"EternalStorageProxy",private_tags:[n],public_tags:[t],token:null,watchlist_names:[s],watchlist_address_id:42,ens_domain_name:null},j={block_number_balance_updated_at:0x1d6271c,coin_balance:"22910462800601256910890",creation_transaction_hash:null,creator_address_hash:null,creation_status:null,exchange_rate:"0.00432018",has_logs:!1,has_token_transfers:!1,has_tokens:!1,has_validated_blocks:!0,hash:d,implementations:[],is_contract:!1,is_verified:!1,name:"Kiryl Ihnatsyeu",private_tags:[],public_tags:[],token:null,watchlist_names:[],watchlist_address_id:null,ens_domain_name:null,filecoin:{actor_type:"evm",id:"f02977693",robust:"f410fuiwj6a3yxajbohrl5vu6ns6o2e2jriul52lvzci"}},p=[{address_hash:"0xA84d24bD8ACE4d349C5f8c5DeeDd8bc071Ce5e2b",name:null},{address_hash:"0xc9e91eDeA9DC16604022e4E5b437Df9c64EdB05A",name:"Diamond"},{address_hash:"0x2041832c62C0F89426b48B5868146C0b1fcd23E7",name:null},{address_hash:"0x5f7DC6ECcF05594429671F83cc0e42EE18bC0974",name:"VariablePriceFacet"},{address_hash:"0x7abC92E242e88e4B0d6c5Beb4Df80e94D2c8A78c",name:null},{address_hash:"0x84178a0c58A860eCCFB7E3aeA64a09543062A356",name:"MultiSaleFacet"},{address_hash:"0x33aD95537e63e9f09d96dE201e10715Ed40D9400",name:"SVGTemplatesFacet"},{address_hash:"0xfd86Aa7f902185a8Df9859c25E4BF52D3DaDd9FA",name:"ERC721AReceiverFacet"},{address_hash:"0x6945a35df18e59Ce09fec4B6cD3C4F9cFE6369de",name:null}],m="0x016316f61a259aa607096440fc3eeb90356e079be01975d2fb18347bd50df33c";var b=e.i(82032);let S={base_fee_per_gas:"10000000000",burnt_fees:"5449200000000000",burnt_fees_percentage:20.292245650793845,difficulty:"340282366920938463463374607431768211454",extra_data:"TODO",gas_limit:"12500000",gas_target_percentage:-91.28128,gas_used:"544920",gas_used_percentage:4.35936,hash:"0xccc75136de485434d578b73df66537c06b34c3c9b12d085daf95890c914fc2bc",height:0x1cbff3c,miner:{hash:"0xdAd49e6CbDE849353ab27DeC6319E687BFc91A41",implementations:null,is_contract:!1,is_verified:null,name:"Alex Emelyanov",private_tags:[],public_tags:[],watchlist_names:[],ens_domain_name:null},nonce:"0x0000000000000000",parent_hash:"0x44125f0eb36a9d942e0c23bb4e8117f7ba86a9537a69b59c0025986ed2b7500f",priority_fee:"23211757500000000",rewards:[{reward:"500000000000000000",type:"POA Mania Reward"},{reward:"1026853607510000000",type:"Validator Reward"},{reward:"500000000000000000",type:"Emission Reward"}],size:2448,state_root:"TODO",timestamp:"2022-11-11T11:59:35Z",total_difficulty:"10258276095980170141167591583995189665817672619",transactions_count:5,internal_transactions_count:12,transaction_fees:"26853607500000000",type:"block",uncles_hashes:[]};S.height,b.ZERO_ADDRESS,({...S,zilliqa:{view:1137735,aggregate_quorum_certificate:{signature:"0x82d29e8f06adc890f6574c3d0ae0c811de1db695b05ed2755ef384fe21bc44f6505b99e201f6000a65f38ff6a13e286306d0e380ef1b43a273eb9947b3f11f852e14b93c258c32b516f89696fcb1190b147364b789572ebdf85d79c4cf3cbbbb",view:1137735,signers:[1,2,3,8],nested_quorum_certificates:[{signature:"0xaeb3567577f9db68565c6f97c158b17522620a9684c6f6beaa78920951ad4cae0f287b630bdd034c4a4f89ada42e3dbe012985e976a6f64057d735a4531a26b4e46c182414eabbe625e5b15e6645be5b6522bdec113df408874f6d1e0d894dca",view:1137732,proposed_by_validator_index:1,signers:[3,8]},{signature:"0xaeb3567577f9db68565c6f97c158b17522620a9684c6f6beaa78920951ad4cae0f287b630bdd034c4a4f89ada42e3dbe012985e976a6f64057d735a4531a26b4e46c182414eabbe625e5b15e6645be5b6522bdec113df408874f6d1e0d894dca",view:1137732,proposed_by_validator_index:2,signers:[0,2]}]},quorum_certificate:{signature:"0xaeb3567577f9db68565c6f97c158b17522620a9684c6f6beaa78920951ad4cae0f287b630bdd034c4a4f89ada42e3dbe012985e976a6f64057d735a4531a26b4e46c182414eabbe625e5b15e6645be5b6522bdec113df408874f6d1e0d894dca",view:1137732,signers:[0,2,3,8]}}}).zilliqa;var g=e.i(66863);g.TokenType.NATIVE_DOMAIN_TOKEN,g.TokenType.WRAPPED_DOMAIN_TOKEN;let v="cat.eth",f={id:"ens",short_name:"ENS",title:"Ethereum Name Service",description:"The Ethereum Name Service (ENS) is a distributed, open, and extensible naming system based on the Ethereum blockchain.",tld_list:["eth","xyz"],icon_url:"https://i.imgur.com/GOfUwCb.jpeg",docs_url:"https://docs.ens.domains/",deployment_explorer_base_url:"http://localhost:3200/"},k,_={pool_id:"0x06da0fd433c1a5d7a4faa01111c044910a184553",is_contract:!0,chain_id:"1",base_token_address:"0xdac17f958d2ee523a2206206994597c13d831ec7",base_token_symbol:"USDT",base_token_icon_url:"https://localhost:3000/utia.jpg",quote_token_address:"0xc02aaa39b223fe8d0a0e5c4f27ead9083c756cc2",quote_token_symbol:"WETH",quote_token_icon_url:"https://localhost:3000/secondary_utia.jpg",base_token_fully_diluted_valuation_usd:"75486579078",base_token_market_cap_usd:"139312819076.195",quote_token_fully_diluted_valuation_usd:"486579078",quote_token_market_cap_usd:"312819076.195",liquidity:"2099941.2238",dex:{id:"sushiswap",name:"SushiSwap"},fee:"0.03",coin_gecko_terminal_url:"https://www.geckoterminal.com/eth/pools/0x06da0fd433c1a5d7a4faa01111c044910a184553"},y={..._,base_token_icon_url:null,quote_token_icon_url:null};var L=e.i(717450);let C={from:{hash:"0x0000000000000000000000000000000000000000",implementations:null,is_contract:!1,is_verified:!1,name:null,private_tags:[],public_tags:[],watchlist_names:[],ens_domain_name:null},to:{hash:"0xBb36c792B9B45Aaf8b848A1392B0d6559202729E",implementations:null,is_contract:!1,is_verified:!1,name:null,private_tags:[],public_tags:[],watchlist_names:[],ens_domain_name:"kitty.kitty.cat.eth"},token:{address_hash:"0xF56b7693E4212C584de4a83117f805B8E89224CB",circulating_market_cap:null,decimals:null,exchange_rate:null,holders_count:"1",name:null,symbol:"MY_SYMBOL_IS_VERY_LONG",type:"ERC-1155",total_supply:"0",icon_url:null,reputation:"ok"},total:{token_id:"123",value:"42",decimals:null,token_instance:null},transaction_hash:"0x05d6589367633c032d757a69c5fb16c0e33e3994b0d9d1483f82aeee1f05d746",type:"token_minting",timestamp:"2022-10-10T14:34:30.000000Z",block_number:"12345",block_hash:"1",log_index:"1"},T={...C,token:{...C.token,name:"SastanaNFT",symbol:"ipfs://QmUpFUfVKDCWeZQk5pvDFUxnpQP9N6eLSHhNUy49T1JVtY"},total:{token_id:"12345678",value:"100000000000000000000",decimals:null,token_instance:null}},w={...C,token:{...C.token,name:"SastanaNFT",symbol:"ipfs://QmUpFUfVKDCWeZQk5pvDFUxnpQP9N6eLSHhNUy49T1JVtY"},total:{token_id:"483200961027732618117991942553110860267520",value:"200000000000000000000",decimals:null,token_instance:null}},B={...C,token:{...C.token,name:"SastanaNFT",symbol:"ipfs://QmUpFUfVKDCWeZQk5pvDFUxnpQP9N6eLSHhNUy49T1JVtY"},total:{token_id:"456",value:"42",decimals:null,token_instance:null}},H={from:{hash:"0x0000000000000000000000000000000000000000",implementations:null,is_contract:!1,is_verified:!1,name:null,private_tags:[],public_tags:[],watchlist_names:[],ens_domain_name:null},to:{hash:"0xBb36c792B9B45Aaf8b848A1392B0d6559202729E",implementations:null,is_contract:!1,is_verified:!1,name:null,private_tags:[],public_tags:[],watchlist_names:[],ens_domain_name:"kitty.kitty.cat.eth"},token:{address_hash:"0xF56b7693E4212C584de4a83117f805B8E89224CB",circulating_market_cap:null,decimals:null,exchange_rate:null,holders_count:"1",name:null,symbol:"MY_SYMBOL_IS_VERY_LONG",type:"ERC-404",total_supply:"0",icon_url:null,reputation:"ok"},total:{value:"42000000000000000000000000",decimals:"18",token_id:null,token_instance:null},transaction_hash:"0x05d6589367633c032d757a69c5fb16c0e33e3994b0d9d1483f82aeee1f05d746",type:"token_transfer",method:"swap",timestamp:"2022-10-10T14:34:30.000000Z",block_number:"12345",block_hash:"1",log_index:"1"},z={...H,token:{...H.token,name:"SastanaNFT",symbol:"ipfs://QmUpFUfVKDCWeZQk5pvDFUxnpQP9N6eLSHhNUy49T1JVtY"},total:{token_id:"4625304364899952",token_instance:null}},P={base_fee_per_gas:"10000000000",block_number:0x1c3d6e6,confirmation_duration:[0,6364],confirmations:508299,created_contract:null,decoded_input:{method_call:"CreditSpended(uint256 _type, uint256 _quantity)",method_id:"58cdf94a",parameters:[{name:"_type",type:"uint256",value:"3"},{name:"_quantity",type:"uint256",value:"1"}]},exchange_rate:"0.00254428",historic_exchange_rate:"0.00254428",fee:{type:"actual",value:"7143168000000000"},from:{hash:"0x047A81aFB05D9B1f8844bf60fcA05DCCFbC584B9",implementations:null,is_contract:!1,name:null,is_verified:null,private_tags:[],public_tags:[n],watchlist_names:[],ens_domain_name:"kitty.kitty.cat.eth"},gas_limit:"800000",gas_price:"48000000000",gas_used:"148816",hash:"0x62d597ebcf3e8d60096dd0363bc2f0f5e2df27ba1dacd696c51aa7c9409f3193",max_fee_per_gas:"40190625000",max_priority_fee_per_gas:"28190625000",method:"updateSmartAsset",nonce:27831,position:7,priority_fee:"1299672384375000",raw_input:"0xfa4b78b90000000000000000000000000000000000000000000000000000000005001bcfe835d1028984e9e6e7d016b77164eacbcc6cc061e9333c0b37982b504f7ea791000000000000000000000000a79b29ad7e0196c95b87f4663ded82fbf2e3add8",result:"success",revert_reason:null,status:"ok",timestamp:"2022-10-10T14:34:30.000000Z",to:{hash:d,implementations:null,is_contract:!1,is_verified:!0,name:null,private_tags:[t],public_tags:[],watchlist_names:[s],ens_domain_name:null},token_transfers:[],token_transfers_overflow:!1,transaction_burnt_fee:"461030000000000",transaction_tag:null,transaction_types:["contract_call"],type:2,value:"42000000000000000000",actions:[],has_error_in_internal_transactions:!1};P.from,P.to,P.to,L.protocolTag,P.from,P.from;({...P,to:c});var D=e.i(393286),E=e.i(708632),I=e.i(771319),F=e.i(472257),A=e.i(587722),M=e.i(646082),R=e.i(945473),O=e.i(833690),W=e.i(359875),V=e.i(859600);let Z={address_hash:"0xdAC17F958D2ee523a2206206994597C13D831ec7",circulating_market_cap:"139446916652.6728",decimals:"6",exchange_rate:"0.999921",holders_count:"8348277",icon_url:"https://assets.coingecko.com/coins/images/325/small/Tether.png?1696501661",name:"Tether",symbol:"USDT",total_supply:"76923002799740785",type:"ERC-20",reputation:"ok"},G=i.default.memo(()=>(0,l.jsxs)(V.Container,{value:"link",children:[(0,l.jsxs)(V.Section,{title:"variants",children:[(0,l.jsx)(V.SectionHeader,{children:"Variants"}),(0,l.jsxs)(V.SamplesStack,{children:[(0,l.jsxs)(V.Sample,{label:"variant: primary",children:[(0,l.jsx)(D.Link,{href:"/blocks",variant:"primary",children:"Default"}),(0,l.jsx)(D.Link,{href:"/",variant:"primary","data-hover":!0,children:"Hover"})]}),(0,l.jsxs)(V.Sample,{label:"variant: secondary",children:[(0,l.jsx)(D.Link,{href:"/",variant:"secondary",children:"Default"}),(0,l.jsx)(D.Link,{href:"/",variant:"secondary","data-hover":!0,children:"Hover"})]}),(0,l.jsxs)(V.Sample,{label:"variant: subtle",children:[(0,l.jsx)(D.Link,{href:"/",variant:"subtle",children:"Default"}),(0,l.jsx)(D.Link,{href:"/",variant:"subtle","data-hover":!0,children:"Hover"})]}),(0,l.jsxs)(V.Sample,{label:"variant: navigation",children:[(0,l.jsx)(D.Link,{href:"/",variant:"navigation",p:2,borderRadius:"base",children:"Default"}),(0,l.jsx)(D.Link,{href:"/",variant:"navigation",p:2,borderRadius:"base","data-hover":!0,children:"Hover"}),(0,l.jsx)(D.Link,{href:"/",variant:"navigation",p:2,borderRadius:"base","data-selected":!0,children:"Selected"}),(0,l.jsx)(D.Link,{href:"/",variant:"navigation",p:2,borderRadius:"base","data-active":!0,children:"Active"})]}),(0,l.jsxs)(V.Sample,{label:"variant: underlaid",children:[(0,l.jsx)(D.Link,{href:"/",variant:"underlaid",external:!0,children:"Default"}),(0,l.jsx)(D.Link,{href:"/",variant:"underlaid",external:!0,"data-hover":!0,children:"Hover"})]}),(0,l.jsxs)(V.Sample,{label:"variant: menu",children:[(0,l.jsx)(D.Link,{href:"/",variant:"menu",children:"Default"}),(0,l.jsx)(D.Link,{href:"/",variant:"menu","data-hover":!0,children:"Hover"})]})]})]}),(0,l.jsxs)(V.Section,{title:"loading",children:[(0,l.jsx)(V.SectionHeader,{children:"Loading"}),(0,l.jsxs)(V.SamplesStack,{children:[(0,l.jsxs)(V.Sample,{label:"loading: true, variant: primary",children:[(0,l.jsx)(D.Link,{href:"/",loading:!0,children:"hello hello hello"}),(0,l.jsxs)("span",{children:["Within ",(0,l.jsx)(D.Link,{loading:!0,children:"hello"})," text"]})]}),(0,l.jsxs)(V.Sample,{label:"loading: true, variant: underlaid",children:[(0,l.jsx)(D.Link,{href:"/",loading:!0,variant:"underlaid",children:"hello hello hello"}),(0,l.jsxs)("span",{children:["Within ",(0,l.jsx)(D.Link,{loading:!0,variant:"underlaid",children:"hello hello"})," text"]})]})]})]}),(0,l.jsxs)(V.Section,{children:[(0,l.jsx)(V.SectionHeader,{children:"Examples"}),(0,l.jsx)(V.SectionSubHeader,{children:"Address link"}),(0,l.jsxs)(V.SamplesStack,{children:[(0,l.jsxs)(V.Sample,{label:"Without name",vertical:!0,children:[(0,l.jsx)(E.default,{address:h}),(0,l.jsx)(E.default,{address:h,link:{external:!0}}),(0,l.jsx)(E.default,{address:{...j,name:null}}),(0,l.jsx)(a.Box,{maxW:"200px",children:(0,l.jsx)(E.default,{address:h})}),(0,l.jsx)(E.default,{address:h,isLoading:!0})]}),(0,l.jsxs)(V.Sample,{label:"Variant: content, subheading",vertical:!0,children:[(0,l.jsx)(E.default,{address:h,variant:"content"}),(0,l.jsx)(E.default,{address:h,variant:"subheading"})]}),(0,l.jsxs)(V.Sample,{label:"With name",vertical:!0,children:[(0,l.jsx)(E.default,{address:o}),(0,l.jsx)(E.default,{address:x}),(0,l.jsx)(E.default,{address:c}),(0,l.jsx)(a.Box,{maxW:"150px",children:(0,l.jsx)(E.default,{address:c})})]}),(0,l.jsxs)(V.Sample,{label:"Contract",vertical:!0,children:[(0,l.jsx)(E.default,{address:{...u,is_verified:!1,name:null,implementations:[]}}),(0,l.jsx)(E.default,{address:{...u,implementations:[]}}),(0,l.jsx)(E.default,{address:{...u,implementations:p}}),(0,l.jsx)(E.default,{address:u})]})]}),(0,l.jsx)(V.SectionSubHeader,{children:"Token link"}),(0,l.jsxs)(V.SamplesStack,{children:[(0,l.jsxs)(V.Sample,{label:"With info",vertical:!0,w:"100%",children:[(0,l.jsx)(O.default,{token:Z}),(0,l.jsx)(a.Box,{maxW:"200px",children:(0,l.jsx)(O.default,{token:{...Z,name:"Token with very very very long name"},noSymbol:!0})}),(0,l.jsx)(a.Box,{maxW:"300px",children:(0,l.jsx)(O.default,{token:{...Z,symbol:"Token with very very very long symbol"}})}),(0,l.jsx)(O.default,{token:Z,jointSymbol:!0}),(0,l.jsx)(O.default,{token:Z,onlySymbol:!0}),(0,l.jsx)(O.default,{token:Z,isLoading:!0})]}),(0,l.jsxs)(V.Sample,{label:"With partial info",vertical:!0,w:"100%",children:[(0,l.jsx)(O.default,{token:{...Z,icon_url:null}}),(0,l.jsx)(O.default,{token:{...Z,icon_url:null,name:null,symbol:null}})]}),(0,l.jsxs)(V.Sample,{label:"Variant: content, subheading",vertical:!0,w:"100%",children:[(0,l.jsx)(O.default,{token:Z,variant:"content"}),(0,l.jsx)(O.default,{token:Z,variant:"subheading",jointSymbol:!0})]})]}),(0,l.jsx)(V.SectionSubHeader,{children:"Transaction link"}),(0,l.jsx)(V.SamplesStack,{children:(0,l.jsxs)(V.Sample,{label:"Default",vertical:!0,w:"100%",children:[(0,l.jsx)(W.default,{hash:P.hash}),(0,l.jsx)(W.default,{hash:P.hash,link:{external:!0}}),(0,l.jsx)(a.Box,{maxW:"200px",children:(0,l.jsx)(W.default,{hash:P.hash})}),(0,l.jsx)(W.default,{hash:P.hash,isLoading:!0})]})}),(0,l.jsx)(V.SectionSubHeader,{children:"Block link"}),(0,l.jsx)(V.SamplesStack,{children:(0,l.jsxs)(V.Sample,{label:"Default",vertical:!0,w:"100%",children:[(0,l.jsx)(F.default,{number:S.height}),(0,l.jsx)(F.default,{number:S.height,link:{external:!0},icon:{name:"txn_batches"}}),(0,l.jsx)(a.Box,{maxW:"150px",children:(0,l.jsx)(F.default,{number:0x462d53c8abac0})}),(0,l.jsx)(F.default,{number:S.height,isLoading:!0})]})}),(0,l.jsx)(V.SectionSubHeader,{children:"NFT link"}),(0,l.jsx)(V.SamplesStack,{children:(0,l.jsxs)(V.Sample,{label:"Default",vertical:!0,w:"100%",children:[(0,l.jsx)(M.default,{id:"42",hash:Z.address_hash}),(0,l.jsx)(a.Box,{maxW:"250px",children:(0,l.jsx)(M.default,{id:"32925298983216553915666621415831103694597106215670571463977478984525997408266",hash:Z.address_hash})}),(0,l.jsx)(M.default,{id:"4200000",hash:Z.address_hash,isLoading:!0})]})}),(0,l.jsx)(V.SectionSubHeader,{children:"ENS link"}),(0,l.jsxs)(V.SamplesStack,{children:[(0,l.jsxs)(V.Sample,{label:"Default",vertical:!0,w:"100%",children:[(0,l.jsx)(A.default,{domain:v,protocol:f}),(0,l.jsx)(a.Box,{maxW:"150px",children:(0,l.jsx)(A.default,{domain:"kitty.kitty.kitty.cat.eth",protocol:k})}),(0,l.jsx)(A.default,{domain:v,protocol:f,isLoading:!0})]}),(0,l.jsxs)(V.Sample,{label:"Variant: content, subheading",vertical:!0,w:"100%",children:[(0,l.jsx)(A.default,{domain:v,protocol:f,variant:"content"}),(0,l.jsx)(A.default,{domain:v,protocol:f,variant:"subheading"})]})]}),(0,l.jsx)(V.SectionSubHeader,{children:"Blob link"}),(0,l.jsx)(V.SamplesStack,{children:(0,l.jsxs)(V.Sample,{label:"Default",vertical:!0,w:"100%",children:[(0,l.jsx)(I.default,{hash:m}),(0,l.jsx)(a.Box,{maxW:"200px",children:(0,l.jsx)(I.default,{hash:m,link:{external:!0}})}),(0,l.jsx)(I.default,{hash:m,isLoading:!0})]})}),(0,l.jsx)(V.SectionSubHeader,{children:"Pool link"}),(0,l.jsx)(V.SamplesStack,{children:(0,l.jsxs)(V.Sample,{label:"Default",vertical:!0,w:"100%",children:[(0,l.jsx)(R.default,{pool:{..._,base_token_icon_url:"https://coin-images.coingecko.com/coins/images/39926/large/usds.webp?1726666683",quote_token_icon_url:"https://coin-images.coingecko.com/coins/images/39925/large/sky.jpg?1724827980"}}),(0,l.jsx)(a.Box,{maxW:"150px",children:(0,l.jsx)(R.default,{pool:y,link:{external:!0}})}),(0,l.jsx)(R.default,{pool:y,isLoading:!0})]})}),(0,l.jsx)(V.SectionSubHeader,{children:"Link overlay"}),(0,l.jsxs)(V.SamplesStack,{children:[(0,l.jsx)(V.Sample,{label:"Internal link",children:(0,l.jsxs)(D.LinkBox,{p:2,display:"flex",flexDirection:"column",columnGap:2,borderWidth:"1px",borderColor:"border.divider",borderRadius:"base",children:[(0,l.jsx)(D.LinkOverlay,{href:"/blocks",children:"Main link"}),(0,l.jsx)(D.Link,{href:"/txs",children:"Inner link"})]})}),(0,l.jsx)(V.Sample,{label:"External link",children:(0,l.jsxs)(D.LinkBox,{p:2,display:"flex",flexDirection:"column",columnGap:2,borderWidth:"1px",borderColor:"border.divider",borderRadius:"base",children:[(0,l.jsx)(D.LinkOverlay,{href:"https://scan.giltchain.com",external:!0,children:"Main link"}),(0,l.jsx)(D.Link,{href:"https://scan.giltchain.com/txs",external:!0,children:"Inner link"})]})})]})]})]}));e.s(["TOKEN",0,Z,"default",0,G],367411)},991205,e=>{"use strict";var l=e.i(950899),a=e.i(272653),i=e.i(688332),t=e.i(964915),n=e.i(955807),s=e.i(859600);let r=a.default.memo(()=>(0,l.jsx)(s.Container,{value:"menu",children:(0,l.jsxs)(s.Section,{children:[(0,l.jsx)(s.SectionHeader,{children:"Variant"}),(0,l.jsx)(s.SamplesStack,{children:(0,l.jsxs)(s.Sample,{label:"variant: subtle",children:[(0,l.jsxs)(t.MenuRoot,{children:[(0,l.jsx)(t.MenuTrigger,{asChild:!0,children:(0,l.jsx)(i.IconButton,{variant:"icon_background",size:"md",children:(0,l.jsx)(n.default,{name:"dots"})})}),(0,l.jsxs)(t.MenuContent,{children:[(0,l.jsx)(t.MenuItem,{value:"refresh-metadata",children:"Refresh metadata"}),(0,l.jsx)(t.MenuItem,{value:"add-token-info",children:"Add token info"}),(0,l.jsx)(t.MenuItem,{value:"add-private-tag",children:"Add private tag"}),(0,l.jsx)(t.MenuItem,{value:"add-public-tag",children:"Add public tag"})]})]}),(0,l.jsxs)(t.MenuRoot,{children:[(0,l.jsx)(t.MenuTrigger,{asChild:!0,children:(0,l.jsx)(i.IconButton,{variant:"icon_background",size:"md",loadingSkeleton:!0,children:(0,l.jsx)(n.default,{name:"dots"})})}),(0,l.jsxs)(t.MenuContent,{children:[(0,l.jsx)(t.MenuItem,{value:"refresh-metadata",children:"Refresh metadata"}),(0,l.jsx)(t.MenuItem,{value:"add-token-info",children:"Add token info"}),(0,l.jsx)(t.MenuItem,{value:"add-private-tag",children:"Add private tag"}),(0,l.jsx)(t.MenuItem,{value:"add-public-tag",children:"Add public tag"})]})]})]})})]})}));e.s(["default",0,r])},930907,e=>{"use strict";var l=e.i(950899),a=e.i(272653),i=e.i(858305),t=e.i(859600);let n=a.default.memo(()=>{let[e,n]=a.default.useState(1),s={page:e,onNextPageClick:()=>{n(e+1)},onPrevPageClick:()=>{n(e-1)},resetPage:()=>n(1),hasNextPage:e<10,hasPages:!0,isVisible:!0,canGoBackwards:!0,isLoading:!1};return(0,l.jsx)(t.Container,{value:"pagination",children:(0,l.jsxs)(t.Section,{children:[(0,l.jsx)(t.SectionHeader,{children:"Examples"}),(0,l.jsx)(t.SectionSubHeader,{children:"List pagination"}),(0,l.jsxs)(t.SamplesStack,{children:[(0,l.jsx)(t.Sample,{label:"Loaded state",children:(0,l.jsx)(i.default,{...s})}),(0,l.jsx)(t.Sample,{label:"Initial loading state",children:(0,l.jsx)(i.default,{...s,hasPages:!1,page:1,isLoading:!0})}),(0,l.jsx)(t.Sample,{label:"Next page loading state",children:(0,l.jsx)(i.default,{...s,isLoading:!0})})]})]})})});e.s(["default",0,n])},161726,e=>{"use strict";var l=e.i(950899),a=e.i(17470),i=e.i(272653),t=e.i(846851),n=e.i(859600);let s=i.default.memo(()=>(0,l.jsxs)(n.Container,{value:"pin-input",children:[(0,l.jsxs)(n.Section,{children:[(0,l.jsx)(n.SectionHeader,{children:"Variant"}),(0,l.jsx)(n.SamplesStack,{children:(0,l.jsxs)(n.Sample,{label:"variant: outline",children:[(0,l.jsx)(t.PinInput,{otp:!0,count:3}),(0,l.jsx)(a.Box,{bgColor:{_light:"blackAlpha.200",_dark:"whiteAlpha.200"},p:2,borderRadius:"base",w:"100%",children:(0,l.jsx)(t.PinInput,{otp:!0,count:3,value:["1","2","3"]})})]})})]}),(0,l.jsxs)(n.Section,{children:[(0,l.jsx)(n.SectionHeader,{children:"Disabled"}),(0,l.jsx)(n.SamplesStack,{children:(0,l.jsxs)(n.Sample,{label:"disabled: true",children:[(0,l.jsx)(t.PinInput,{otp:!0,count:3,disabled:!0,value:["1","2","3"]}),(0,l.jsx)(a.Box,{bgColor:{_light:"blackAlpha.200",_dark:"whiteAlpha.200"},p:2,borderRadius:"base",w:"100%",children:(0,l.jsx)(t.PinInput,{otp:!0,count:3,disabled:!0,value:["1","2","3"]})})]})})]})]}));e.s(["default",0,s])},818518,e=>{"use strict";var l=e.i(950899),a=e.i(272653),i=e.i(17789),t=e.i(532351),n=e.i(859600);let s=a.default.memo(()=>(0,l.jsx)(n.Container,{value:"popover",children:(0,l.jsxs)(n.Section,{children:[(0,l.jsx)(n.SectionHeader,{children:"Size"}),(0,l.jsx)(n.SamplesStack,{children:(0,l.jsx)(n.Sample,{label:"size: sm",children:(0,l.jsxs)(t.PopoverRoot,{children:[(0,l.jsx)(t.PopoverTrigger,{children:(0,l.jsx)(i.Button,{variant:"dropdown",children:"Trigger"})}),(0,l.jsx)(t.PopoverContent,{children:(0,l.jsx)(t.PopoverBody,{children:"Popover content"})})]})})})]})}));e.s(["default",0,s])},629117,e=>{"use strict";var l=e.i(950899),a=e.i(272653),i=e.i(344958),t=e.i(859600);let n=a.default.memo(()=>(0,l.jsx)(t.Container,{value:"progress",children:(0,l.jsxs)(t.Section,{children:[(0,l.jsx)(t.SectionHeader,{children:"Size"}),(0,l.jsx)(t.SamplesStack,{children:["sm","md","lg","xl"].map(e=>(0,l.jsx)(t.Sample,{label:`size: ${e}`,children:(0,l.jsx)(i.Progress,{w:"200px",min:0,max:100,value:45,size:e})},e))})]})}));e.s(["default",0,n])},832577,e=>{"use strict";var l=e.i(950899),a=e.i(272653),i=e.i(38297),t=e.i(859600);let n=a.default.memo(()=>(0,l.jsxs)(t.Container,{value:"progress-circle",children:[(0,l.jsxs)(t.Section,{children:[(0,l.jsx)(t.SectionHeader,{children:"Variant"}),(0,l.jsx)(t.SamplesStack,{children:(0,l.jsx)(t.Sample,{label:"colorPalette: blue",children:(0,l.jsx)(i.ProgressCircleRoot,{value:45,colorPalette:"blue",children:(0,l.jsx)(i.ProgressCircleRing,{})})})})]}),(0,l.jsxs)(t.Section,{children:[(0,l.jsx)(t.SectionHeader,{children:"Size"}),(0,l.jsx)(t.SamplesStack,{children:["sm","md","lg"].map(e=>(0,l.jsx)(t.Sample,{label:`size: ${e}`,children:(0,l.jsxs)(i.ProgressCircleRoot,{value:45,colorPalette:"blue",size:e,children:[(0,l.jsx)(i.ProgressCircleRing,{}),"lg"===e&&(0,l.jsx)(i.ProgressCircleValueText,{})]})},e))})]})]}));e.s(["default",0,n])},742635,e=>{"use strict";var l=e.i(950899),a=e.i(272653),i=e.i(82132),t=e.i(859600);let n=a.default.memo(()=>(0,l.jsxs)(t.Container,{value:"radio",children:[(0,l.jsxs)(t.Section,{children:[(0,l.jsx)(t.SectionHeader,{children:"Variant"}),(0,l.jsx)(t.SamplesStack,{children:(0,l.jsx)(t.Sample,{label:"variant: subtle",children:(0,l.jsxs)(i.RadioGroup,{defaultValue:"1",children:[(0,l.jsx)(i.Radio,{value:"1",children:"Option 1"}),(0,l.jsx)(i.Radio,{value:"2",children:"Option 2"})]})})})]}),(0,l.jsxs)(t.Section,{children:[(0,l.jsx)(t.SectionHeader,{children:"Size"}),(0,l.jsxs)(t.SamplesStack,{children:[(0,l.jsx)(t.Sample,{label:"size: xs",children:(0,l.jsxs)(i.RadioGroup,{defaultValue:"1",size:"xs",children:[(0,l.jsx)(i.Radio,{value:"1",children:"Option 1"}),(0,l.jsx)(i.Radio,{value:"2",children:"Option 2"})]})}),(0,l.jsx)(t.Sample,{label:"size: sm",children:(0,l.jsxs)(i.RadioGroup,{defaultValue:"1",size:"sm",children:[(0,l.jsx)(i.Radio,{value:"1",children:"Option 1"}),(0,l.jsx)(i.Radio,{value:"2",children:"Option 2"})]})}),(0,l.jsx)(t.Sample,{label:"size: md",children:(0,l.jsxs)(i.RadioGroup,{defaultValue:"1",size:"md",children:[(0,l.jsx)(i.Radio,{value:"1",children:"Option 1"}),(0,l.jsx)(i.Radio,{value:"2",children:"Option 2"})]})})]})]}),(0,l.jsxs)(t.Section,{children:[(0,l.jsx)(t.SectionHeader,{children:"Orientation"}),(0,l.jsxs)(t.SamplesStack,{children:[(0,l.jsx)(t.Sample,{label:"orientation: horizontal",children:(0,l.jsxs)(i.RadioGroup,{defaultValue:"1",orientation:"horizontal",children:[(0,l.jsx)(i.Radio,{value:"1",children:"Option 1"}),(0,l.jsx)(i.Radio,{value:"2",children:"Option 2"})]})}),(0,l.jsx)(t.Sample,{label:"orientation: vertical",children:(0,l.jsxs)(i.RadioGroup,{defaultValue:"1",orientation:"vertical",children:[(0,l.jsx)(i.Radio,{value:"1",children:"Option 1"}),(0,l.jsx)(i.Radio,{value:"2",children:"Option 2"})]})})]})]}),(0,l.jsxs)(t.Section,{children:[(0,l.jsx)(t.SectionHeader,{children:"Disabled"}),(0,l.jsx)(t.SamplesStack,{children:(0,l.jsx)(t.Sample,{label:"disabled: true",children:(0,l.jsxs)(i.RadioGroup,{defaultValue:"1",disabled:!0,children:[(0,l.jsx)(i.Radio,{value:"1",children:"Option 1"}),(0,l.jsx)(i.Radio,{value:"2",children:"Option 2"})]})})})]}),(0,l.jsxs)(t.Section,{children:[(0,l.jsx)(t.SectionHeader,{children:"Read-only"}),(0,l.jsx)(t.SamplesStack,{children:(0,l.jsx)(t.Sample,{label:"readOnly: true",children:(0,l.jsxs)(i.RadioGroup,{defaultValue:"1",readOnly:!0,children:[(0,l.jsx)(i.Radio,{value:"1",children:"Option 1"}),(0,l.jsx)(i.Radio,{value:"2",children:"Option 2"})]})})})]})]}));e.s(["default",0,n])},586304,e=>{"use strict";var l=e.i(950899),a=e.i(272653),i=e.i(268786),t=e.i(859600);let n=a.default.memo(()=>(0,l.jsxs)(t.Container,{value:"rating",children:[(0,l.jsxs)(t.Section,{children:[(0,l.jsx)(t.SectionHeader,{children:"Size"}),(0,l.jsx)(t.SamplesStack,{children:(0,l.jsx)(t.Sample,{label:"size: md",children:(0,l.jsx)(i.Rating,{defaultValue:3,label:["Very bad","Bad","Average","Good","Excellent"]})})})]}),(0,l.jsxs)(t.Section,{children:[(0,l.jsx)(t.SectionHeader,{children:"Read-only"}),(0,l.jsx)(t.SamplesStack,{children:(0,l.jsx)(t.Sample,{label:"readOnly: true",children:(0,l.jsx)(i.Rating,{defaultValue:3,label:["Very bad","Bad","Average","Good","Excellent"],readOnly:!0})})})]})]}));e.s(["default",0,n])},884629,e=>{"use strict";var l=e.i(950899),a=e.i(17470),i=e.i(265462),t=e.i(733705),n=e.i(272653),s=e.i(722278),r=e.i(675572),d=e.i(986562),o=e.i(955807),c=e.i(135964),x=e.i(749586),h=e.i(39229),u=e.i(859600);let j=(0,i.createListCollection)({items:[{label:"React.js is the most popular framework",value:"react",icon:(0,l.jsx)(o.default,{name:"navigation/api_keys",boxSize:5,flexShrink:0})},{label:"Vue.js is the second most popular framework",value:"vue"},{value:"angular",label:"Angular",renderLabel:()=>(0,l.jsxs)("div",{children:["Angular is ",(0,l.jsx)(a.Box,{as:"span",color:"red",fontWeight:"700",children:"not awesome"})]})},{label:"Svelte",value:"svelte"}]}),p=(0,i.createListCollection)({items:h.SORT_OPTIONS}),m=n.default.memo(()=>{let[e,a]=n.default.useState(!1),i=n.default.useCallback(e=>{a(e!==p.items[0].value)},[]);return(0,l.jsxs)(u.Container,{value:"select",children:[(0,l.jsxs)(u.Section,{children:[(0,l.jsx)(u.SectionHeader,{children:"Variant"}),(0,l.jsx)(u.SamplesStack,{children:(0,l.jsx)(u.Sample,{label:"variant: outline",children:(0,l.jsx)(r.Select,{collection:j,placeholder:"Select framework",size:"sm",w:"200px"})})})]}),(0,l.jsxs)(u.Section,{children:[(0,l.jsx)(u.SectionHeader,{children:"Size"}),(0,l.jsx)(u.SamplesStack,{children:["sm","lg"].map(e=>(0,l.jsxs)(u.Sample,{label:`size: ${e}`,children:[(0,l.jsx)(r.Select,{collection:j,placeholder:"Select framework",size:e,w:"300px"}),(0,l.jsx)(r.Select,{collection:j,placeholder:"Select framework",defaultValue:[j.items[0].value],size:e,w:"300px"}),(0,l.jsx)(r.Select,{collection:j,placeholder:"Select framework",defaultValue:[j.items[0].value],size:e,w:"300px",readOnly:!0}),(0,l.jsx)(r.Select,{collection:j,placeholder:"Select framework",defaultValue:[j.items[0].value],size:e,w:"300px",disabled:!0}),(0,l.jsx)(r.Select,{collection:j,placeholder:"Select framework",size:e,w:"300px",required:!0,invalid:!0,errorText:"Error message"}),(0,l.jsx)(r.Select,{collection:j,placeholder:"Select framework",defaultValue:[j.items[0].value],size:e,w:"300px",required:!0,invalid:!0,errorText:"Error message"})]},e))})]}),(0,l.jsxs)(u.Section,{children:[(0,l.jsx)(u.SectionHeader,{children:"With search (async)"}),(0,l.jsx)(u.SamplesStack,{children:(0,l.jsx)(u.Sample,{label:"variant: outline",children:(0,l.jsx)(r.SelectAsync,{placeholder:"Select framework",size:"lg",w:"300px",loadOptions:()=>Promise.resolve(j),extraControls:(0,l.jsx)(s.Checkbox,{mt:2,size:"sm",children:"Include nightly builds"})})})})]}),(0,l.jsxs)(u.Section,{children:[(0,l.jsx)(u.SectionHeader,{children:"Examples"}),(0,l.jsx)(u.SectionSubHeader,{children:"Sort"}),(0,l.jsx)(u.SamplesStack,{children:(0,l.jsxs)(u.Sample,{children:[(0,l.jsx)(c.default,{name:"transactions_sorting",defaultValue:[p.items[0].value],collection:p,w:"fit-content"}),(0,l.jsx)(c.default,{name:"transactions_sorting",defaultValue:[p.items[0].value],collection:p,isLoading:!0,w:"fit-content"})]})}),(0,l.jsx)(u.SectionSubHeader,{children:"Token transfers filter"}),(0,l.jsx)(u.SamplesStack,{children:(0,l.jsxs)(u.Sample,{children:[(0,l.jsx)(x.default,{defaultTypeFilters:[],onTypeFilterChange:t.noop,withAddressFilter:!0}),(0,l.jsx)(x.default,{defaultTypeFilters:[],onTypeFilterChange:t.noop,appliedFiltersNum:2}),(0,l.jsx)(x.default,{defaultTypeFilters:[],onTypeFilterChange:t.noop,appliedFiltersNum:2,isLoading:!0})]})}),(0,l.jsx)(u.SectionSubHeader,{children:"Radio filter"}),(0,l.jsx)(u.SamplesStack,{children:(0,l.jsxs)(u.Sample,{flexWrap:"nowrap",children:[(0,l.jsx)(d.default,{name:"transactions_sorting",collection:p,hasActiveFilter:e,onChange:i}),(0,l.jsx)(d.default,{name:"transactions_sorting",collection:p,hasActiveFilter:!0,onChange:t.noop,isLoading:!0})]})})]})]})});e.s(["default",0,m])},786749,e=>{"use strict";var l=e.i(950899),a=e.i(272653),i=e.i(606963),t=e.i(859600);let n=a.default.memo(()=>(0,l.jsx)(t.Container,{value:"skeleton",children:(0,l.jsxs)(t.Section,{children:[(0,l.jsx)(t.SectionHeader,{children:"Variants"}),(0,l.jsx)(t.SamplesStack,{children:(0,l.jsx)(t.Sample,{label:"default",children:(0,l.jsx)(i.Skeleton,{loading:!0,children:(0,l.jsx)("span",{children:"Skeleton"})})})})]})}));e.s(["default",0,n])},548778,e=>{"use strict";var l=e.i(950899),a=e.i(737453),i=e.i(272653),t=e.i(859600);let n=i.default.memo(()=>(0,l.jsx)(t.Container,{value:"spinner",children:(0,l.jsxs)(t.Section,{children:[(0,l.jsx)(t.SectionHeader,{children:"Spinner"}),(0,l.jsx)(t.SectionSubHeader,{children:"Sizes"}),(0,l.jsx)(t.SamplesStack,{children:["xs","sm","md","lg","xl"].map(e=>(0,l.jsx)(t.Sample,{label:`size: ${e}`,children:(0,l.jsx)(a.Spinner,{size:e})},e))})]})}));e.s(["default",0,n])},721855,e=>{"use strict";var l=e.i(950899),a=e.i(272653),i=e.i(498882),t=e.i(859600);let n=a.default.memo(()=>(0,l.jsxs)(t.Container,{value:"switch",children:[(0,l.jsxs)(t.Section,{children:[(0,l.jsx)(t.SectionHeader,{children:"Size"}),(0,l.jsxs)(t.SamplesStack,{children:[(0,l.jsx)(t.Sample,{label:"size: sm",children:(0,l.jsx)(i.Switch,{size:"sm",children:"Show duck"})}),(0,l.jsx)(t.Sample,{label:"size: md",children:(0,l.jsx)(i.Switch,{size:"md",children:"Show duck"})}),(0,l.jsx)(t.Sample,{label:"size: lg",children:(0,l.jsx)(i.Switch,{size:"lg",defaultChecked:!0,children:"Show duck"})})]})]}),(0,l.jsxs)(t.Section,{children:[(0,l.jsx)(t.SectionHeader,{children:"Disabled"}),(0,l.jsx)(t.SamplesStack,{children:(0,l.jsx)(t.Sample,{label:"disabled: true",children:(0,l.jsx)(i.Switch,{disabled:!0,children:"Show duck"})})})]}),(0,l.jsxs)(t.Section,{children:[(0,l.jsx)(t.SectionHeader,{children:"Direction"}),(0,l.jsxs)(t.SamplesStack,{children:[(0,l.jsx)(t.Sample,{label:"direction: rtl",children:(0,l.jsx)(i.Switch,{size:"sm",direction:"rtl",children:"Show duck"})}),(0,l.jsx)(t.Sample,{label:"direction: ltr",children:(0,l.jsx)(i.Switch,{size:"md",direction:"ltr",children:"Show duck"})})]})]})]}));e.s(["default",0,n])},177775,e=>{"use strict";var l=e.i(950899),a=e.i(17470),i=e.i(272653),t=e.i(483142),n=e.i(292854),s=e.i(859600);let r=[{id:1,name:"Laptop",category:"Electronics",price:999.99},{id:2,name:"Coffee Maker",category:"Home Appliances",price:49.99},{id:3,name:"Desk Chair",category:"Furniture",price:150},{id:4,name:"Smartphone",category:"Electronics",price:799.99},{id:5,name:"Headphones",category:"Accessories",price:199.99}],d={category:["category-desc","category-asc","default"],price:["price-desc","price-asc","default"]},o=i.default.memo(()=>{let[e,o]=i.default.useState("default"),c=i.default.useCallback(l=>{o((0,n.default)(d,l)(e))},[e,o]);return(0,l.jsx)(s.Container,{value:"table",children:(0,l.jsxs)(s.Section,{children:[(0,l.jsx)(s.SectionHeader,{children:"Variant"}),(0,l.jsx)(s.SamplesStack,{children:(0,l.jsxs)(s.Sample,{label:"variant: line",children:[(0,l.jsxs)(t.TableRoot,{children:[(0,l.jsx)(t.TableHeaderSticky,{children:(0,l.jsxs)(t.TableRow,{children:[(0,l.jsx)(t.TableColumnHeader,{children:"Product"}),(0,l.jsx)(t.TableColumnHeaderSortable,{sortField:"category",sortValue:e,onSortToggle:c,children:"Category"}),(0,l.jsx)(t.TableColumnHeaderSortable,{sortField:"price",sortValue:e,onSortToggle:c,isNumeric:!0,children:"Price"})]})}),(0,l.jsx)(t.TableBody,{children:r.slice().sort((l,a)=>"category-asc"===e?l.category.localeCompare(a.category):"category-desc"===e?a.category.localeCompare(l.category):"price-asc"===e?l.price-a.price:"price-desc"===e?a.price-l.price:0).map(e=>(0,l.jsxs)(t.TableRow,{children:[(0,l.jsx)(t.TableCell,{children:e.name}),(0,l.jsx)(t.TableCell,{children:e.category}),(0,l.jsx)(t.TableCell,{isNumeric:!0,children:e.price})]},e.id))})]}),(0,l.jsx)(a.Box,{h:"1000px"})]})})]})})});e.s(["default",0,o])},780872,e=>{"use strict";var l=e.i(950899),a=e.i(17470),i=e.i(272653),t=e.i(908343),n=e.i(534066),s=e.i(859600);let r=i.default.memo(()=>{let e=[{id:"tab1",title:"Swaps",component:(0,l.jsx)("div",{children:"Swaps content"}),count:10},{id:"tab2",title:"Bridges",component:(0,l.jsx)("div",{children:"Bridges content"}),count:0},{id:"tab3",title:"Liquidity staking",component:(0,l.jsx)("div",{children:"Liquidity staking content"}),count:300},{id:"tab4",title:"Lending",component:(0,l.jsx)("div",{children:"Lending content"}),count:400},{id:"tab5",title:"Yield farming",component:(0,l.jsx)("div",{children:"Yield farming content"})}];return(0,l.jsxs)(s.Container,{value:"tabs",children:[(0,l.jsxs)(s.Section,{children:[(0,l.jsx)(s.SectionHeader,{children:"Variants"}),(0,l.jsxs)(s.SamplesStack,{children:[(0,l.jsx)(s.Sample,{label:"variant: solid",children:(0,l.jsxs)(t.TabsRoot,{defaultValue:"tab1",variant:"solid",children:[(0,l.jsxs)(t.TabsList,{children:[(0,l.jsx)(t.TabsTrigger,{value:"tab1",children:"First tab"}),(0,l.jsx)(t.TabsTrigger,{value:"tab2",children:"Second tab"})]}),(0,l.jsx)(t.TabsContent,{value:"tab1",children:"First tab content"}),(0,l.jsx)(t.TabsContent,{value:"tab2",children:"Second tab content"})]})}),(0,l.jsx)(s.Sample,{label:"variant: secondary",children:(0,l.jsxs)(t.TabsRoot,{defaultValue:"tab1",variant:"secondary",size:"sm",children:[(0,l.jsxs)(t.TabsList,{children:[(0,l.jsx)(t.TabsTrigger,{value:"tab1",children:"First tab"}),(0,l.jsx)(t.TabsTrigger,{value:"tab2",children:"Second tab"})]}),(0,l.jsx)(t.TabsContent,{value:"tab1",children:"First tab content"}),(0,l.jsx)(t.TabsContent,{value:"tab2",children:"Second tab content"})]})}),(0,l.jsx)(s.Sample,{label:"variant: segmented",children:(0,l.jsxs)(t.TabsRoot,{defaultValue:"tab1",variant:"segmented",size:"sm",children:[(0,l.jsxs)(t.TabsList,{children:[(0,l.jsx)(t.TabsTrigger,{value:"tab1",children:"First tab"}),(0,l.jsx)(t.TabsTrigger,{value:"tab2",children:"Second tab"}),(0,l.jsx)(t.TabsTrigger,{value:"tab3",children:"Third tab"}),(0,l.jsx)(t.TabsTrigger,{value:"tab4",children:"Fourth tab"})]}),(0,l.jsx)(t.TabsContent,{value:"tab1",children:"First tab content"}),(0,l.jsx)(t.TabsContent,{value:"tab2",children:"Second tab content"}),(0,l.jsx)(t.TabsContent,{value:"tab3",children:"Third tab content"}),(0,l.jsx)(t.TabsContent,{value:"tab4",children:"Fourth tab content"})]})})]})]}),(0,l.jsxs)(s.Section,{children:[(0,l.jsx)(s.SectionHeader,{children:"Examples"}),(0,l.jsx)(s.SectionSubHeader,{children:"Adaptive tabs"}),(0,l.jsx)(s.SamplesStack,{children:(0,l.jsx)(s.Sample,{gridColumn:"1 / 3",w:"100%",maxW:{base:"100vw",lg:"700px"},children:(0,l.jsx)(n.default,{w:"100%",tabs:e,defaultValue:e[0].id,outline:"1px dashed lightpink",leftSlot:(0,l.jsx)(a.Box,{display:{base:"none",lg:"block"},children:"Left element"}),leftSlotProps:{pr:{base:0,lg:4},color:"text.secondary"},rightSlot:(0,l.jsxs)(a.Box,{display:{base:"none",lg:"flex"},justifyContent:"space-between",children:[(0,l.jsx)("span",{children:"Right element"}),(0,l.jsx)("span",{children:"🙈"})]}),rightSlotProps:{pl:{base:0,lg:4},color:"text.secondary",widthAllocation:"available"}})})})]})]})});e.s(["default",0,r])},124658,e=>{"use strict";var l=e.i(950899),a=e.i(272653),i=e.i(717450),t=e.i(72713),n=e.i(278414),s=e.i(859600);let r=a.default.memo(()=>(0,l.jsxs)(s.Container,{value:"tag",children:[(0,l.jsxs)(s.Section,{children:[(0,l.jsx)(s.SectionHeader,{children:"Variant"}),(0,l.jsxs)(s.SamplesStack,{children:[(0,l.jsx)(s.Sample,{label:"variant: subtle",children:(0,l.jsx)(t.Tag,{children:"My tag"})}),(0,l.jsx)(s.Sample,{label:"variant: clickable",children:(0,l.jsx)(t.Tag,{variant:"clickable",children:"My tag"})}),(0,l.jsx)(s.Sample,{label:"variant: filter",children:(0,l.jsx)(t.Tag,{variant:"filter",children:"My tag"})}),(0,l.jsxs)(s.Sample,{label:"variant: select",children:[(0,l.jsx)(t.Tag,{variant:"select",children:"Default"}),(0,l.jsx)(t.Tag,{variant:"select",selected:!0,children:"Selected"})]})]})]}),(0,l.jsxs)(s.Section,{children:[(0,l.jsx)(s.SectionHeader,{children:"Size"}),(0,l.jsxs)(s.SamplesStack,{children:[(0,l.jsx)(s.Sample,{label:"size: md",children:(0,l.jsx)(t.Tag,{size:"md",children:"My tag"})}),(0,l.jsx)(s.Sample,{label:"size: lg",children:(0,l.jsx)(t.Tag,{size:"lg",children:"My tag"})})]})]}),(0,l.jsxs)(s.Section,{children:[(0,l.jsx)(s.SectionHeader,{children:"Truncated"}),(0,l.jsx)(s.SamplesStack,{children:(0,l.jsx)(s.Sample,{label:"truncated: true",children:(0,l.jsx)(t.Tag,{maxW:"150px",truncated:!0,children:"Very very very very very very very long text"})})})]}),(0,l.jsxs)(s.Section,{children:[(0,l.jsx)(s.SectionHeader,{children:"Closable"}),(0,l.jsx)(s.SamplesStack,{children:(0,l.jsx)(s.Sample,{label:"closable: true",children:(0,l.jsx)(t.Tag,{closable:!0,children:"My tag"})})})]}),(0,l.jsxs)(s.Section,{children:[(0,l.jsx)(s.SectionHeader,{children:"Loading"}),(0,l.jsxs)(s.SamplesStack,{children:[(0,l.jsxs)(s.Sample,{label:"loading: true",children:[(0,l.jsx)(t.Tag,{loading:!0,children:"My tag"}),(0,l.jsx)(t.Tag,{maxW:"150px",truncated:!0,loading:!0,children:"Very very very very very very very long text"})]}),(0,l.jsxs)(s.Sample,{label:"loading: true, variant: select",children:[(0,l.jsx)(t.Tag,{variant:"select",loading:!0,children:"Default"}),(0,l.jsx)(t.Tag,{variant:"select",selected:!0,loading:!0,children:"Selected"})]}),(0,l.jsxs)(s.Sample,{label:"loading: false",children:[(0,l.jsx)(t.Tag,{children:"My tag"}),(0,l.jsx)(t.Tag,{maxW:"150px",truncated:!0,children:"Very very very very very very very long text"})]})]})]}),(0,l.jsxs)(s.Section,{children:[(0,l.jsx)(s.SectionHeader,{children:"Examples"}),(0,l.jsx)(s.SectionSubHeader,{children:"Public tags"}),(0,l.jsx)(s.SamplesStack,{children:(0,l.jsxs)(s.Sample,{children:[(0,l.jsx)(n.default,{data:i.nameTag}),(0,l.jsx)(n.default,{data:i.customNameTag}),(0,l.jsx)(n.default,{data:i.warpcastTag}),(0,l.jsx)(n.default,{data:i.genericTag}),(0,l.jsx)(n.default,{data:i.protocolTag}),(0,l.jsx)(n.default,{data:i.infoTagWithLink,maxW:"150px"}),(0,l.jsx)(n.default,{data:i.tagWithTooltip}),(0,l.jsx)(n.default,{data:i.nameTag,isLoading:!0})]})}),(0,l.jsx)(s.SectionSubHeader,{children:"Filter tags"}),(0,l.jsx)(s.SamplesStack,{children:(0,l.jsxs)(s.Sample,{children:[(0,l.jsx)(t.Tag,{variant:"filter",label:"Type",children:"All"}),(0,l.jsx)(t.Tag,{variant:"filter",label:"Address",truncated:!0,maxW:"150px",closable:!0,children:"0x1234567890123456789012345678901234567890"}),(0,l.jsx)(t.Tag,{variant:"filter",label:"Type",loading:!0,children:"All"})]})})]})]}));e.s(["default",0,r])},58295,e=>{"use strict";var l=e.i(950899),a=e.i(17470),i=e.i(272653),t=e.i(258998),n=e.i(413618),s=e.i(859600),r=e.i(466279);let d=i.default.memo(()=>(0,l.jsx)(s.Container,{value:"textarea",children:(0,l.jsxs)(s.Section,{children:[(0,l.jsx)(s.SectionHeader,{children:"Variant"}),(0,l.jsx)(s.SamplesStack,{children:(0,l.jsxs)(s.Sample,{label:"variant: outline",w:"360px",children:[(0,l.jsx)(t.Field,{label:"Description",required:!0,floating:!0,size:"2xl",children:(0,l.jsx)(n.Textarea,{})}),(0,l.jsx)(t.Field,{label:"Description",required:!0,floating:!0,size:"2xl",children:(0,l.jsx)(n.Textarea,{value:r.TEXT})}),(0,l.jsx)(t.Field,{label:"Description (invalid)",required:!0,floating:!0,invalid:!0,size:"2xl",children:(0,l.jsx)(n.Textarea,{value:r.TEXT})}),(0,l.jsx)(t.Field,{label:"Description (readOnly)",required:!0,floating:!0,readOnly:!0,size:"2xl",children:(0,l.jsx)(n.Textarea,{value:r.TEXT})}),(0,l.jsx)(t.Field,{label:"Description (disabled)",required:!0,floating:!0,disabled:!0,size:"2xl",children:(0,l.jsx)(n.Textarea,{value:r.TEXT})}),(0,l.jsx)(a.Box,{bgColor:{_light:"blackAlpha.200",_dark:"whiteAlpha.200"},p:4,borderRadius:"base",w:"100%",children:(0,l.jsx)(t.Field,{label:"Description",required:!0,floating:!0,size:"2xl",children:(0,l.jsx)(n.Textarea,{value:r.TEXT})})})]})})]})}));e.s(["default",0,d])},623868,e=>{"use strict";var l=e.i(950899),a=e.i(272653),i=e.i(17789),t=e.i(765102),n=e.i(859600),s=e.i(466279);let r=a.default.memo(()=>(0,l.jsx)(n.Container,{value:"toast",children:(0,l.jsxs)(n.Section,{children:[(0,l.jsx)(n.SectionHeader,{children:"Type"}),(0,l.jsxs)(n.SamplesStack,{children:[(0,l.jsx)(n.Sample,{label:"type: info",children:(0,l.jsx)(i.Button,{onClick:()=>t.toaster.create({title:"Info",description:s.TEXT.slice(0,100),type:"info"}),children:"Info"})}),(0,l.jsx)(n.Sample,{label:"type: success",children:(0,l.jsx)(i.Button,{onClick:()=>t.toaster.success({title:"Success",description:"Toast content"}),children:"Success"})}),(0,l.jsx)(n.Sample,{label:"type: warning",children:(0,l.jsx)(i.Button,{onClick:()=>t.toaster.create({title:"Warning",description:"Toast content",type:"warning"}),children:"Warning"})}),(0,l.jsx)(n.Sample,{label:"type: error",children:(0,l.jsx)(i.Button,{onClick:()=>t.toaster.error({title:"Error",description:"Toast content"}),children:"Error"})}),(0,l.jsx)(n.Sample,{label:"type: loading",children:(0,l.jsx)(i.Button,{onClick:()=>t.toaster.loading({title:"Loading",description:"Please wait for..."}),children:"Loading"})})]})]})}));e.s(["default",0,r])},607577,e=>{"use strict";var l=e.i(950899),a=e.i(272653),i=e.i(28264),t=e.i(879472),n=e.i(859600);let s=a.default.memo(()=>(0,l.jsx)(n.Container,{value:"tooltip",children:(0,l.jsxs)(n.Section,{children:[(0,l.jsx)(n.SectionHeader,{children:"Variant"}),(0,l.jsxs)(n.SamplesStack,{children:[(0,l.jsxs)(n.Sample,{label:"variant: regular",children:[(0,l.jsx)(i.Tooltip,{content:"Tooltip content",children:(0,l.jsx)("span",{children:"Default"})}),(0,l.jsx)(i.Tooltip,{content:"Tooltip content",interactive:!0,children:(0,l.jsx)(t.default,{value:.5})})]}),(0,l.jsx)(n.Sample,{label:"variant: popover",children:(0,l.jsx)(i.Tooltip,{content:"Tooltip content",variant:"popover",children:(0,l.jsx)("span",{children:"Default"})})})]})]})}));e.s(["default",0,s])},114571,e=>{"use strict";var l=e.i(950899),a=e.i(606100),i=e.i(272653),t=e.i(874878),n=e.i(119923),s=e.i(846585),r=e.i(655163),d=e.i(679046),o=e.i(367411),c=e.i(859600);let x=i.default.memo(()=>(0,l.jsxs)(c.Container,{value:"values",children:[(0,l.jsxs)(c.Section,{children:[(0,l.jsx)(c.SectionHeader,{children:"SimpleValue"}),(0,l.jsx)(c.SectionSubHeader,{children:"Basic examples"}),(0,l.jsxs)(c.SamplesStack,{children:[(0,l.jsx)(c.Sample,{label:"Big value",children:(0,l.jsx)(r.default,{value:(0,a.default)("1000000000000000000000000"),startElement:"Get your ",endElement:" DUCK now!",maxW:"400px"})}),(0,l.jsx)(c.Sample,{label:"Small value",children:(0,l.jsx)(r.default,{value:(0,a.default)(1).div("1000000000000000000"),prefix:"$",maxW:"400px"})}),(0,l.jsx)(c.Sample,{label:"No accuracy",children:(0,l.jsx)(r.default,{value:(0,a.default)(1).div("1000000000000000000"),accuracy:0,startElement:"Get your ",endElement:" DUCK now!",maxW:"400px"})})]}),(0,l.jsx)(c.SectionSubHeader,{children:"Overflowed"}),(0,l.jsxs)(c.SamplesStack,{children:[(0,l.jsx)(c.Sample,{label:"Big value",children:(0,l.jsx)(r.default,{value:(0,a.default)("1000000000000000000000000"),endElement:"ETH",overflowed:!0,maxW:"200px"})}),(0,l.jsx)(c.Sample,{label:"Small value",children:(0,l.jsx)(r.default,{value:(0,a.default)(1).div("1000000000000000000"),prefix:"$",overflowed:!0,maxW:"200px"})})]}),(0,l.jsx)(c.SectionSubHeader,{children:"Loading"}),(0,l.jsx)(c.SamplesStack,{children:(0,l.jsx)(c.Sample,{label:"loading: true",children:(0,l.jsx)(r.default,{loading:!0,value:(0,a.default)("1000000000000000000000000"),startElement:"Get your ",endElement:" DUCK now!",maxW:"400px"})})})]}),(0,l.jsxs)(c.Section,{children:[(0,l.jsx)(c.SectionHeader,{children:"NativeCoinValue"}),(0,l.jsx)(c.SectionSubHeader,{children:"Units"}),(0,l.jsx)(c.SamplesStack,{children:(0,l.jsx)(c.Sample,{label:"wei",children:(0,l.jsx)(s.default,{amount:"1000000000000000000000000",units:"wei",maxW:"200px"})})}),(0,l.jsx)(c.SamplesStack,{children:(0,l.jsx)(c.Sample,{label:"gwei",children:(0,l.jsx)(s.default,{amount:"1000000000000000000000000",units:"gwei",maxW:"200px"})})}),(0,l.jsx)(c.SamplesStack,{children:(0,l.jsx)(c.Sample,{label:"ether",children:(0,l.jsx)(s.default,{amount:"1000000000000000000000000",units:"ether",maxW:"200px"})})}),(0,l.jsx)(c.SectionSubHeader,{children:"Gwei threshold"}),(0,l.jsxs)(c.SamplesStack,{children:[(0,l.jsx)(c.Sample,{label:"gweiThreshold: undefined",children:(0,l.jsx)(s.default,{amount:"100000000000",units:"wei",maxW:"200px"})}),(0,l.jsx)(c.Sample,{label:"gweiThreshold: 5",children:(0,l.jsx)(s.default,{amount:"100000000000",units:"wei",gweiThreshold:5,maxW:"200px"})})]}),(0,l.jsx)(c.SectionSubHeader,{children:"Different units in tooltip"}),(0,l.jsx)(c.SamplesStack,{children:(0,l.jsx)(c.Sample,{label:"unitsTooltip: 'gwei'",children:(0,l.jsx)(s.default,{amount:"100000000000",units:"wei",unitsTooltip:"gwei",maxW:"200px"})})}),(0,l.jsx)(c.SectionSubHeader,{children:"Layout"}),(0,l.jsxs)(c.SamplesStack,{children:[(0,l.jsx)(c.Sample,{label:"horizontal",children:(0,l.jsx)(s.default,{amount:"1000000000000000",exchangeRate:"4200",layout:"horizontal",maxW:"200px"})}),(0,l.jsx)(c.Sample,{label:"vertical",children:(0,l.jsx)(s.default,{amount:"1000000000000000",exchangeRate:"4200",layout:"vertical",maxW:"200px"})})]})]}),(0,l.jsxs)(c.Section,{children:[(0,l.jsx)(c.SectionHeader,{children:"TokenValue"}),(0,l.jsx)(c.SectionSubHeader,{children:"Examples"}),(0,l.jsx)(c.SamplesStack,{children:(0,l.jsx)(c.Sample,{label:"convertible token",children:(0,l.jsx)(d.default,{amount:"1000000000000000000000000",token:o.TOKEN,maxW:"400px"})})})]}),(0,l.jsxs)(c.Section,{children:[(0,l.jsx)(c.SectionHeader,{children:"AssetValue"}),(0,l.jsx)(c.SectionSubHeader,{children:"Layout"}),(0,l.jsxs)(c.SamplesStack,{children:[(0,l.jsx)(c.Sample,{label:"horizontal",children:(0,l.jsx)(t.default,{amount:"1000000000000000000000000",asset:"DUCK",decimals:"6",exchangeRate:"4200",maxW:"400px"})}),(0,l.jsx)(c.Sample,{label:"vertical",children:(0,l.jsx)(t.default,{amount:"1000000000000000000000000",asset:"DUCK",decimals:"6",exchangeRate:"4200",maxW:"250px",layout:"vertical"})})]}),(0,l.jsx)(c.SectionSubHeader,{children:"Loading"}),(0,l.jsx)(c.SamplesStack,{children:(0,l.jsxs)(c.Sample,{label:"loading: true",children:[(0,l.jsx)(t.default,{amount:"1000000000000000000000000",asset:"DUCK",decimals:"6",exchangeRate:"4200",maxW:"400px",loading:!0}),(0,l.jsx)(t.default,{amount:"1000000000000000000000000",asset:"DUCK",decimals:"6",exchangeRate:"4200",maxW:"300px",layout:"vertical",loading:!0})]})})]}),(0,l.jsxs)(c.Section,{children:[(0,l.jsx)(c.SectionHeader,{children:"GasPriceValue"}),(0,l.jsx)(c.SectionSubHeader,{children:"Examples"}),(0,l.jsx)(c.SamplesStack,{children:(0,l.jsx)(c.Sample,{label:"default",children:(0,l.jsx)(n.default,{amount:"420000"})})})]})]}));e.s(["default",0,x])},187640,e=>e.a(async(l,a)=>{try{var i=e.i(950899),t=e.i(272653),n=e.i(742516),s=e.i(594185),r=e.i(498882),d=e.i(908343),o=e.i(949394),c=e.i(315660),x=e.i(232881),h=e.i(475010),u=e.i(272158),j=e.i(338099),p=e.i(759568),m=e.i(492810),b=e.i(738908),S=e.i(156354),g=e.i(186798),v=e.i(184911),f=e.i(813716),k=e.i(462965),_=e.i(774151),y=e.i(367411),L=e.i(991205),C=e.i(930907),T=e.i(161726),w=e.i(818518),B=e.i(629117),H=e.i(832577),z=e.i(742635),P=e.i(586304),D=e.i(884629),E=e.i(786749),I=e.i(548778),F=e.i(721855),A=e.i(177775),M=e.i(780872),R=e.i(124658),O=e.i(58295),W=e.i(623868),V=e.i(607577),Z=e.i(114571),G=l([u]);[u]=G.then?(await G)():G;let N=[{label:"Accordion",value:"accordion",component:(0,i.jsx)(c.default,{})},{label:"Alert",value:"alert",component:(0,i.jsx)(x.default,{})},{label:"Badge",value:"badge",component:(0,i.jsx)(h.default,{})},{label:"Button",value:"button",component:(0,i.jsx)(u.default,{})},{label:"Checkbox",value:"checkbox",component:(0,i.jsx)(j.default,{})},{label:"Clipboard",value:"clipboard",component:(0,i.jsx)(p.default,{})},{label:"Close button",value:"close-button",component:(0,i.jsx)(m.default,{})},{label:"Collapsible",value:"collapsible",component:(0,i.jsx)(b.default,{})},{label:"Content loader",value:"content-loader",component:(0,i.jsx)(S.default,{})},{label:"Dialog",value:"dialog",component:(0,i.jsx)(g.default,{})},{label:"Empty state",value:"empty-state",component:(0,i.jsx)(v.default,{})},{label:"Field",value:"field",component:(0,i.jsx)(f.default,{})},{label:"Icon button",value:"icon-button",component:(0,i.jsx)(k.default,{})},{label:"Input",value:"input",component:(0,i.jsx)(_.default,{})},{label:"Link",value:"link",component:(0,i.jsx)(y.default,{})},{label:"Menu",value:"menu",component:(0,i.jsx)(L.default,{})},{label:"Pagination",value:"pagination",component:(0,i.jsx)(C.default,{})},{label:"Progress",value:"progress",component:(0,i.jsx)(B.default,{})},{label:"Progress Circle",value:"progress-circle",component:(0,i.jsx)(H.default,{})},{label:"Radio",value:"radio",component:(0,i.jsx)(z.default,{})},{label:"Rating",value:"rating",component:(0,i.jsx)(P.default,{})},{label:"Pin input",value:"pin-input",component:(0,i.jsx)(T.default,{})},{label:"Popover",value:"popover",component:(0,i.jsx)(w.default,{})},{label:"Select",value:"select",component:(0,i.jsx)(D.default,{})},{label:"Skeleton",value:"skeleton",component:(0,i.jsx)(E.default,{})},{label:"Spinner",value:"spinner",component:(0,i.jsx)(I.default,{})},{label:"Switch",value:"switch",component:(0,i.jsx)(F.default,{})},{label:"Table",value:"table",component:(0,i.jsx)(A.default,{})},{label:"Tabs",value:"tabs",component:(0,i.jsx)(M.default,{})},{label:"Tag",value:"tag",component:(0,i.jsx)(R.default,{})},{label:"Textarea",value:"textarea",component:(0,i.jsx)(O.default,{})},{label:"Toast",value:"toast",component:(0,i.jsx)(W.default,{})},{label:"Tooltip",value:"tooltip",component:(0,i.jsx)(V.default,{})},{label:"Values",value:"values",component:(0,i.jsx)(Z.default,{})}],q=t.default.memo(()=>{let e=(0,s.useColorMode)(),l=(0,n.default)();return(0,i.jsxs)(i.Fragment,{children:[(0,i.jsx)(o.default,{title:"Chakra UI Showcase"}),(0,i.jsxs)(r.Switch,{onCheckedChange:e.toggleColorMode,checked:"dark"===e.colorMode,mb:10,children:["Color mode: ",e.colorMode]}),(0,i.jsxs)(d.TabsRoot,{defaultValue:"accordion",orientation:l?"horizontal":"vertical",children:[(0,i.jsx)(d.TabsList,{flexWrap:"wrap",w:"fit-content",whiteSpace:"nowrap",children:N.map(e=>(0,i.jsx)(d.TabsTrigger,{value:e.value,children:e.label},e.value))}),N.map(e=>(0,i.jsx)(t.default.Fragment,{children:e.component},e.value))]})]})});e.s(["default",0,q]),a()}catch(e){a(e)}},!1),165668,e=>e.a(async(l,a)=>{try{var i=e.i(950899),t=e.i(58066),n=e.i(187640),s=l([n]);[n]=s.then?(await s)():s,e.s(["__N_SSP",()=>!0,"default",0,()=>(0,i.jsx)(t.default,{pathname:"/chakra",children:(0,i.jsx)(n.default,{})})]),a()}catch(e){a(e)}},!1),914634,(e,l,a)=>{let i="/chakra";(window.__NEXT_P=window.__NEXT_P||[]).push([i,()=>e.r(165668)]),l.hot&&l.hot.dispose(function(){window.__NEXT_P.push([i])})}]);